:400000000080002011000000FD140000FD14000080B500AF024A034B1B68136001F072FABC760040FA46004010B5054C237833B9044B13B10448AFF300800123237010BD88
:400040003086FF1F00000000505F0000084B10B51BB108480849AFF300800848036803B910BD074B002BFBD0BDE81040184700BF00000000505F00003486FF1F0881FF1F89
:400080000000000080B485B000AF78600023FB600023BB6016E0BB68DB007A6813441B68B3F1FF3F08D1BB68DB007A6813445B68B3F1FF3F00D108E0FB680133FB60BB687F
:4000C0000133BB60BB688B2BE5DDFB6818461437BD465DF8047B704780B485B000AF786039600023FB6014E0FB68DB007A6813441B68B3F1FF3F09D0FB68DB007A68134455
:400100005B68B3F1FF3F01D0002307E0FB680133FB60FA683B689A42E6DB012318461437BD465DF8047B704780B483B000AF3B4683E803003B68002B02DB3B68122B02DDE1
:400140004FF0FF3313E07B68002B02DB7B680E2B02DD4FF0FF330AE07A68396807481346DB0013445B0013440B4450F8233018460C37BD465DF8047B704700BF5081FF1F04
:4001800080B483B000AF3B4683E803007A68396807481346DB0013445B0013440B44022240F823200C37BD465DF8047B704700BF5081FF1F80B58EB000AF786039604FF0EC
:4001C000FF337B6303233B634FF0FF33FB620023BB627868FFF756FF386200237B627DE07B6ADB007A681A4407F1140392E8030083E803007B6A0133DB007A681A4407F1D5
:400200000C0392E8030083E803007A69FB689A4208D1BA693B699A4201DD032300E00123FB620BE0BA693B699A4207D17A69FB689A4201DD022300E00023FB62FA6A3B6BCC
:40024000D21A2E4B1340002B03DA013B63F003030133FB617B6B01337B63FB69002B00D139E07B6B002B07D0BB6A5A1CBA629B003A6813447A6B1A60FB69B3F1FF3F02D07E
:40028000FB69032B09D1BB6A5A1CBA629B003A6813444FF0FF321A6019E0FB69012B03D0FB6913F1030F09D1BB6A5A1CBA629B003A6813446FF001021A6008E0BB6A5A1C43
:4002C000BA629B003A6813446FF002021A6000237B63FB6A3B637B6A01337B623B6A5A1E7B6A9A423FF77CAFBB6A9B003A6813447A6B01321A603837BD4680BD03000080BB
:4003000080B586B000AFF860B9607A603B6007F1200393E80300FFF707FF78617B69002B21D107F1200393E80300FFF729FF3B68DB007A68134407F1200292E8030083E8DE
:400340000300BB681B68591CBA6811601A464FF48C6303FB02F3FA681344184679684FF48C6205F0A6FD1837BD4680BD90B5ADF5AF4D95B002AF07F14804403C84E80300EF
:4003800007F14801483981E80C0007F5AF4303F1580318684FF0FF314FF48C6205F094FD002307F5AF4202F14402136034E007F5305303F108032C3B07F5AF4202F1440248
:4003C00012684FF48C6101FB02F2134418464FF0FF314FF48C6205F077FD07F148032C3B07F5AF4202F1440212684FF48C6101FB02F2134418464FF0FF314FF48C6205F0F1
:4004000063FD07F5AF4303F144031B68013307F5AF4202F14402136007F5AF4303F144031B68092BC3DD07F5305202F108022C3A07F14803403B93E8030082E8030007F1E1
:400440004803403B93E80300FFF79AFE012307F5AF4202F14002136007F14803303B00221A6007F14803303B00221A60002307F5AF4202F13C02136037E107F5305303F11E
:4004800008032C3B07F5AF4202F13C0212684FF48C6101FB02F2134418468C21FFF71CFE0346002B40F0168107F5305303F108032C3B07F5AF4202F13C0212684FF48C61B8
:4004C00001FB02F2134407F5AF4202F15802106819464FF48C6205F0ECFC07F5305303F108032C3B07F5AF4202F13C0212684FF48C6101FB02F2134418464FF0FF314FF492
:400500008C6205F0E1FC07F5AF4303F140031B6803F10053013BDB0007F5AF4202F1580212681A4407F14803383B92E8030083E8030007F14803383B1A6807F14803483B44
:400540001B689A420AD107F14803383B5A6807F14803483B5B689A4200F02D8107F14803383B1B6807F5AF4202F11C02136007F14803383B5B68013B07F5AF4202F1200265
:40058000136007F148022C3A07F14803303B6C4607F5AF4101F11C0103C984E803001046194607F5AF4303F158031A6807F5AF4303F140031B68FFF7A3FE07F14803383B21
:4005C0001B6807F5AF4202F12402136007F14803383B5B68013307F5AF4202F12802136007F148022C3A07F14803303B6C4607F5AF4101F1240103C984E8030010461946DA
:4006000007F5AF4303F158031A6807F5AF4303F140031B68FFF774FE07F14803383B1B68013B07F5AF4202F12C02136007F14803383B5B6807F5AF4202F13002136007F1FF
:4006400048022C3A07F14803303B6C4607F5AF4101F12C0103C984E803001046194607F5AF4303F158031A6807F5AF4303F140031B68FFF745FE07F14803383B1B68013362
:4006800007F5AF4202F13402136007F14803383B5B6807F5AF4202F13802136007F148022C3A07F14803303B6C4607F5AF4101F1340103C984E803001046194607F5AF43B2
:4006C00003F158031A6807F5AF4303F140031B68FFF716FE07F5AF4303F13C031B68013307F5AF4202F13C02136007F5AF4303F13C031B68092B7FF7C0AE002307F5AF4242
:4007000002F13C02136043E007F5305303F108032C3B07F5AF4202F13C0212684FF48C6101FB02F2981807F148032C3B07F5AF4202F13C0212684FF48C6101FB02F21344EC
:4007400001461A464FF48C63084611461A4605F0B0FB07F148032C3B07F5AF4202F13C0212684FF48C6101FB02F2134418464FF0FF314FF48C6205F0A7FB07F5AF4303F1CB
:400780003C031B68013307F5AF4202F13C02136007F5AF4303F13C031B68092BB4DD07F5AF4303F140031B68013307F5AF4202F14002136055E607F5AF474C37BD4690BDD8
:4007C00080B500AF04F044F803461A46054B1A6004F0C4F803461A46034B1A60034B01221A6080BD8C86FF1F9086FF1F8886FF1F80B400AF034B01221A60BD465DF8047BF4
:40080000704700BF6086FF1F80B5ADF5467D02AF7F4A07F53F7392E8030083E803007D4A07F53D7392E8030083E803000023C7F80C3310E007F1D402D7F80C337649DB00AC
:4008400013440A4692E8030083E80300D7F80C330133C7F80C33D7F80C33432BEADD07F1D403009307F53F7393E8030007F53D730CCBFFF77BFD07F1D40207F10C031046B9
:400880001946FFF797FC4FF4FA6003F0AFFC62B60020012101F050FB03F088FD03F0A4FE01F008FB01F028FA5C4801F035FA03F0B9FF04F03DF801F0D5F903F041FA01F0F5
:4008C000E7F9574803F042FE012004F03FFA07F1080308221A603B1D08221A600023C7F80833504800F064FD07F10C03184600F069FD76E000F09EFC07F10C03D7F80823B3
:4009000053F82230142B00DD73E007F10C03D7F8082353F8223013F1020F0AD1424800F047FD07F108023B1D1046194600F014FB43E007F10C03D7F8082353F82230B3F1EC
:40094000FF3F0AD1394800F033FD07F108023B1D1046194600F0A0FA2FE007F10C03D7F8082353F8223013F1030F0AD1304800F01FFD07F108023B1D1046194600F060FBA8
:400980001BE007F10C03D7F8082353F82230142B13DC284800F00CFD07F10C03D7F8082353F82230C7F8043307F108023B1DD7F8040311461A4600F0C3F800F047FC07F1B6
:4009C0000C03D7F8082353F82230184600F060FD4FF47A7003F00AFCD7F808330133C7F8083307F10C03D7F8082353F82230002B80D1012003F0D4FE002003F07BFD00209D
:400A000003F08AFE0023184607F54477BD4680BD706000007860000080600000C1070000F1070000146000003060000044600000586000006460000080B582B000AF0346F8
:400A4000FB80FB88184601F029F90346184601F043F9034618460837BD4680BD80B58AB000AF00237B6215E07B6A9BB21BB21846FFF7E2FF38622D4A7B6A52F823203B6A9E
:400A80009A4204DA29497B6A3A6A41F823207B6A01337B627B6A052BE6DD254B1B680133234A1360224B1B68C82B39D100237B6229E01E4A7B6A52F823203B46104619462A
:400AC0000A2205F0F4F93B46184600F071FC194800F06EFC154A7B6A52F8233040F22B129342D4BF01230023DBB2D9B2124A7B6A13440A461A700D4A7B6A002142F823109E
:400B00007B6A01337B627B6A052BD2DD0B4800F04FFC012004F056F9054B00221A6002E0002004F04FF92837BD4680BD6C86FF1F8486FF1F886000006486FF1F8C6000002C
:400B400080B586B000AFF860B9607A60BB6808221A607B6808221A604FF000037B61FA6813465B0013449B00083B3B61A3E0594B1B68002B04D0FFF771FF564B00221A6071
:400B8000554B1B68002B35D001F016F9534B1A68534B1B681046194600F062FB03467869194604F079FE03467B614C4B19684D4B1A687B681B68084611461A46012300F0D5
:400BC000B7FB474B1968484B1A68BB681B68084611461A46002300F0ABFB424B1B683F4A1360414B1B683E4A13603B4B00221A6001F0D6F83D4B5B78002B25D03B4B1B782C
:400C0000002B0ED1394B9B78002B0AD0BB681B685A1EBB681A607B681B685A1C7B681A602DE0324B1B78002B29D0304B9B78002B25D1BB681B685A1CBB681A607B681B680B
:400C40005A1E7B681A601AE0284B1B78002B09D1264B9B78002B05D0254800F0A9FB00F087F80CE0214B1B78002B08D01F4B9B78002B04D11F4800F09BFB00F03DF8BB6806
:400C80001B68092B02DDBB6809221A607B681B68092B02DD7B6809221A60BB681B68032B02DCBB6804221A607B681B68032B02DC7B6804221A60386904F0A2FE034618468F
:400CC000796905F0ADF80346002B7FF450AF1837BD4680BD6086FF1F8886FF1F9486FF1F9886FF1F8C86FF1F9086FF1F6486FF1F90600000A060000080B582B000AF01F0FC
:400D00005BF803F0A5FD03467B6003F027FE03463B60002003F0EEFB4FF4E17003F0FCFC08E0114B1B68002B04D0FFF797FE0E4B00221A600D4B5B78002BF2D04FF4E1703E
:400D400003F0D8FB7B689BB21BB2184603F092FD3B689BB21BB2184603F012FE01F020F80837BD4680BD00BF6086FF1F6486FF1F80B582B000AF01F01FF803F069FD03469F
:400D80007B6003F0EBFD03463B604FF4E17003F0B1FB002003F0C0FC08E0114B1B68002B04D0FFF75BFE0E4B00221A600D4B5B78002BF2D04FF4E17003F0AEFC7B689BB214
:400DC0001BB2184603F056FD3B689BB21BB2184603F0D6FD00F0E4FF0837BD4680BD00BF6086FF1F6486FF1F80B584B000AF78607B68224A82FB03129210DB17D31A1846D4
:400E000004F0FEFD0346BB604FF00003FB602AE01B4B1B68002B04D0FFF720FE184B00221A60184B1B68002B1DD000F0C5FF164B1A68164B1B681046194600F011FA03464B
:400E4000F868194604F028FD0346FB60104B1B680D4A13600F4B1B680C4A1360094B00221A6000F09DFFF868B96804F0BBFF0346002BCDD11037BD4680BD00BF4FECC44E58
:400E80006086FF1F8886FF1F9486FF1F9886FF1F8C86FF1F9086FF1F80B582B000AF00F08BFF03F0D5FC03467B6003F057FD03463B60244800F07CFA08E0234B1B68002BB1
:400EC00004D0FFF7CBFD204B00221A601F4BDB78002BF2D01E4800F06BFA0020012100F051FA4FF4E17003F005FB4FF4E17003F013FC7B689BB21BB2184603F0BBFC3B68B2
:400F00009BB21BB2184603F03BFD00F049FF2D20FFF76AFF0F4800F04BFA08E00A4B1B68002B04D0FFF79AFD074B00221A60074B5B78002BF2D00120012100F023FA0837C3
:400F4000BD4680BDB06000006086FF1F6486FF1FC0600000D060000080B582B000AF00F02BFF03F075FC03467B6003F0F7FC03463B602D4800F01CFA2C4800F019FA2A48DF
:400F800000F016FA08E02A4B1B68002B04D0FFF765FD274B00221A60264B5B79002BF2D0214800F005FA244800F002FA1E4800F0FFF90120002100F0E5F94FF4E17003F025
:400FC00099FA4FF4E17003F0A7FB7B689BB21BB2184603F04FFC3B689BB21BB2184603F0CFFC00F0DDFE2D20FFF7FEFE0E4800F0DFF9124800F0DCF90B4800F0D9F908E07F
:401000000B4B1B68002B04D0FFF728FD084B00221A60084B5B78002BF2D00120012100F0B1F90837BD4680BDE4600000046100006086FF1F6486FF1F246100004461000080
:4010400080B586B000AF78603960584800F0B0F9574800F0ADF94FF000037B6142E0554B1B68002B04D0FFF7F9FC524B00221A60514B1B68002B35D000F09EFE4F4B1A68FA
:401080004F4B1B681046194600F0EAF803467869194604F001FC03467B61484B1968494B1A687B681B68084611461A46012300F03FF9434B1968444B1A683B681B68084678
:4010C00011461A46002300F033F93E4B1B683B4A13603D4B1B683A4A1360374B00221A6000F05EFE78694FF0824104F07BFE0346002BB4D100F060FE03F0AAFB03463B6176
:4011000003F02CFC0346FB60304800F051F908E0284B1B68002B04D0FFF7A0FC254B00221A602B4B5B79002B07D1294BDB78002B03D1274B1B79002BEAD1264800F038F935
:401140000120002100F01EF94FF4E17003F0D2F94FF4E17003F0E0FA3B699BB21BB2184603F088FBFB689BB21BB2184603F008FC00F016FEB420FFF737FE174800F018F9AC
:4011800008E00C4B1B68002B04D0FFF767FC094B00221A600E4B5B78002BF2D00120012100F0F0F81837BD4680BD00BF58600000646100006086FF1F8886FF1F9486FF1FBE
:4011C0009886FF1F8C86FF1F9086FF1F7C6100006486FF1F98610000D060000080B584B000AF786003F0A6F903461A467B681344FB60FB6823EAE3739BB2184603F07AF9AA
:401200001037BD4680BD00BF80B584B000AF786003F0BAFA03461A467B681344FB60FB6823EAE3739BB2184603F076FA1037BD4680BD00BF80B500AF4FF4C87003F05AF9D4
:401240004FF4C87003F068FA80BD00BF80B500AF002003F04FF9002003F05EFA80BD00BF80B584B000AF786039602D4B1A687B68D31A002BB8BF5B42184604F0C1FB034613
:401280001846284904F0C4FC0346184604F048F802460B46104619461FA3D3E9002304F093F802460B461046194604F09FFA0346FB601D4B1A683B68D31A002BB8BF5B422A
:4012C000184604F09DFB03461846164904F0A0FC0346184604F024F802460B46104619460DA3D3E9002304F06FF802460B461046194604F07BFA0346BB60F868B96804F0EF
:40130000CBFA034618464FF0804104F081FC034618461037BD4680BDCE8C7E349C6B34408C86FF1F000064439086FF1FAFF3008080B586B000AFF860B9607A603B60FA688C
:40134000BB689A4200DD19E0BA68FB68D31A002BB8BF5B427B617B69002B00D10EE07A687B69D31A3B613B68002B03D03869FFF735FF02E03869FFF747FF00BF1837BD46B2
:4013800080BD00BF80B582B000AF786039607B68002B0CBF01230023DBB2184603F0F4FC3B68DBB2184603F0D1FC0837BD4680BD80B483B000AF786000BF0C37BD465DF8A7
:4013C000047B704780B58CB000AF78602A48FFF7EFFF0023FB6245E0FB6A9B007A6813441B68002B03D1FB6A002B41DD3DE0FB6A9B007A6813441B6813F1020F0AD0B3F1EF
:40140000FF3F03D013F1030F08D00BE01B48FFF7CFFF19E01A48FFF7CBFF15E01948FFF7C7FF11E0FB6A9B007A6813441A6807F10C03104619460A2204F039FD07F10C03A9
:401440001846FFF7B5FF00BFFB6A01339B007A6813441B68002B02D00B48FFF7A9FFFB6A0133FB62FB6A312BB6DD0848FFF7A0FF3037BD4680BD00BF645F0000A861000066
:40148000AC610000B0610000B4610000B861000080B58AB000AF78607B6813F1020F0AD0B3F1FF3F03D013F1030F08D00BE00F48FFF77EFF14E00E48FFF77AFF10E00D48C2
:4014C000FFF776FF0CE007F10803786819460A2204F0EDFC07F108031846FFF769FF00BF0548FFF765FF2837BD4680BDA8610000AC610000B06100008C60000080B400AF90
:40150000FEE700BF80B586B000AF224B7B61224B3B61204B7B6135E03B691B68FB603B695B68BB603B699B683B6000237B600CE0FB681A68BB681A60BB680433BB60FB68B5
:401540000433FB607B6804337B607A683B689A42EED13B69DB683B6000237B6008E0BB6800221A60BB680433BB607B6804337B607A683B689A42F2D13B6910333B617B69A8
:40158000013B7B617B69002BC6D104F053FCFFF73BF9FEE701000000F063000080B582B000AF184B184A1A60184A184B1B6843F40073136000237B600FE07B68032B04D833
:4015C000134A7B6852F8233000E0124B12497A6841F822307B6801337B607B682F2BECD90E4B1B78DAB20E4B1A700E4B0A4A1A6000F084F902F0D0FB0B4B00221A60083738
:40160000BD4680BD0CED00E00004FA0514ED00E000000000FD1400000080FF1FBC7600400481FF1F08ED00E00081FF1F80B582B000AF78603960786800213A6804F044FC17
:401640000837BD4680BD00BF80B584B000AFF860B9607A60F868B9687A6804F02AFC1037BD4680BD80B483B000AF0346FB71FEE780B487B000AF7860396000233B610023A8
:401680007B6127E07B699B007A6813441B68BB60BB68FB73BB6823F0FF03BB6014E03B695B003A6813441B781A46BB68134419463B695B003A6813445B780B703B69013337
:4016C0003B61FB7B013BFB73FB7B002BE7D17B6901337B617B692B2BD4D91C37BD465DF8047B704780B582B000AF3C4B04221A803B4B18221A703B4B0B221A803A4B1C2262
:401700001A703A4B38221A80394B18221A70394B81221A80384B18221A70384B00221A80374B1B221A70374B06221A70364B52221A70364B364A1278D2B21A70354B40F6CC
:4017400019121A80344B41F251221A800023FB7019237B6014E0FB785B00DAB22F4B1B78DBB203F00103DBB21343DBB203F00303FB704FF4F07002F0FFFA7B68013B7B6005
:401780007B68002B02D0FB78032BE4D17B68002B02D10320FFF766FF214B4FF480721A801F4B07221A701F4B00221A701E4B48221A701B4B00221A701C4B00221A701C4B3D
:4017C00002221A701B4A1B4B1B78DBB243F01F03DBB213700837BD4680BD00BF80400040824000408440004086400040884000408A4000408C4000408E4000409040004065
:40180000924000400043004000420040A14600400F0100492242004020420040254200400440004006400040084000400940004001400040A243004080B582B000AF224BE0
:401840001B78FB71214B1B78BB71214B1B787B71204AFB7903F00703DBB213701E4AFB791B09DBB21370194ABB7943F00303DBB21370174A7B7943F00303DBB21370174B78
:4018800080221A70164BF4221A70164B40221A70154B40221A70154B8F221A70144B20221A70144B80221A700A2002F0C1FC084A7B791370054ABB7913700F4B44221A701F
:4018C0000837BD4680BD00BFCF010049F8460040F94600406E5800406F5800400D5100401D510040095900400B590040285B00402B5B0040585B00407658004080B586B000
:4019000000AF72B6584B61221A70FFF7EBFE564B01221A70554A554B1B78DBB243F00403DBB213700023FB7513E0FA7D13465B0013445B004E4A13443B613B691A683B6992
:401940009B889BB210461946FFF770FEFB7D0133FB75FB7D062BE8D90023FB751CE0FA7D13469B0013445B00424A1344FB60FB681B68BB60FB685B687B60FB681A7A5B7AA0
:401980001B0213437B807B88B86879681A46FFF75BFEFB7D0133FB75FB7D002BDFD04FF090403549FFF764FE34480421FFF73EFE334834490422FFF747FE334A324B1B78FA
:4019C000DBB243F00203DBB21370304A2F4B1B78DBB243F00203DBB213702D4A2C4B1B78DBB243F04003DBB213702A4A294B1B78DBB243F01003DBB21370274827490822BB
:401A0000FFF722FE264827490822FFF71DFE264826490A22FFF718FE254826490822FFF713FE254825490A22FFF70EFE244825490822FFF709FE244B84221A70234B4422D8
:401A40001A70234A224B1B78DBB243F00803DBB21370FFF7F1FE1F480D490E22FFF7F4FD1837BD4680BD00BF00480040E8460040BC610000E8610000B00000480076004083
:401A800008760040241000480350014013500140A0430040C243004002510040EC0F0048C2510040F40F0048F0510040FC0F004812510040081000482051004010100048E8
:401AC000325100401C100048DB0C01405B14014022430040B043004080B500AF022001214FF4804241F6FF7302F09EF803461A460A4B1A700C20012141F6FF7241F6FF737A
:401B000002F0C6F803461A46054B1A70054802F0F3F8002002F002F980BD00BFA086FF1FA186FF1FF107000080B582B000AF444B1B78184602F0A4F9424B1B78184602F029
:401B40009FF9414B1B78FF2B05D102F0A7FA03461A463D4B1A703C4B1A783B4B1B7810460C211A46062302F0C7FA374B1A78374B9BB2104645F6A2311A4602F0FDFA304B64
:401B80001A78314B1B781046194602F019FA304B1B78FF2B05D102F081FA03461A462C4B1A702B4B1A782A4B1B7810460C211A46072302F0A1FA264B1978244B9AB2254BCE
:401BC0009BB2084611461A4602F0D6FA1D4B1A781F4B1B781046194602F0F2F9184B1B781846012102F006F9164B1B781846012102F000F902F0C8F80346FB71164A164B5A
:401C00001B78DBB243F02003DBB21370FB79184602F0BEF8114A114B1B78DBB243F00103DBB213700D4A0D4B1B78DBB243F00203DBB213700A4B01221A600837BD4680BDFE
:401C4000A086FF1FA186FF1FF485FF1FA486FF1FF585FF1FC086FF1F9B6500407C64004080E200E080B500AF074B1B68002B04D1FFF732FF044B01221A60FFF755FF01F057
:401C80008FFE024B1B7880BD9C86FF1F6E64004080B500AF01F032FF80BD00BF80B483B000AF0346FB80FB88C3F10503084A32F813309AB2074B1B889BB29BB2D31A9BB239
:401CC0009BB21BB218460C37BD465DF8047B7047C086FF1F6A87FF1F80B582B000AF0346FB80B7F90630184601F058FF034618460837BD4680BD00BF80B500AF00F05CF8B5
:401D0000044800F029F8072000F038F800F048F880BD00BF3D1D000080B582B000AF786000F04AF8786800F017F8072000F026F800F036F80837BD4680BD00BF80B400AF06
:401D4000044B1B780133DAB2024B1A70BD465DF8047B70474C86FF1F80B485B000AF7860054B1B68FB60FB685C337A681A601437BD465DF8047B704708ED00E080B483B0EB
:401D800000AF0346FB71054AFB795B01DBB213700C37BD465DF8047B704700BF07E400E080B400AF034B80221A60BD465DF8047B704700BF00E100E080B400AF034B802207
:401DC0001A60BD465DF8047B704700BF80E100E080B500AF214A214B1B78DBB203F00103DBB213701E4A1E4B1B78DBB223F00303DBB213701B4A1B4B1B78DBB223F03003AE
:401E0000DBB21370174A174B1B78DBB243F03003DBB21370134A134B1B78DBB223F00F03DBB213700F4A0F4B1B78DBB243F00F03DBB213700C4A0C4B1B78DBB243F00103FD
:401E4000DBB2137040F6B73000F054F840F6B73000F062F8082000F03DF880BD184F00401A4F0040234F0040194F004080B400AF0D4A0D4B1B78DBB243F00403DBB2137062
:401E80000A4A0A4B1B78DBB243F00403DBB21370074A074B1B78DBB243F00103DBB21370BD465DF8047B7047A3430040B3430040184F004080B500AF054B1B78002B04D1AD
:401EC000FFF786FF024B01221A70FFF7CFFF80BDB086FF1F80B483B000AF0346FB71044AFB7913700C37BD465DF8047B704700BF1B4F004080B485B000AF0346FB80FB886F
:401F0000FB81044AFB8913801437BD465DF8047B704700BF1C4F004080B483B000AF0346FB80044AFB8813800C37BD465DF8047B704700BF1E4F004080B582B000AF0346A3
:401F40000A46FB711346BB71084B1B78002B04D100F00EF8054B01221A70FA79BB791046194600F0D5F80837BD4680BDB186FF1F80B582B000AF01F007FF0346FB71534AFB
:401F8000524B1B78DBB243F00103DBB21370504A4F4B1B78DBB243F00103DBB213704D4B01221A704C4B02221A704C4A4B4B1B78DBB203F07F03DBB21370002002F038F9E4
:401FC000474A474B1B78DBB223F00603DBB21370444A444B1B78DBB223F02003DBB213703F4A3F4B1B78DBB243F00103DBB21370012002F01DF9282002F01AF93A4A3A4BF6
:402000001B78DBB203F07F03DBB21370364A364B1B78DBB223F04003DBB21370304A304B1B78DBB243F00203DBB21370022002F0FFF82B4A2A4B1B78DBB243F00403DBB23B
:4020400013702A4B00221A70294B00221A70FB79184601F09DFE1720072102F023F91720244902F0F7F81820072102F01BF91820214902F0EFF81520072102F013F91520DB
:402080001E4902F0E7F80120072102F00BF901201B4902F0DFF80220072102F003F90220184902F0D7F80320072102F0FBF80320154902F0CFF80C20072102F0F3F80C2018
:4020C000124902F0C7F80837BD4680BDA5430040B54300409D60004009600040106000409443004012600040F85100408460004085600040A9290000792200009D29000091
:4021000099280000ED28000041290000B529000080B582B000AF03460A46FB711346BB712E4AFB7913702E4B00221A702D4B00221A702D4B00221A702C4B00221A702C4B6B
:4021400000221A702B4B00221A702B4B00221A702A4B4FF400021A60284B4FF080721A60264B4FF400121A60244B02221A60234B04221A60214B08221A60BB79002B02D081
:40218000012B09D011E01E4A1D4B1B78DBB223F00103DBB2137011E0194A194B1B78DBB243F00103DBB2137008E0154A144B1B78DBB243F00103DBB2137000BF114B0322A6
:4021C0001A70114B80221A70012001F0D5FD0F4B04221A700837BD4680BD00BFCD86FF1FD086FF1FEC86FF1FEF86FF1FE486FF1FEE86FF1FF186FF1FCC86FF1F00E100E0B9
:402200000960004028600040086000401260004080B400AF0F4B00221A700F4B00221A700E4B00221A700E4B00221A700D4B00221A700D4B00221A700C4B00221A700C4B78
:4022400003221A700B4B80221A70BD465DF8047B704700BFD086FF1FEC86FF1FEF86FF1FE486FF1FEE86FF1FF186FF1FCC86FF1F286000400860004080B582B000AF374B22
:402280001B78BB71BB7903F01003002B63D00123FB71BB795BB2002B13DABB7903F00F03012B02D00023FB711DE000F061F82C4B1B78DBB2DBB25BB2002B14DA0023FB71F9
:4022C00011E0BB7903F04003002B02D000F094F809E0BB7903F02003002B02D000F0B2F801E00023FB71FB79002B34D01B4B1B78BB71BB795BB2002B2DDB1A4B1B78DAB210
:40230000194B1B78DBB21343BB71184ABB791370164B1B78DBB2BA799A421CD1104B1B78FB710E4B1B78DBB223F07F03BB71BB79002B0AD1094B0A4A1278D2B21A70074BA1
:402340001B78DBB203F00F03FB71054B1B78DBB2FA799A42E2D10837BD4680BD28600040ED86FF1F6287FF1FF086FF1F2960004080B582B000AF1D4B1B78FB711B4AFB79C8
:4023800013701A4B1B78FB71FB795BB2002B03DA174AFB79137025E0022000F043FA154B1B78DBB203F06003202B08D0402B0BD0002B0ED100F004FB0346FB710CE002F036
:4023C0000DFE0346FB7107E001F0C0FA0346FB7102E00023FB7100BFFB79002B02D1044B03221A700837BD4680BD00BF28600040ED86FF1F0060004080B500AF104B1B782D
:40240000DBB2062B19D801A252F823F03B2400003B240000292400003B2400002F2400003B2400003524000000F0FAF806E000F0A9F903E000F0D2F900E000BF80BD00BFE5
:40244000D086FF1F80B500AF124B1B78DBB2062B1DD801A252F823F08F2400008F240000752400008F2400007B2400008F2400008124000000F0DAF80AE000F029F907E013
:40248000032000F0CFF9044B03221A7000E000BF80BD00BFD086FF1FED86FF1F80B483B000AF0023FB71294B1B78DBB29AB2284B1B889BB213449AB2254B1A8015E02549AB
:4024C000FB79254A52681278D2B2CA54224B5B680133214A5360FB790133FB711E4B1B889BB2013B9AB21C4B1A801B4B1B889BB2002B02D0FB79072BE1D9144B1B78DBB269
:40250000082B02D0FB79002B0FD0144B1B78DBB283F07F03DB43DAB2104B1A70104B0F221A70104B02221A7005E00D4B02221A700C4B02221A700C4AFB791370034AFB79F8
:4025400013700C37BD465DF8047B7047CC86FF1FCE86FF1F00600040D886FF1F6287FF1FED86FF1FD086FF1FF086FF1F80B582B000AF164B1B889BB2002B02D100F02EF8EE
:402580001EE0134B02221A70124B00221A7000F069F9114BDB79DBB29BB21B029AB20E4B9B79DBB29BB21343FB80084B1B889BB2FA889A4202D2054AFB881380FFF76EFF6E
:4025C000012318460837BD4680BD00BFD886FF1FD086FF1F6287FF1F0060004080B400AF0A4B02221A700A4B80221A70094B0F221A70094B00221A70084B00221A700123EB
:402600001846BD465DF8047B704700BFD086FF1F6287FF1FED86FF1FCC86FF1FF086FF1F80B500AFFFF73AFF80BD00BF80B500AF0A4B1B78DBB29AB2094B1B889BB2134490
:402640009AB2074B1A80074B00221A70012000F0E9F8054B03221A7080BD00BFCC86FF1FCE86FF1FD086FF1FED86FF1F80B582B000AF124B04221A70114B80221A7000F0B5
:40268000F1F8104BDB79DBB29BB21B029AB20D4B9B79DBB29BB21343FB800B4B1B889BB2FA889A4202D2084AFB881380074B0B221A70012318460837BD4680BDD086FF1FCA
:4026C0006287FF1F00600040D886FF1FED86FF1F80B483B000AF0023BB71234B1B78DBB203F00F03DBB2023BFB71FB799AB21F4B1B889BB213449AB21C4B1A8018E01C4BDB
:402700005B681C49BA798A5CD2B21A70184B5B680133174A5360BB790133BB71FB79013BFB71134B1B889BB2013B9AB2104B1A800F4B1B889BB2002B02D0FB79002BDED1CC
:402740000D4AFB7913700D4B1B78DBB283F07F03DB43DAB2094B1A70094B0B221A700C37BD465DF8047B704729600040CE86FF1FD886FF1F00600040F086FF1F6287FF1F48
:40278000ED86FF1F80B500AF044B00221A70012000F048F8024B03221A7080BDD086FF1FED86FF1F80B400AF084B06221A70084B06221A70074B80221A70074B00221A70B1
:4027C00001231846BD465DF8047B7047D086FF1FED86FF1F6287FF1FF086FF1F80B500AF0C4B1B78DBB2002B0AD00B4A094B1B78DBB263F07F03DBB21370064B00221A701E
:40280000064B00221A70012000F00CF8044B03221A7080BDEE86FF1F08600040D086FF1FED86FF1F80B483B000AF0346FB710B4B9B68002B0CD0094B9B68FA791A70074B3B
:402840009B68074A128892B25A80044B00229A600C37BD465DF8047B704700BFD886FF1FCE86FF1F80B400AF094B00221A80094B9B68002B07D0074B9B6800221A70054BC6
:402880009B6800225A80BD465DF8047B704700BFCE86FF1FD886FF1F80B400AF104A104B1B78DBB223F00103DBB213700D4B9B7C0D4B1B7BDBB203F00303012B08D00A4BC3
:4028C000DB7BDBB283F07F03DB43DAB2064BDA73054B01225A73BD465DF8047B704700BF0B600040FC5F0040F486FF1F80B400AF104A104B1B78DBB223F00203DBB213706D
:402900000D4B93F822300D4B1B7EDBB203F00303012B08D0094BDB7EDBB283F07F03DB43DAB2064BDA76054B01225A76BD465DF8047B70470B600040FC5F0040F486FF1FBE
:4029400080B400AF124A124B1B78DBB223F00403DBB213700F4B93F832300F4B93F82430DBB203F00303012B0AD00B4B93F82730DBB283F07F03DB43DAB2074B83F82720ED
:40298000054B012283F82520BD465DF8047B70470B600040FC5F0040F486FF1F80B400AFBD465DF8047B704780B500AFFFF730FC80BD00BF80B500AF01F0CEF980BD00BF6D
:4029C00080B586B000AF0023FB759D4B1B78FB7100233B619B4B00221A80FB795BB2002B80F20481964B5B78DBB20A2B00F2FC8001A252F823F000BF412B0000E92B00001C
:402A0000E92B0000E92B0000E92B0000E92B0000252A0000E92B0000B32B0000E92B0000C92B0000864BDB78DBB2012B0ED100F017FEB860BB685B68824A5360814B1222BF
:402A40001A80FFF793FD0346FB7578E07C4BDB78DBB2022B24D17A4B9B78DBB2184600F0D5FDB860BB68002B69D0BB685B68754A5360744B5B6803331B78DBB29BB21B029E
:402A80009AB2704B5B6802331B78DBB29BB213439AB26C4B1A80FFF769FD0346FB75A4E0674BDB78DBB2032B44D10023FB73664B3B6109E03B691B78BB71BB793A691344F1
:402AC0003B61FB7B0133FB735D4B9B78DBB2FA7B9A4204D23B691B78DBB2002BEAD1584B9B78DBB2EE2B01D1584B3B61544B9B78DBB2002B0BD0524B9B78DAB2544B1B7CE5
:402B00009A4204D1534800F0A1F9524B3B613B691B78DBB2002B12D03B691B78DBB29AB2484B1A80474A3B695360FFF71FFD0346FB755AE002F052FA0346FB7555E054E02B
:402B4000FB7903F00303002B1FD0022B00D02FE03C4B02221A803A4B1B79DBB203F07F023D4913465B0013449B000B449B78DAB23A4B1A70394B00225A70324B374A5A6012
:402B8000FFF7F4FC0346FB7512E02E4B02221A80334B1B78DAB2314B1A70304B00225A70284B2E4A5A60FFF7E1FC0346FB7500BF1BE0244B01221A80224B2A4A5A60FFF79B
:402BC000D5FC0346FB7510E01E4B01221A801C4B1B79DBB21A46244B13441A4A5360FFF7C5FC0346FB7500E000BF19E1144B5B78DBB2013B0A2B00F2128101A252F823F0B2
:402C00000B2D00001F2E0000952D00001F2E00002D2C00001F2E00001F2E00001F2E0000712C00001F2E0000C72C0000044B9B78DAB20E4B1A70FFF7B5FD0346FB75EFE0E2
:402C400000600040D886FF1F6062000068630000086200008C87FF1FF486FF1FB486FF1FF186FF1FEF86FF1F6087FF1FEE86FF1F6E4B9B787B717B79002B06D07B79013B84
:402C8000DBB2184600F0C2FCB8607B79002B02D0BB68002B02D17B79002B13D1644B1B78DBB27A799A4208D0614A7B791370614B01221A70012000F0C1F9FFF773FD0346E3
:402CC000FB75ADE0ACE000F009FE0346002B1BD0564B1B793B71554B1B79DAB2564B1A703B79564AD35CDAB23B795549CB5CDBB29A4204D04F4B01221A7000F069FBFFF7D3
:402D000051FD0346FB758BE08AE0FB7903F00303012B22D0012B0DD3022B00D039E0434B9B78DBB2002B04D100F040FD0346FB752FE02EE03D4B9B78DBB2012B0CD1414B1C
:402D40001B78DBB223F00203DAB23E4B1A70FFF729FD0346FB751CE01BE0344B1B79DBB2012B15D8314B9B78DBB2DB43DBB22F4A1279D2B211461046334A125CD2B2134039
:402D8000DAB2314B5A54FFF70DFD0346FB75FFE700BF45E0FB7903F00303012B22D0012B0DD3022B00D039E0204B9B78DBB2002B04D100F08DFC0346FB752FE02EE01B4B6D
:402DC0009B78DBB2012B0CD11E4B1B78DBB243F00203DAB21B4B1A70FFF7E4FC0346FB751CE01BE0114B1B79DBB2012B15D80F4B9B78DBB2DB43DBB20C4A1279D2B2114670
:402E00001046114A125CD2B21340DAB20E4B5A54FFF7C8FC0346FB75FFE700BF00E000BFFB7D18461837BD4680BD00BF00600040EF86FF1FEC86FF1FE486FF1FD486FF1F6B
:402E40006087FF1FF186FF1F6487FF1FB0B58AB000AF7860314B07F114041D460FCD0FC42B682370002387F826307B68002B52D07B6822221A707B68013303221A7007F12E
:402E80000C03184601F030FA022387F827303EE097F827307A68134497F8262007F128010A4412F81C2C1209D2B207F128010A4412F8142C1A7097F8273001337A68134487
:402EC00000221A7097F8273002337A68134497F8262007F128010A4412F81C2C02F00F0207F128010A4412F8142C1A7097F8273003337A68134400221A7097F826300133DC
:402F000087F8263097F82730043387F8273097F82730212BBCD92837BD46B0BDF461000090B482B000AF0123FB7174E03F4AFB791B0113440C221A70FA793D4913465B0000
:402F400013449B000B445B79DBB2002B1AD0FA79374913465B0013449B000B441B79DBB2DBB25BB2002B06DA324AFB791B0113440C229A700CE02F4AFB791B0113440822DB
:402F80009A7005E02B4AFB791B01134480229A702648F979FA79264C13465B0013449B002344DB889BB2DAB20B0103449A711F48F979FA791E4C13465B0013449B002344EB
:402FC000DB889BB21B0A9BB2DAB20B010344DA711648F979FA79164C13465B0013449B002344DB889BB2DAB20B0103441A710F48F979FA790E4C13465B0013449B00234416
:40300000DB889BB21B0A9BB2DAB20B0103445A71FB790133FB71FB79082B87D9064BFF221A700837BD4690BC704700BF70600040F486FF1FFC5F00400A60004080B58AB04D
:4030400000AF0346FB7100237B84002387F827304CE097F82720C44913465B0013449B000B4400221A7097F82720BF4913465B0013449B000B4400229A7097F82720BA4949
:4030800013465B0013449B000B440022DA7097F82720B54913465B0013449B000B44083300221A8097F82720AF4913465B0013449B000B44083300229A7097F82720AA49FC
:4030C00013465B0013449B000B4400225A7097F82720A54913465B0013449B000B4400225A7197F82730013387F8273097F82730082BAED9FB79002B16D0002387F825303D
:403100000EE097F82530994A0021D15497F82530974A0021D15497F82530013387F8253097F82530012BECD9924B1B78DBB2002B00F049810023FB768E4B1B78DBB2013B1D
:40314000DBB2184600F062FA78617B695B683B613B6907331B7803F04003002B08D0864B1B78DBB243F00103DAB2834B1A7007E0814B1B78DBB223F00103DAB27E4B1A707D
:403180007B6908337B617B691B7887F82730012387F82530B3E07B695B68FB61002387F82630A0E097F82520FB699B7803F07F039A4240F0908097F825206B4913465B00A9
:4031C00013449B000B4408331B889AB2FB699B889A420CD297F82520FB699888624913465B0013449B000B44083302461A80FB691B781A465D4B9B5CDAB2FB695B789A4279
:4032000069D197F82520FB699878574913465B0013449B000B4402461A7197F82520FB69D878514913465B0013449B000B4402461A70FB69DB7803F00303FB73FB699B7826
:40324000DBB25BB2002B1ADA97F82520FB7B012B01D1072000E00D20434913465B0013449B000B4402465A7197F825203E4913465B0013449B000B4401225A7019E097F8C0
:403280002520FB7B012B01D1052000E00920364913465B0013449B000B4402465A7197F82520314913465B0013449B000B4400225A70FB699B790A2B03D0FB699B79022B4C
:4032C00009D197F82520FB7EF86911461A4601F03BFE0346FB76FB690833FB6197F82630013387F8263097F8262097F827309A42FFF458AF97F82530013387F8253097F8B6
:403300002530082B7FF647AF7B695B68FB61002387F8253016E0FB699B7803F07F02FB691878114913465B0013449B000B44083302469A70FB690833FB6197F825300133DC
:4033400087F8253097F8252097F827309A42E2D300F098F90246094B1A6000237B84012387F8273029E000BFF486FF1F6087FF1FD486FF1FEF86FF1FF186FF1FE886FF1FEA
:4033800097F82720114913465B0013449B000B447A8CDA8097F827200C4913465B0013449B000B4408331B889AB27B8C13447B8497F82730013387F8273097F82730082BD8
:4033C000DED9FFF7ADFD2837BD4680BDF486FF1F90B585B000AF874B1B78DBB2002B00F00681844B1B78DBB2013BDBB2184600F00DF978607B6808337B607B681B78FB70C4
:403400007B685B68BB607C4B1B78BB700023FB73E8E0BB681B78BA789A4240F0DD80BB78764AD35CDAB2BB685B789A4240F0D480BB689B7803F07F037B70BB68DB7803F099
:4034400003033B707A786E4913465B0013449B000B440022DA707A78BB689878684913465B0013449B000B4402461A717A78BB68D878634913465B0013449B000B440246A5
:403480001A707A78BB6898885D4913465B0013449B000B44083302461A80BB689B78DBB25BB2002B18DA7A783B78012B01D1072000E00D20524913465B0013449B000B4441
:4034C00002465A717A784E4913465B0013449B000B4401225A7017E07A783B78012B01D1052000E00920464913465B0013449B000B4402465A717A78414913465B00134468
:403500009B000B4400225A703E4A7B781B01134401229A703B4879787A78394C13465B0013449B00234408331B889BB21B0A9BB2DAB20B0103441A70324879787A78304CC3
:4035400013465B0013449B00234408331B889BB2DAB20B0103445A702B4879787A78284C13465B0013449B002344DB889BB2DAB20B0103449A71244879787A78204C1346E5
:403580005B0013449B002344DB889BB21B0A9BB2DAB20B010344DA711B4879787A78184C13465B0013449B002344DB889BB2DAB20B0103441A71144879787A78104C134646
:4035C0005B0013449B002344DB889BB21B0A9BB2DAB20B0103445A71BB680833BB60FB7B0133FB73FA7BFB789A42FFF412AF1437BD4690BDEF86FF1FE486FF1F6087FF1F87
:40360000F486FF1FFC5F00407060004080B485B000AF0346FB71104B1B78DBB20F4ADB0013445B68FB60FB681033FB60FB681B78FA799A4202D30023FB6005E0FB79DB0089
:40364000FA6813445B68FB60FB6818461437BD465DF8047B704700BFCD86FF1F6063000080B400AF054B1B78DBB2054ADB0013445B681846BD465DF8047B7047CD86FF1FF2
:403680006063000080B584B000AF104B1B78DBB2013BDBB21846FFF7B9FFB860BB68002B0DD0BB685B681B79FB71FB790233DB00BA681344BB60BB685B68FB6001E0002359
:4036C000FB60FB6818461037BD4680BDEF86FF1F80B582B000AF0023FB71314B1B79DBB203F07F03BB71BB79002B53D0BB79082B50D8BA79B9792B480B465B000B449B0032
:4037000003449B78DBB243F00103D8B2254913465B0013449B000B4402469A70BA79214913465B0013449B000B440022DA70BA79B9791C480B465B000B449B0003445B78B5
:40374000DBB243F00203D8B2164913465B0013449B000B4402465A70BA79124913465B0013449B000B441B79DBB2DBB25BB2002B06DA0D4ABB791B0113448D229A7005E0AF
:40378000094ABB791B01134489229A70FFF70AF80346FB71FB7918460837BD4680BD00BF00600040F486FF1FFC5F004080B582B000AF0023FB71464B1B79DBB203F07F03FE
:4037C000BB71BB79002B7DD0BB79082B7AD8BA79B97940480B465B000B449B0003449B78DBB223F00103D8B23A4913465B0013449B000B4402469A70BA79364913465B00FD
:4038000013449B000B440022DA70334ABB791B0113447F221A70BA79B9792E480B465B000B449B0003445B78DBB223F00203D8B2284913465B0013449B000B4402465A705A
:40384000BA79244913465B0013449B000B441B79DBB2DBB25BB2002B18DABA791D4913465B0013449B000B445B78DBB2012B06D1194ABB791B0113440C229A701EE0164A4A
:40388000BB791B0113440D229A7017E0BA79114913465B0013449B000B445B78DBB2012B06D10D4ABB791B01134408229A7005E0094ABB791B01134409229A70FEF772FFA0
:4038C0000346FB71FB7918460837BD4680BD00BF00600040F486FF1FFC5F004080B584B000AF0023FB73154B1B79BB73144B1B78DBB2013BDBB21846FFF788FEB860BB6808
:403900005B681B79FB71BA7BFB799A4202D9BB7B022B0ED8BB7BBA7B0A498A5CD1B20A4AD154BB7B054A9278D1B2064AD1540123FB73FB7B18461037BD4680BD0060004067
:40394000EF86FF1F6087FF1FD486FF1F80B582B000AF0023FB710F4B1B78DBB2DBB25BB2002B12DA0B4B5B78DBB2012B00D00CE0094B0A4A5A60094B1B789AB2064B1A8049
:40398000FEF7F4FD0346FB7100BFFB7918460837BD4680BD00600040D886FF1F7C63000080B500AF054B1B78002B04D100F008F8024B01221A7000F019F880BDB886FF1F16
:4039C00080B500AF074A074B1B78DBB243F00603DBB213700C2000F069F8034B00221A8080BD00BF095900407087FF1F80B582B000AF00F0C9F90346FB71244A234B1B78AE
:403A0000DBB243F00203DBB21370214A204B1B78DBB243F00203DBB213701E4B1B78BB71BB7943F00203BB71BB7943F00103BB71184ABB791370184B18221A70174A174B19
:403A40001B78DBB243F04003DBB21370134A134B1B78DBB223F00303DBB21370104BC8221A70104B02221A700F4A0F4B1B78DBB243F00803DBB213700A2000F0D9FBFB7941
:403A8000184600F085F90837BD4680BDAB430040BB4300400B5900400E5900400D59004008590040164600402F5B004080B584B000AF0346FB71FB790A2B07D00C2B02D001
:403AC000082B06D008E0C223FB730BE08223FB7308E04223FB7305E0C223FB73002000F079FB00BF044AFB7B1370FB79184600F015F81037BD4680BD0A59004080B400AF2B
:403B0000054A054B1B78DBB243F00103DBB21370BD465DF8047B70470859004080B584B000AF0346FB71FB790A2B08D00C2B02D0082B08D00BE04FF48053FB600DE04FF462
:403B40008063FB6009E04FF48073FB6005E00023FB60002000F03EFB00BF0C4B00221A80FB6842F2107202FB03F303F6C413084A82FB0312D212DB17D31A064A1360064B78
:403B800000221A801037BD4680BD00BF6887FF1FAD8BDB686C87FF1F6A87FF1F80B485B000AF0346FB801D4B1B889BB2002B09D01A4B1B889BB21AB213469B0013445B005C
:403BC000FB6002E0164B1B68FB60164B1B889BB2FA889BB2D31A9BB2FB80B7F9063042F2107202FB03F2B7F90630002B04DDFB68D90F0B445B1004E0FB68D90F0B445B1006
:403C00005B421A44FB6892FBF3F37B817B891BB218461437BD465DF8047B70476887FF1F6C87FF1F7087FF1F90B585B002AF0446084611461A462346FB710346BB710B4667
:403C4000BB8013467B80114B01221A700F4B1878F979BA790023009300230193012300F0CDF90A4B1978BA887B88084611461A4600F068F9054B1B781846022100F032F9D6
:403C8000024B1B7818460C37BD4690BDF685FF1F90B585B002AF0446084611461A462346FB710346BB710B46BB8013467B80114B00221A700F4B1878F979BA7900230093A9
:403CC00000230193002300F099F90A4B1978BA887B88084611461A4600F034F9054B1B781846022100F0FEF8024B1B7818460C37BD4690BDF785FF1F80B485B000AF786076
:403D0000054B1B68FB60FB6840337A681A601437BD465DF8047B704708ED00E080B483B000AF0346FB71054AFB795B01DBB213700C37BD465DF8047B704700BF00E400E027
:403D400080B400AF034B01221A60BD465DF8047B704700BF00E100E080B400AF054B1B78DBB203F040039B09DBB21846BD465DF8047B70478F4500400230800803D000BF61
:403D800001380046FCD17047EFF3108072B6704780F31088704700BF80B483B000AF134B7F221A70124B80221A707F23FB710CE0FB79DB0003F1804303F5F043FA79013A2D
:403DC000D2B21A70FB79013BFB71FB79002BEFD1FB79DB0003F1804303F5F04300221A700C37BD465DF8047B704700BFF985FF1FF885FF1F80B485B000AF03460A46FB7179
:403E00001346BB710123FB60FB79172B2FD8BB79002B0ED0FB791A01184B1344FA791101164A0A441278D2B242F02002D2B21A700DE0FB791A01114B1344FA7911010F4A8B
:403E40000A441278D2B222F02002D2B21A70FB791A010A4B1344FA791101084A0A441278D2B242F00102D2B21A700023FB60FB6818461437BD465DF8047B7047107000401B
:403E800080B485B000AF0346FB710123FB60FB79172B1DD8FB791A01114B1344FA7911010F4A0A441279D2B242F00402D2B21A71FB791A010A4B1344FA791101084A0A44E7
:403EC0001278D2B242F00102D2B21A700023FB60FB6818461437BD465DF8047B704700BF1070004080B485B000AF03460A46FB711346BB710123FB60FB79172B18D8FB799F
:403F00001A010F4B13441B78DBB223F00E03FB72FB791A010A4B1344BA7902F00702D2B25200D1B2FA7A0A43D2B21A700023FB60FB6818461437BD465DF8047B704700BF9C
:403F40001070004080B485B000AF0346FB710B46BB8013467B800123FB60BB8841F6FF72934202D14FF40053BB807B8841F6FF72934202D14FF400537B80FB79172B17D868
:403F8000FB79DB0003F1804303F5EC430433BB60BB68BA881A80FB79DB0003F1804303F5EC430633BB60BB687A881A800023FB60FB6818461437BD465DF8047B704700BF6C
:403FC00080B485B000AF03460A46FB711346BB710123FB60FB79172B07D8FB791A01064B1344BA795A720023FB60FB6818461437BD465DF8047B70471070004090B484B085
:4040000000AF0446084611461A462346FB710346BB710B467B7113463B710123FB60FB79172B34D8FB79DB0003F1804303F5EC43BA7902F07F02D1B27A79D201D2B20A43C8
:40404000D2B21A70FB79DB0003F1804303F5EC433A7E1201D1B23A7902F00F02D2B20A43D2B25A70FB79DB0003F1804303F5EC433A7F02F00F02D2B29A70FB79DB0003F128
:40408000804303F5EC430022DA700023FB60FB6818461037BD4690BC704700BF80B582B000AFFF23FB71FFF76FFE0346BB71104B1B78182B12D90F4B1B78FB710C4B1B7884
:4040C000013BDAB20A4B1A70FB79DB0003F1804303F5F0431B78DAB2064B1A70BB791846FFF756FEFB7918460837BD4680BD00BFF885FF1FF985FF1F90B484B000AF04465A
:40410000084611461A462346FB710346BB800B46BB711346FB700123FB60FB795BB2002B23DBBB8823F47F6323F00F039BB2002B1BD1FB79DB0003F1804303F5F043BB60A6
:40414000BB68BA881A80FB79DB0003F1804303F5F043BA799A70FB79DB0003F1804303F5F043FA78DA700023FB60FB6818461037BD4690BC704700BF80B485B000AF034639
:40418000FB710B46BB8013467B800123FB60FB795BB2002B17DBFB79DB0003F1804303F5F0430433BB60BB68BA881A80FB79DB0003F1804303F5F0430633BB60BB687A886A
:4041C0001A800023FB60FB6818461437BD465DF8047B704780B483B000AF0346FB7101BE0C37BD465DF8047B704700BF80B582B000AF786008E00C4B1B681846FFF7BCFD36
:404200007B68A3F500437B607B68B3F5004FF2D8064B1B687A6802FB03F31846FFF7ACFD0837BD4680BD00BF0C86FF1F0486FF1F80B582B000AF0346FB80FB88044A1278D0
:4042400002FB03F31846FFF797FD0837BD4680BD0886FF1F80B584B000AF03463960FB710F4B1B68FB60FB791F2B02D90020FFF7B1FFFB7903F01F0310339B00FA6813441B
:404280001B68BB60FB7903F01F0310339B00FA6813443A681A60BB6818461037BD4680BD08ED00E080B582B000AF03460A46FB711346BB71BB79072B02D90020FFF78AFFC7
:4042C000FB791F2B02D90020FFF784FFFB7903F01F0303F1604303F56443BA795201D2B21A700837BD4680BD80B483B000AF7860264B1B78DBB21A467B681A60244B1B787C
:40430000DBB21B027A6812681A437B681A60214B1B78DBB21B047A6812681A437B681A601D4B1B78DBB21B067A6812681A437B681A607B680433194A1278D2B21A60184BD5
:404340001B78DBB21A027B6804337968043109680A431A60134B1B78DBB21A047B6804337968043109680A431A600F4B1B78DBB21A067B6804337968043109680A431A6093
:404380000C37BD465DF8047B704700BF0301004904010049EC460040020100490101004900010049050100490601004980B500AF054B1B78002B04D100F008F8024B0122B9
:4043C0001A7000F063F880BDB986FF1F80B582B000AF294A284B1B78DBB243F00203DBB21370264B1B78DBB223F07003FB71234AFB7943F01003DBB21370214A204B1B78C7
:40440000DBB223F03003DBB213701D4A1C4B1B78DBB243F03003DBB21370194A184B1B78DBB223F00F03DBB21370154A144B1B78DBB243F00F03DBB2137040F2E73000F0AE
:4044400049F84FF4FA7000F055F8002000F062F80C4A0C4B1B78DBB243F00103DBB21370094A094B1B78DBB243F00103DBB213700837BD4680BD00BF004F0040024F004027
:404480000B4F0040A3430040014F004080B400AF0D4A0D4B1B78DBB243F00103DBB213700A4A0A4B1B78DBB243F00103DBB21370074A074B1B78DBB243F00103DBB2137099
:4044C000BD465DF8047B7047A3430040B3430040004F004080B483B000AF0346FB80044AFB8813800C37BD465DF8047B704700BF044F004080B483B000AF0346FB80044ABA
:40450000FB8813800C37BD465DF8047B704700BF064F004080B483B000AF0346FB71044AFB7913700C37BD465DF8047B704700BF034F004080B400AF034B1B889BB218468F
:40454000BD465DF8047B7047064F004080B582B000AF786000F03CF8786800F009F8072000F018F800F028F80837BD4680BD00BF80B485B000AF7860054B1B68FB60FB683F
:4045800060337A681A601437BD465DF8047B704708ED00E080B483B000AF0346FB71054AFB795B01DBB213700C37BD465DF8047B704700BF08E400E080B400AF034B4FF494
:4045C00080721A60BD465DF8047B704700E100E080B400AF034B4FF480721A60BD465DF8047B704780E100E080B500AF054B1B78002B04D100F008F8024B01221A7000F0B0
:404600004DF880BDBA86FF1F80B582B000AF204B1B78DBB223F03F03FB711D4AFB7943F00903DBB213701B4A1A4B1B78DBB243F00103DBB21370184A174B1B78DBB243F0C6
:404640000103DBB2137040F2E73000F037F840F2E73000F051F84FF4FA7000F05DF8002000F06AF8FFF790FB0346BB710A4A0A4B1B78DBB243F01003DBB21370BB79184631
:40468000FFF786FB00F02AF80837BD4680BD00BF70640040926400409364004080B400AF054A054B1B78DBB263F07F03DBB21370BD465DF8047B70477064004080B483B022
:4046C00000AF0346FB80044AFB8813800C37BD465DF8047B704700BF0468004080B500AF01E000F045F800F037F8034603F01003002BF6D180BD00BF80B483B000AF0346FA
:40470000FB80044AFB8813800C37BD465DF8047B704700BF8468004080B483B000AF0346FB80044AFB8813800C37BD465DF8047B704700BF4468004080B483B000AF0346C5
:40474000FB71044AFB7913700C37BD465DF8047B704700BF8364004080B400AF034B1B78DBB21846BD465DF8047B70476364004080B400AF034B1B889BB21846BD465DF8B6
:40478000047B7047A468004080B400AF034B1B889BB21846BD465DF8047B70474468004080B485B000AF0346FB710B4B1B78DBB223F00203FB730849FB795B00DBB203F015
:4047C0000203DAB2FB7B1343DBB20B701437BD465DF8047B704700BF2051004080B400AFBD465DF8047B704780B582B000AF0F2000F06AF800F058F8FFF7C6FA0346FB7158
:40480000074A074B1B78DBB243F01003DBB21370FB791846FFF7BCFA0837BD4680BD00BF9565004080B500AF00F034F94FF4004000F05CF9054B1B78002B04D1FFF7CEFFFA
:40484000024B01221A70FFF7CFFF80BDBB86FF1F80B582B000AF00F059F90346FB80FB88A3F500439BB2BB80BB881BB218460837BD4680BD80B584B000AF0346FB80B7F963
:404880000630002B04DBFB88A3F50043FB8103E0FB88A3F50043FB81FB89184600F026F91037BD4680BD00BF80B400AF054B1B78DBB203F00F03DBB21846BD465DF8047BD0
:4048C000704700BF6565004080B483B000AF0346FB71044AFB7913700C37BD465DF8047B704700BF8565004080B400AFBD465DF8047B704780B582B000AF0F2000F06AF866
:4049000000F058F8FFF740FA0346FB71074A074B1B78DBB243F01003DBB21370FB791846FFF736FA0837BD4680BD00BF9864004080B500AF00F084F94FF4004000F0ACF95E
:40494000054B1B78002B04D1FFF7CEFF024B01221A70FFF7CFFF80BDBC86FF1F80B582B000AF00F0A9F90346FB80FB88A3F500439BB2BB80BB881BB218460837BD4680BDF7
:4049800080B584B000AF0346FB80B7F90630002B04DBFB88A3F50043FB8103E0FB88A3F50043FB81FB89184600F076F91037BD4680BD00BF80B400AF054B1B78DBB203F0C7
:4049C0000F03DBB21846BD465DF8047B704700BF6864004080B483B000AF0346FB71044AFB7913700C37BD465DF8047B704700BF8864004080B582B000AF1C4B1B78DBB2F8
:404A000023F00703FB71194AFB791370174B1B78DBB223F00303FB71144AFB79137000F0B1F84FF4004000F08DF84FF4004000F05DF8002000F03EF800F04CF84FF40040E1
:404A400000F090F8FFF7A0F90346BB71084A084B1B78DBB243F01003DBB21370BB791846FFF796F90837BD4680BD00BF756500409465004080B400AF054A054B1B78DBB255
:404A800063F07F03DBB21370BD465DF8047B70477565004080B500AF054B1B78002B04D1FFF7A8FF024B01221A70FFF7E3FF80BDBD86FF1F80B483B000AF0346FB71044A7C
:404AC000FB7913700C37BD465DF8047B704700BF8465004080B400AF034B1B78DBB21846BD465DF8047B70476465004080B483B000AF0346FB80044AFB8813800C37BD463C
:404B00005DF8047B704700BF0C6A004080B400AF044B1B78044B1B889BB21846BD465DF8047B7047066500408C6A004080B400AF034B1B889BB21846BD465DF8047B704797
:404B40008C6A004080B483B000AF0346FB80044AFB8813800C37BD465DF8047B704700BF4C6A004080B483B000AF0346FB80044AFB8813800C37BD465DF8047B704700BF6D
:404B80006C6A004080B500AF01E0FFF7CFFFFFF7A1FF034603F04003002BF6D180BD00BF80B582B000AF1C4B1B78DBB223F00703FB71194AFB791370174B1B78DBB223F03E
:404BC0000303FB71144AFB79137000F0B1F84FF4004000F08DF84FF4004000F05DF8002000F03EF800F04CF84FF4004000F090F8FFF7CAF80346BB71084A084B1B78DBB22E
:404C000043F01003DBB21370BB791846FFF7C0F80837BD4680BD00BF7A6400409D64004080B400AF054A054B1B78DBB263F07F03DBB21370BD465DF8047B70477A6400400E
:404C400080B500AF054B1B78002B04D1FFF7A8FF024B01221A70FFF7E3FF80BDBE86FF1F80B483B000AF0346FB71044AFB7913700C37BD465DF8047B704700BF8D6400408E
:404C800080B400AF034B1B78DBB21846BD465DF8047B70476D64004080B483B000AF0346FB80044AFB8813800C37BD465DF8047B704700BF1068004080B400AF044B1B785B
:404CC000044B1B889BB21846BD465DF8047B7047086400409068004080B400AF034B1B889BB21846BD465DF8047B70479068004080B483B000AF0346FB80044AFB88138022
:404D00000C37BD465DF8047B704700BF5068004080B483B000AF0346FB80044AFB8813800C37BD465DF8047B704700BF7068004080B500AF01E0FFF7CFFFFFF7A1FF03469D
:404D400003F04003002BF6D180BD00BF80B485B000AF0346FB710B4B1B78DBB223F00803FB730849FB79DB00DBB203F00803DAB2FB7B1343DBB20B701437BD465DF8047B93
:404D8000704700BFC051004080B485B000AF0346FB710B4B1B78DBB223F01003FB730849FB791B01DBB203F01003DAB2FB7B1343DBB20B701437BD465DF8047B704700BFE9
:404DC0003051004080B485B000AF0346FB710B4B1B78DBB223F00803FB730849FB79DB00DBB203F00803DAB2FB7B1343DBB20B701437BD465DF8047B704700BF205100404F
:404E000080B582B000AF0023FB71324B1B79DBB2184600F069F80346BB712E4B1B78DBB2DBB25BB2002B16DA2A4B5B78DBB2212B00D00FE0284B07221A80BA791346DB0040
:404E40009B1A264A1344244A5360FDF78FFB0346FB7100BF38E01F4B5B78DBB2202B02D0222B1AD030E01C4B07221A80BA791346DB009B1A194A1344174A5360BB79BA79E2
:404E800017498A5CD2B242F00102D1B2144AD154FDF7ECFB0346FB7116E0BB790D4A9278D2B291B20F4A22F81310BB79BA790C498A5CD2B242F00202D1B2094AD154FDF72A
:404EC00071FC0346FB7100BFFB7918460837BD4680BD00BF00600040D886FF1F1086FF1F7487FF1F8887FF1F80B485B000AF0346FB710023FB73FF23BB7317E0FB7B104A36
:404F0000D35C7B737A7B0F4913465B0013449B000B4408339B78DBB2FA799A4203D1FB7BBB730223FB73FB7B0133FB73FB7B012BE4D9BB7B18461437BD465DF8047B7047F9
:404F40007C87FF1FF486FF1F80B485B000AF78600B46FB701346BB707B68DB7803F00303FB737B689B78DBB25BB2002B1ADAFB7B032B0AD0BB7803F001031549FA78CA5466
:404F8000BB7843F00103BB701BE0BB789B08DBB203F001030F49FA78CA54BB7843F00403BB700EE0FB7B032B0BD0BB785B08DBB203F001030849FA78CA54BB7843F00203B4
:404FC000BB70BB7818461437BD465DF8047B70477887FF1F7C87FF1F8087FF1F80B582B000AF1A4B1B78DBB203F00303012B02D0022B04D012E0154B1B79BB7111E0134BC5
:405000001B79DBB203F07F02114913465B0013449B000B4408339B78BB7102E00023BB7100BF0C4B1A68BB7913441B78022B04D1FFF7E6FE0346FB7102E00023FB7100BF6A
:40504000FB7918460837BD4680BD00BF00600040F486FF1FE886FF1F81F0004102E000BF83F0004330B54FEA41044FEA430594EA050F08BF90EA020F1FBF54EA000C55EA24
:40508000020C7FEA645C7FEA655C00F0E2804FEA5454D4EB5555B8BF6D420CDD2C4480EA020281EA030382EA000083EA010180EA020281EA0303362D88BF30BD11F0004FF4
:4050C0004FEA01314FF4801C4CEA113102D0404261EB410113F0004F4FEA03334CEA133302D0524263EB430394EA050F00F0A780A4F10104D5F1200E0DDB02FA0EFC22FA94
:4051000005F2801841F1000103FA0EF2801843FA05F359410EE0A5F120050EF1200E012A03FA0EFC28BF4CF0020C43FA05F3C01851EBE37101F0004507D54FF0000EDCF147
:40514000000C7EEB00006EEB0101B1F5801F1BD3B1F5001F0CD349085FEA30004FEA3C0C04F101044FEA445212F5800F80F09A80BCF1004F08BF5FEA500C50F1000041EB7F
:40518000045141EA050130BD5FEA4C0C404141EB010111F4801FA4F10104E9D191F0000F04BF01460020B1FA81F308BF2033A3F10B03B3F120020CDA0C3208DD02F1140CBD
:4051C000C2F10C0201FA0CF021FA02F10CE002F11402D8BFC2F1200C01FA02F120FA0CFCDCBF41EA0C019040E41AA2BF01EB0451294330BD6FEA04041F3C1CDA0C340EDCF6
:4052000004F11404C4F1200220FA04F001FA02F340EA030021FA04F345EA030130BDC4F10C04C4F1200220FA02F001FA04F340EA0300294630BD21FA04F0294630BD94F01B
:40524000000F83F4801306BF81F480110134013D4EE77FEA645C18BF7FEA655C29D094EA050F08BF90EA020F05D054EA000C04BF1946104630BD91EA030F1EBF002100206C
:4052800030BD5FEA545C05D14000494128BF41F0004130BD14F580043CBF01F5801130BD01F0004545F0FE4141F470014FF0000030BD7FEA645C1ABF194610467FEA655CC9
:4052C0001CBF0B46024650EA013406BF52EA033591EA030F41F4002130BD00BF90F0000F04BF0021704730B54FF4806404F132044FF000054FF0000150E700BF90F0000F99
:4053000004BF0021704730B54FF4806404F1320410F0004548BF40424FF000013EE700BF42004FEAE2014FEA31014FEA02701FBF12F07F4393F07F4F81F06051704792F0E7
:40534000000F14BF93F07F4F704730B54FF4607401F0004521F0004120E700BF50EA010208BF704730B54FF000050AE050EA010208BF704730B511F0004502D5404261EBA0
:4053800041014FF4806404F132045FEA915C3FF4DCAE4FF003025FEADC0C18BF03325FEADC0C18BF033202EBDC02C2F1200300FA03FC20FA02F001FA03FE40EA0E0021FAB3
:4053C00002F11444C1E600BF70B54FF0FF0C4CF4E06C1CEA11541DBF1CEA135594EA0C0F95EA0C0F00F0DEF82C4481EA030621EA4C5123EA4C5350EA013518BF52EA033560
:4054000041F4801143F4801338D0A0FB02CE4FF00005E1FB02E506F00042E0FB03E54FF00006E1FB03569CF0000F18BF4EF0010EA4F1FF04B6F5007F64F5407404D25FEA40
:405440004E0E6D4146EB060642EAC62141EA55514FEAC52040EA5E504FEACE2EB4F1FD0C88BFBCF5E06F1ED8BEF1004F08BF5FEA500E50F1000041EB045170BD06F0004654
:4054800046EA010140EA020081EA0301B4EB5C04C2BFD4EB0C0541EA045170BD41F480114FF0000E013C00F3AB8014F1360FDEBF002001F0004170BDC4F10004203C35DA2A
:4054C0000C341BDC04F11404C4F1200500FA05F320FA04F001FA05F240EA020001F0004221F0004110EBD37021FA04F642EB06015EEA430E08BF20EAD37070BDC4F10C04C5
:40550000C4F1200500FA04F320FA05F001FA04F240EA020001F0004110EBD37041F100015EEA430E08BF20EAD37070BDC4F1200500FA05F24EEA020E20FA04F301FA05F2E1
:4055400043EA020321FA04F001F0004121FA04F220EA020000EBD3705EEA430E08BF20EAD37070BD94F0000F0FD101F00046400041EB010111F4801F08BF013CF7D041EAE1
:40558000060195F0000F18BF704703F00046520043EB030313F4801F08BF013DF7D043EA0603704794EA0C0F0CEA135518BF95EA0C0F0CD050EA410618BF52EA4306D1D1E1
:4055C00081EA030101F000414FF0000070BD50EA410606BF1046194652EA430619D094EA0C0F02D150EA013613D195EA0C0F05D152EA03361CBF104619460AD181EA0301B5
:4056000001F0004141F0FE4141F470014FF0000070BD41F0FE4141F4780170BD70B54FF0FF0C4CF4E06C1CEA11541DBF1CEA135594EA0C0F95EA0C0F00F0A7F8A4EB050461
:4056400081EA030E52EA03354FEA013100F088804FEA03334FF0805545EA131343EA12634FEA022245EA111545EA10654FEA00260EF000419D4208BF964244F1FD0404F5BC
:40568000407402D25B084FEA3202B61A65EB03055B084FEA32024FF480104FF4002CB6EB020E75EB030E22BFB61A754640EA0C005B084FEA3202B6EB020E75EB030E22BFC1
:4056C000B61A754640EA5C005B084FEA3202B6EB020E75EB030E22BFB61A754640EA9C005B084FEA3202B6EB020E75EB030E22BFB61A754640EADC0055EA060E18D04FEA9D
:40570000051545EA16754FEA06164FEAC30343EA52734FEAC2025FEA1C1CC0D111F4801F0BD141EA00014FF000004FF0004CB6E711F4801F04BF01430020B4F1FD0C88BF6D
:40574000BCF5E06F3FF6AFAEB5EB030C04BFB6EB020C5FEA500C50F1000041EB045170BD0EF0004E4EEA113114EB5C04C2BFD4EB0C0541EA045170BD41F480114FF0000EAC
:40578000013C90E645EA060E8DE60CEA135594EA0C0F08BF95EA0C0F3FF43BAF94EA0C0F0AD150EA01347FF434AF95EA0C0F7FF425AF104619462CE795EA0C0F06D152EA7C
:4057C00003353FF4FDAE1046194622E750EA410618BF52EA43067FF4C5AE50EA41047FF40DAF52EA43057FF4EBAE12E74FEA4102B2F1E04324BFB3F5001CDCF1FE5C0DD9E5
:4058000001F0004C4FEAC0024CEA5070B2F1004F40EB830008BF20F00100704711F0804F21D113F13872BCBF01F00040704741F480114FEA5252C2F11802C2F1200C10FADF
:405840000CF320FA02F018BF40F001004FEAC1234FEAD32303FA0CFC40EA0C0023FA02F34FEA4303CCE77FEA625307D150EA01331EBF4FF0FE4040F44000704701F0004030
:4058800040F0FE4040F40000704700BF80F0004002E000BF81F0004142001FBF5FEA410392EA030F7FEA226C7FEA236C6AD04FEA1262D2EB1363C1BFD21841404840414095
:4058C000B8BF5B42192B88BF704710F0004F40F4000020F07F4018BF404211F0004F41F4000121F07F4118BF494292EA030F3FD0A2F1010241FA03FC10EB0C00C3F12003A3
:4059000001FA03F100F0004302D5494260EB4000B0F5000F13D3B0F1807F06D340084FEA310102F10102FE2A51D2B1F1004F40EBC25008BF20F0010040EA0300704749001E
:4059400040EB000010F4000FA2F10102EDD1B0FA80FCACF1080CB2EB0C0200FA0CF0AABF00EBC25052421843BCBFD0401843704792F0000F81F4000106BF80F400000132B8
:40598000013BB5E74FEA41037FEA226C18BF7FEA236C21D092EA030F04D092F0000F08BF0846704790EA010F1CBF0020704712F07F4F04D1400028BF40F00040704712F1EA
:4059C00000723CBF00F50000704700F0004343F0FE4040F4000070477FEA226216BF08467FEA23630146420206BF5FEA412390EA010F40F4800070474FF0000304E000BF29
:405A000010F0004348BF40425FEA000C08BF704743F0964301464FF000001CE050EA010208BF70474FF000030AE000BF50EA010208BF704711F0004302D5404261EB4101AD
:405A40005FEA010C02BF84460146002043F0B64308BFA3F18053A3F50003BCFA8CF2083AA3EBC25310DB01FA02FC634400FA02FCC2F12002BCF1004F20FA02F243EB02003E
:405A800008BF20F00100704702F1200201FA02FCC2F1200250EA4C0021FA02F243EB020008BF20EADC7070474FF0FF0C1CEAD0521EBF1CEAD15392EA0C0F93EA0C0F6FD0F4
:405AC0001A4480EA010C400218BF5FEA41211ED04FF0006343EA501043EA5111A0FB01310CF00040B1F5000F3EBF490041EAD3715B0040EA010062F17F02FD2A1DD8B3F1D4
:405B0000004F40EBC25008BF20F00100704790F0000F0CF0004C08BF49024CEA502040EA51207F3AC2BFD2F1FF0340EAC250704740F400004FF00003013A5DDC12F1190F19
:405B4000DCBF00F000407047C2F10002410021FA02F1C2F1200200FA02FC5FEA310040F1000053EA4C0308BF20EADC70704792F0000F00F0004C02BF400010F4000F013AAB
:405B8000F9D040EA0C0093F0000F01F0004C02BF490011F4000F013BF9D041EA0C018FE70CEAD15392EA0C0F18BF93EA0C0F0AD030F0004C18BF31F0004CD8D180EA010088
:405BC00000F00040704790F0000F17BF90F0004F084691F0000F91F0004F14D092EA0C0F01D142020FD193EA0C0F03D14B0218BF084608D180EA010000F0004040F0FE40AB
:405C000040F40000704740F0FE4040F4400070474FF0FF0C1CEAD0521EBF1CEAD15392EA0C0F93EA0C0F69D0A2EB030280EA010C49024FEA402037D04FF0805343EA1111AA
:405C400043EA10130CF000408B4238BF5B0042F17D024FF4000C8B4224BF5B1A40EA0C00B3EB510F24BFA3EB510340EA5C00B3EB910F24BFA3EB910340EA9C00B3EBD10F4D
:405C800024BFA3EBD10340EADC001B0118BF5FEA1C1CE0D1FD2A3FF650AF8B4240EBC25008BF20F0010070470CF0004C4CEA50207F32C2BFD2F1FF0340EAC250704740F474
:405CC00000004FF00003013A37E792F0000F00F0004C02BF400010F4000F013AF9D040EA0C0093F0000F01F0004C02BF490011F4000F013BF9D041EA0C0195E70CEAD1532E
:405D000092EA0C0F08D142027FF47DAF93EA0C0F7FF470AF084676E793EA0C0F04D14B023FF44CAF08466EE730F0004C18BF31F0004CCAD130F000427FF45CAF31F0004321
:405D40007FF43CAF5FE700BF4FF0FF3C06E000BF4FF0010C02E000BF4FF0010C4DF804CD4FEA40024FEA41037FEA226C18BF7FEA236C11D001B052EA530C18BF90EA010F06
:405D800058BFB2EB030088BFC81738BF6FEAE17018BF40F0010070477FEA226C02D15FEA402C05D17FEA236CE4D15FEA412CE1D05DF8040B704700BF844608466146FFE7BE
:405DC0000FB5FFF7C9FF002848BF10F1000F0FBD4DF808EDFFF7F4FF0CBF012000205DF808FB00BF4DF808EDFFF7EAFF34BF012000205DF808FB00BF4DF808EDFFF7E0FF5D
:405E000094BF012000205DF808FB00BF4DF808EDFFF7D2FF94BF012000205DF808FB00BF4DF808EDFFF7C8FF34BF012000205DF808FB00BF0E4B70B51E460E4C0025E41A6A
:405E4000A410A54204D056F8253098470135F8E700F0BCFA084B094C1E46E41AA4100025A54204D056F8253098470135F8E770BDD8630000D8630000D8630000E063000020
:405E8000931E222B10B50C4602D90020087010BD0A2A06D1002804DA2D230B704042012100E00021214400F017F8204610BDFFF7E7BF10B5431E0A44914204D011F8014B69
:405EC00003F8014FF8E710BD03460244934202D003F8011BFAE77047F0B58BB003460F466D461A4C04F1200E2E4620686168083403C674453546F7D1217920683171911ED3
:405F0000222930604FF0000001D938701CE07D1EB3FBF2F402FB14330AAE334413F8283C411C05F8013F23460CB10846F0E77C543A18C11A8B4206DAF95C1478FC5402F8FE
:405F400001190133F5E738460BB0F0BDA4630000000000002825642C202564290000000000000000436F6D6D616E64733A20280025640000290000002F2F2F2F2F2F2F2F7D
:405F80002F2F2F2F2F2F2F2F424547494E204D41502F2F2F2F2F2F2F2F2F2F2F2F2F2F2F2F000000256420001B5B303B33316D25641B5B306D2000001B5B303B33346D2525
:405FC000641B5B306D2000001B5B313B33326D25641B5B306D2000001B5B313B33336D25641B5B306D2000002F2F2F2F2F2F2F2F2F2F2F2F2F2F2F2F2F454E44204D415035
:406000002F2F2F2F2F2F2F2F2F2F2F2F2F2F2F2F2F00000023232054657374696E6720416C676F726974686D2023230D0A0000005368617270207475726E20726967687494
:406040000D0A00005368617270207475726E206C6566740D0A00000055207475726E0D0A0000000053747261696768740D0A00001100000005000000030000000D00000068
:40608000FFFFFFFFFFFFFFFF200000000D0A0000202D207475726E2072696768740D0A00202D207475726E206C6566740D0A0000202D20666F72776172640D0A0000000095
:4060C000202D207475726E2034350D0A00000000202D2066696E697368207475726E0D0A000000002D2D2D2D2D2D2D2D2D2D2D2D2D2D2D2D2D2D2D2D2D2D2D2D2D2D2D0D10
:406100000A0000002D2D2D2D2D2D2D2D20666F7277617264202D2D2D2D2D2D2D2D2D2D2D0D0A00002D2D2D2D2D2D2D2D207475726E203435202D2D2D2D2D2D2D2D2D2D0DE9
:406140000A0000002D2D2D2D2D2D2D2D2066696E697368207475726E202D2D2D2D2D2D0D0A000000202D20666F727761726420736C696768746C790D0A000000202D206602
:406180006F72776172642074696C6C206A756E6374696F6E0D0A0000202D207475726E203133350D0A0000004C00000052000000550000002C000000290D0A00004F0040E6
:4061C000240040510040300000000140001000140140000800400140000A004C01400002105001401000000000500140DC0F0048100000003031323334353637383941429D
:4062000043444546000000001201000202000008B40432F2010001028001000009024300020101C032090400000102020103052400100104240202052406000105240100B2
:40624000010705810308000A09040100020A000004070582024000000705030240000000040309042C0343007900700072006500730073002000530065006D0069006300FF
:406280006F006E0064007500630074006F007200100355005300420055004100520054003803430044004300200043006F006D006D0075006E006900630061007400690099
:4062C0006F006E00200049006E007400650072006600610063006500260343004400430020004400610074006100200049006E0074006500720066006100630065000000D2
:406300000203000000008103080002000100820240000A000100030240000A00020A0000010000001C620000030000000463000000000000000000000000000000000000B6
:40634000000000001C630000010000000862000000000000000000000100000020630000010000004863000012034D005300460054003100300030000100000028000000FA
:40638000000104000100000000000000000143595553420000003030303031000000000000000000303132333435363738396162636465666768696A6B6C6D6E6F707172E7
:4063C000737475767778797A00000000F8B500BFF8BC08BC9E4670474D0000009D150000F8B500BFF8BC08BC9E46704729000000006400000881FF1F28050000800100000A
:40640000000000000A000000435333303120323032300A0000000000000000000000000000000000000000000000000000000000000000000000000000000000000000003A
:40644000000000000000000001000000010000000100000001000000010000000100000001000000010000000100000001000000010000000100000001000000010000000E
:4064800001000000010000000100000001000000010000000100000000000000000000000000000000000000000000000100000000000000010000000000000000000000D4
:4064C0000000000000000000000000000000000000000000000000000000000001000000010000000100000001000000010000000100000000000000010000000000000095
:406500000100000000000000010000000000000001000000010000000100000001000000010000000000000001000000010000000000000000000000000000000100000051
:406540000000000001000000000000000000000000000000010000000000000000000000000000000000000000000000010000000000000001000000010000000000000016
:4065800001000000000000000100000000000000010000000000000001000000010000000100000001000000010000000100000001000000000000000100000000000000D0
:4065C0000100000001000000000000000100000000000000000000000000000000000000000000000000000000000000000000000000000000000000000000000100000097
:40660000000000000100000000000000010000000100000000000000010000000100000001000000010000000100000001000000010000000100000001000000000000004E
:406640000100000000000000010000000000000001000000010000000100000001000000000000000000000000000000000000000000000000000000000000000000000014
:4066800000000000000000000000000001000000000000000100000000000000000000000000000001000000010000000100000001000000010000000100000001000000D1
:4066C000010000000000000001000000010000000100000001000000010000000000000001000000010000000100000000000000010000000100000000000000000000008F
:406700000000000000000000000000000000000000000000000000000000000000000000000000000100000000000000000000000000000001000000000000000100000056
:40674000010000000000000001000000010000000100000001000000010000000000000001000000010000000100000000000000010000000000000001000000000000000E
:4067800001000000000000000100000001000000000000000000000000000000000000000000000001000000000000000000000000000000010000000000000000000000D4
:4067C0000000000001000000000000000000000000000000010000000100000000000000010000000100000001000000000000000100000001000000010000000000000090
:40680000010000000100000001000000000000000100000001000000010000000000000001000000010000000000000000000000000000000100000000000000000000004F
:406840000000000000000000000000000000000000000000010000000000000000000000000000000000000000000000010000000100000001000000010000000100000012
:4068800001000000010000000100000001000000010000000100000001000000010000000100000001000000010000000100000001000000010000000100000004000000C5
:4068C0000500000007000000010000000B000000050000000A0000000B00000005000000080000001100000002000000FFFFFFFF807F0000030000000087930360EA0000E1
:406900003C0000000000307500C2010000000800C201000000080000A12000000000020000000000000000000000000000000000000000000000000000000000000000001D
:406940000000000000000000000000000000000000000000000000000000000000000000000000000000000000000000000000000000000000000000000000000000000017
:4069800000000000000000000000000000000000000000000000000000000000000000000000000000000000000000000000000000000000000000000000000000000000D7
:4069C0000000000000000000000000000000000000000000000000000000000000000000000000000000000000000000000000000000000000000000000000000000000097
:406A00000000000000000000000000000000000000000000000000000000000000000000000000000000000000000000000000000000000000000000000000000000000056
:020000040003F7
:0200000480007A
:4000000001450040064F004007520040015B00400664004003650040440001403901014068020140560301403A0401404E0501404E0601404C07014054080140580901405E
:400040004E0A0140510B0140430C01404F0D0140310E0140380F01402C1401404E150140581601405217014042180140531901403E1A0140501B01401140014012410140E4
:40008000124201400C43014001440140134501400A4601400A4701400648014004490140144C0140044D014005500140045101407E0201100A4B0D40164B1940224B008083
:4000C00008A009601110192061047C402F848138830D8572880F8D6F8F0F846F850F8B055280580459045B045C225D105F018040821184F38608870488F38A048B088E0CEB
:40010000943096C397089B049C809E229F01A301A502A902AC51AD02AEA2B00FB104B2F0B301B508B702BA02BF15C064C102C203C405C5ECC803C9FFCAFFCBFFCC62CDA03F
:40014000CEF0CF41D00CD418D604D804D904DA04DB04DC33DD33DF01E640E702E910EA30EB10ED10EE10EF1200800469060808800A400E100F01100A110515401C401E1077
:400180001F0125042681270529212A802C802E082F0A300A3414374039053F144410471149404A014C804E094F045C026540662067807102831085148680888289208E102E
:4001C000C0F1C2A9C48FCAFDCC73CE63D0E0D230D680D8B0E040E284E60701D10304047309AD0A0F0B100CCF0E300F1D103011D112C9130814FD1501160217041894197C24
:400200001A601C9E1E602702311D33E036FF370339083E404060410249FF4AFF4BFF4DA04F0450185608580459045A045B045D915F01604062C06440654066C068C06AC049
:400240006CC06EC0820886028B028C088E108F0E92109301961899089A019E04A401B01CB108B301B403B504B61CB702BE41C060C102C5D0C601C702C816C9FFCAFFCBFFDB
:40028000CDAFCE0FCF04D018D405D804D904DA04DB04DC19DD11DF01E040E2C0E440E540E6C0E8C0EAC0ECC0EEC000010140022004400602072808010A140B020D080E4A3B
:4002C0000F201304144015021A061B011F402121228023102584260127202F1031223605372038803B103E423F20420844064540460C49024B104F10504052045840590235
:400300005B045E806401670169408644911092309302942995419602971199019B149C169F40A00AA102A608A70AA808A904AA20AC40AE80AF40B501B640C0EDC2FFC404DD
:40034000CA40CCE5CEBCD024D224D61BD810E002E622EA03EE0206011E0232013402580459045C205F018004812184308502887C89618A828B068C208D078F60903C92C14F
:4003800093089506960C98CF99679A309C089D04A108A2C3A310A410A506A761A8FFAB21AC04AE08AF10B0B0B140B270B307B43FB518B720B902BA22BB08D602D711D80475
:4003C000D904DB04DC33DD30DF01032004010550062008100A010B080D220E200F0114401544160217141A101B201C801D121E041F0425402618274029012A402C012D1092
:400400002E06300A34023544371039213B403C803D043F124A084B105D206C146F0A75447620770480808440851188C09150922093819469950196409720980199019B1001
:400440009C109F48A00AA184A281A301A548A62CA70AAF04C0F4C2F1C4F0CAF9CCF3CEFDD620E20CEA220301047F092C0B100CA30D400E5C0F80109611301268130414FE82
:4004800015801601177C180E19401AF01B801CC51E3A21302308251C260129402B822D202F04313C33C034FF350237013B083E105608580459045B045D905F0181018401C9
:4004C000860289018C088D0190029201930194019501960298089C019E02A004A101A408AD01AE10B003B101B210B408B604B820BA02BE50D608D804D904DB04DC20DD90F3
:40050000DF0102020320044006120A510B080D080E4A0F1A10901188121015041A401B981F102080244025402614274029012A402C102E422F08300A361539213A803B400F
:400540003D803F1158805A205E80600362206701838084408B40912192309380944196419760988099019C029E409F08A08AA184A201A320A508A624AD30B280B530B60882
:40058000C0A5C2FFC42DCAF9CCE3CEBDD61CD81CE002E404E601EA83EE024036410549FF4AFF4BFF4DA04F015018540F580459045A045B045C225F01604062806440654075
:4005C000668068406A806C406D206E80830784948501866087F288FD89848A028B108E0F9473957799B79B409C9E9DC09E609F24A0CFA1C1A230A312A430A6C9AB08B10FDB
:40060000B4FFB7F0BE10C032C105C54EC6C2C703C81FC9FFCAFFCBFFCDAFCE07CF01D018D608D804D904DA04DB04DD90DF01E040E280E440E540E680E840EA80EC40ED208D
:40064000EE800014020205020708084809080A020C20128013041505160A19102282284029102F50310832A03502380639203C203D863E0240204204442045044840490415
:400680004A024C014E065080521459405A0C5C085DA05E02600279087A2088048A088B109010917892C89324948E95069781988499A09A409B489C409D069E149F01A010FF
:4006C000A4C8A549A680A701A940AD40AE20B662B710C057C245C4FCCAC5CC8ECEF7D046D238D6F8D808E002E220E404E601E840EC40010102010302053007C0080109F0E6
:400700000D010F0A10011570160119521BA11DC01F3021A0220123502401250127022C012F04310433F03503360137083B205280580459045B045C025F0181038280830451
:400740008510882889108A138E028F05950A9704981699039A299B049D039E809F0CA040A110A209A510A616A880AB08AC28AE15B007B10FB260B41BB510B680B808BA227D
:40078000BB0ABE40BF10D804D904DC33DF01002001020402051006010BA00E091186148017641A021E0A1F092010211422502344250426202740284429102B122C202E0274
