:400000000080002011000000610300006103000080B500AF024A034B1B68136000F0A4F9BC760040FA46004010B5054C237833B9044B13B10448AFF300800123237010BDB2
:400040004881FF1F00000000083F0000084B10B51BB108480849AFF300800848036803B910BD074B002BFBD0BDE81040184700BF00000000083F00004C81FF1F0881FF1F33
:400080000000000080B500AF03F0FEFA03461A46054B1A6003F064FB03461A46034B1A60034B01221A6080BDA481FF1FA881FF1FA081FF1F80B400AF034B01221A60BD4679
:4000C0005DF8047B704700BF7881FF1F80B5A2B000AF4FF4FA6002F0BDFF62B60020012100F05CFE03F096F803F0A6F900F014FE00F034FD3C4800F041FD03F0AFFA03F003
:4001000019FB00F0E1FC02F04DFD00F0F3FC374803F044F9012003F001FD0823C7F880300823FB670023C7F884303B1D78221846002103F0A5FE02237B606FF00103BB60C0
:400140000223FB606FF001033B6104237B616FF00103BB610223FB614FF0FF333B6204237B624FF0FF33BB620223FB624FF0FF333B6302237B636FF00103BB630423FB63C3
:400180006FF002033B6402237B644FF0FF33BB640423FB646FF001033B6502237B654FF0FF33BB650223FB656FF001033B6602237B664FF0FF33BB660423FB6607F1800266
:4001C00007F17C031046194600F094F8012003F003FA002003F0C2F8002003F0C5F9002318468837BD4680BD85000000B500000080B582B000AF0346FB80FB88184600F043
:400200007FFC0346184600F099FC034618460837BD4680BD80B58AB000AF00237B6215E07B6A9BB21BB21846FFF7E2FF38622C4A7B6A52F823203B6A9A4204DA28497B6A73
:400240003A6A41F823207B6A01337B627B6A052BE6DD244B1B680133224A1360214B1B685A2B37D100237B6227E01D4A7B6A52F823203B46104619460A2203F0F4FD3B4668
:40028000184600F063F8184800F060F8144A7B6A52F82330F92BD4BF01230023DBB2D9B2124A7B6A13440A461A700D4A7B6A002142F823107B6A01337B627B6A052BD4DDFF
:4002C0000B4800F043F8012003F046FC054B00221A6002E0002003F03FFC2837BD4680BD8481FF1F9C81FF1FCC3F00007C81FF1FD03F000080B582B000AF00F08FFC03F058
:40030000C3F903467B6003F02BFA03463B600B4800F01CF808E00A4B1B68002B04D0FFF779FF074B00221A60064B5B79002BF2D0054800F00BF80837BD4680BDF43F00006B
:400340007881FF1F7C81FF1F0440000080B483B000AF786000BF0C37BD465DF8047B704780B400AFFEE700BF80B586B000AF224B7B61224B3B61204B7B6135E03B691B6813
:40038000FB603B695B68BB603B699B683B6000237B600CE0FB681A68BB681A60BB680433BB60FB680433FB607B6804337B607A683B689A42EED13B69DB683B6000237B60B3
:4003C00008E0BB6800221A60BB680433BB607B6804337B607A683B689A42F2D13B6910333B617B69013B7B617B69002BC6D103F0FDFCFFF76BFEFEE701000000C042000070
:4004000080B582B000AF184B184A1A60184A184B1B6843F40073136000237B600FE07B68032B04D8134A7B6852F8233000E0124B12497A6841F822307B6801337B607B6871
:400440002F2BECD90E4B1B78DAB20E4B1A700E4B0A4A1A6000F084F902F0D2FB0B4B00221A600837BD4680BD0CED00E00004FA0514ED00E000000000610300000080FF1F7F
:40048000BC7600400481FF1F08ED00E00081FF1F80B582B000AF78603960786800213A6803F0EEFC0837BD4680BD00BF80B584B000AFF860B9607A60F868B9687A6803F0B5
:4004C000D4FC1037BD4680BD80B483B000AF0346FB71FEE780B487B000AF7860396000233B6100237B6127E07B699B007A6813441B68BB60BB68FB73BB6823F0FF03BB606B
:4005000014E03B695B003A6813441B781A46BB68134419463B695B003A6813445B780B703B6901333B61FB7B013BFB73FB7B002BE7D17B6901337B617B692B2BD4D91C37A2
:40054000BD465DF8047B704780B582B000AF3C4B04221A803B4B18221A703B4B0B221A803A4B1C221A703A4B38221A80394B18221A70394B81221A80384B18221A70384B60
:4005800000221A80374B1B221A70374B06221A70364B52221A70364B364A1278D2B21A70354B40F619121A80344B41F251221A800023FB7019237B6014E0FB785B00DAB2BD
:4005C0002F4B1B78DBB203F00103DBB21343DBB203F00303FB704FF4F07002F001FB7B68013B7B607B68002B02D0FB78032BE4D17B68002B02D10320FFF766FF214B4FF4C7
:4006000080721A801F4B07221A701F4B00221A701E4B48221A701B4B00221A701C4B00221A701C4B02221A701B4A1B4B1B78DBB243F01F03DBB213700837BD4680BD00BFD6
:4006400080400040824000408440004086400040884000408A4000408C4000408E40004090400040924000400043004000420040A14600400F010049224200402042004055
:40068000254200400440004006400040084000400940004001400040A243004080B582B000AF224B1B78FB71214B1B78BB71214B1B787B71204AFB7903F00703DBB213704F
:4006C0001E4AFB791B09DBB21370194ABB7943F00303DBB21370174A7B7943F00303DBB21370174B80221A70164BF4221A70164B40221A70154B40221A70154B8F221A70A9
:40070000144B20221A70144B80221A700A2002F0C3FC084A7B791370054ABB7913700F4B44221A700837BD4680BD00BFCF010049F8460040F94600406E5800406F580040AE
:400740000D5100401D510040095900400B590040285B00402B5B0040585B00407658004080B586B000AF72B6584B61221A70FFF7EBFE564B01221A70554A554B1B78DBB2DF
:4007800043F00403DBB213700023FB7513E0FA7D13465B0013445B004E4A13443B613B691A683B699B889BB210461946FFF770FEFB7D0133FB75FB7D062BE8D90023FB7595
:4007C0001CE0FA7D13469B0013445B00424A1344FB60FB681B68BB60FB685B687B60FB681A7A5B7A1B0213437B807B88B86879681A46FFF75BFEFB7D0133FB75FB7D002BF4
:40080000DFD04FF090403549FFF764FE34480421FFF73EFE334834490422FFF747FE334A324B1B78DBB243F00203DBB21370304A2F4B1B78DBB243F00203DBB213702D4AC3
:400840002C4B1B78DBB243F04003DBB213702A4A294B1B78DBB243F01003DBB21370274827490822FFF722FE264827490822FFF71DFE264826490A22FFF718FE25482649D4
:400880000822FFF713FE254825490A22FFF70EFE244825490822FFF709FE244B84221A70234B44221A70234A224B1B78DBB243F00803DBB21370FFF7F1FE1F480D490E22E6
:4008C000FFF7F4FD1837BD4680BD00BF00480040E84600408C400000B8400000B00000480076004008760040241000480350014013500140A0430040C243004002510040EE
:40090000EC0F0048C2510040F40F0048F0510040FC0F004812510040081000482051004010100048325100401C100048DB0C01405B14014022430040B043004080B500AF1B
:40094000022001214FF4804241F6FF7302F09EF803461A460A4B1A700C20012141F6FF7241F6FF7302F0C6F803461A46054B1A70054802F0F3F8002002F002F980BD00BF70
:40098000B881FF1FB981FF1FB500000080B582B000AF444B1B78184602F0A6F9424B1B78184602F0A1F9414B1B78FF2B05D102F0A9FA03461A463D4B1A703C4B1A783B4B94
:4009C0001B7810460C211A46062302F0C9FA374B1A78374B9BB2104645F6A2311A4602F0FFFA304B1A78314B1B781046194602F01BFA304B1B78FF2B05D102F083FA034673
:400A00001A462C4B1A702B4B1A782A4B1B7810460C211A46072302F0A3FA264B1978244B9AB2254B9BB2084611461A4602F0D8FA1D4B1A781F4B1B781046194602F0F4F9DB
:400A4000184B1B781846012102F008F9164B1B781846012102F002F902F0CAF80346FB71164A164B1B78DBB243F02003DBB21370FB79184602F0C0F8114A114B1B78DBB2A9
:400A800043F00103DBB213700D4A0D4B1B78DBB243F00203DBB213700A4B01221A600837BD4680BDB881FF1FB981FF1F0C81FF1FBC81FF1F0D81FF1FD881FF1F9B6500404F
:400AC0007C64004080E200E080B500AF074B1B68002B04D1FFF732FF044B01221A60FFF755FF01F08FFE024B1B7880BDB481FF1F6E64004080B500AF01F032FF80BD00BF7C
:400B000080B483B000AF0346FB80FB88C3F10503084A32F813309AB2074B1B889BB29BB2D31A9BB29BB21BB218460C37BD465DF8047B7047D881FF1F8282FF1F80B582B07F
:400B400000AF0346FB80B7F90630184601F058FF034618460837BD4680BD00BF80B500AF00F05CF8044800F029F8072000F038F800F048F880BD00BFA10B000080B582B086
:400B800000AF786000F04AF8786800F017F8072000F026F800F036F80837BD4680BD00BF80B400AF044B1B780133DAB2024B1A70BD465DF8047B70476481FF1F80B485B0B6
:400BC00000AF7860054B1B68FB60FB685C337A681A601437BD465DF8047B704708ED00E080B483B000AF0346FB71054AFB795B01DBB213700C37BD465DF8047B704700BFBA
:400C000007E400E080B400AF034B80221A60BD465DF8047B704700BF00E100E080B400AF034B80221A60BD465DF8047B704700BF80E100E080B500AF214A214B1B78DBB2D8
:400C400003F00103DBB213701E4A1E4B1B78DBB223F00303DBB213701B4A1B4B1B78DBB223F03003DBB21370174A174B1B78DBB243F03003DBB21370134A134B1B78DBB2DE
:400C800023F00F03DBB213700F4A0F4B1B78DBB243F00F03DBB213700C4A0C4B1B78DBB243F00103DBB2137040F6B73000F054F840F6B73000F062F8082000F03DF880BD79
:400CC000184F00401A4F0040234F0040194F004080B400AF0D4A0D4B1B78DBB243F00403DBB213700A4A0A4B1B78DBB243F00403DBB21370074A074B1B78DBB243F0010341
:400D0000DBB21370BD465DF8047B7047A3430040B3430040184F004080B500AF054B1B78002B04D1FFF786FF024B01221A70FFF7CFFF80BDC881FF1F80B483B000AF03460F
:400D4000FB71044AFB7913700C37BD465DF8047B704700BF1B4F004080B485B000AF0346FB80FB88FB81044AFB8913801437BD465DF8047B704700BF1C4F004080B483B09E
:400D800000AF0346FB80044AFB8813800C37BD465DF8047B704700BF1E4F004080B582B000AF03460A46FB711346BB71084B1B78002B04D100F00EF8054B01221A70FA7933
:400DC000BB791046194600F0D5F80837BD4680BDC981FF1F80B582B000AF01F009FF0346FB71534A524B1B78DBB243F00103DBB21370504A4F4B1B78DBB243F00103DBB2E9
:400E000013704D4B01221A704C4B02221A704C4A4B4B1B78DBB203F07F03DBB21370002002F03AF9474A474B1B78DBB223F00603DBB21370444A444B1B78DBB223F02003AD
:400E4000DBB213703F4A3F4B1B78DBB243F00103DBB21370012002F01FF9282002F01CF93A4A3A4B1B78DBB203F07F03DBB21370364A364B1B78DBB223F04003DBB2137039
:400E8000304A304B1B78DBB243F00203DBB21370022002F001F92B4A2A4B1B78DBB243F00403DBB213702A4B00221A70294B00221A70FB79184601F09FFE1720072102F081
:400EC00025F91720244902F0F9F81820072102F01DF91820214902F0F1F81520072102F015F915201E4902F0E9F80120072102F00DF901201B4902F0E1F80220072102F0CF
:400F000005F90220184902F0D9F80320072102F0FDF80320154902F0D1F80C20072102F0F5F80C20124902F0C9F80837BD4680BDA5430040B54300409D60004009600040CD
:400F4000106000409443004012600040F851004084600040856000400D180000DD10000001180000FD16000051170000A51700001918000080B582B000AF03460A46FB7178
:400F80001346BB712E4AFB7913702E4B00221A702D4B00221A702D4B00221A702C4B00221A702C4B00221A702B4B00221A702B4B00221A702A4B4FF400021A60284B4FF060
:400FC00080721A60264B4FF400121A60244B02221A60234B04221A60214B08221A60BB79002B02D0012B09D011E01E4A1D4B1B78DBB223F00103DBB2137011E0194A194B24
:401000001B78DBB243F00103DBB2137008E0154A144B1B78DBB243F00103DBB2137000BF114B03221A70114B80221A70012001F0D7FD0F4B04221A700837BD4680BD00BFBC
:40104000E581FF1FE881FF1F0482FF1F0782FF1FFC81FF1F0682FF1F0982FF1FE481FF1F00E100E00960004028600040086000401260004080B400AF0F4B00221A700F4BDE
:4010800000221A700E4B00221A700E4B00221A700D4B00221A700D4B00221A700C4B00221A700C4B03221A700B4B80221A70BD465DF8047B704700BFE881FF1F0482FF1F6F
:4010C0000782FF1FFC81FF1F0682FF1F0982FF1FE481FF1F286000400860004080B582B000AF374B1B78BB71BB7903F01003002B63D00123FB71BB795BB2002B13DABB7960
:4011000003F00F03012B02D00023FB711DE000F061F82C4B1B78DBB2DBB25BB2002B14DA0023FB7111E0BB7903F04003002B02D000F094F809E0BB7903F02003002B02D0FA
:4011400000F0B2F801E00023FB71FB79002B34D01B4B1B78BB71BB795BB2002B2DDB1A4B1B78DAB2194B1B78DBB21343BB71184ABB791370164B1B78DBB2BA799A421CD109
:40118000104B1B78FB710E4B1B78DBB223F07F03BB71BB79002B0AD1094B0A4A1278D2B21A70074B1B78DBB203F00F03FB71054B1B78DBB2FA799A42E2D10837BD4680BD4D
:4011C000286000400582FF1F7A82FF1F0882FF1F2960004080B582B000AF1D4B1B78FB711B4AFB7913701A4B1B78FB71FB795BB2002B03DA174AFB79137025E0022000F0C2
:4012000043FA154B1B78DBB203F06003202B08D0402B0BD0002B0ED100F004FB0346FB710CE002F0A5FD0346FB7107E001F0C0FA0346FB7102E00023FB7100BFFB79002B39
:4012400002D1044B03221A700837BD4680BD00BF286000400582FF1F0060004080B500AF104B1B78DBB2062B19D801A252F823F09F1200009F1200008D1200009F1200001F
:40128000931200009F1200009912000000F0FAF806E000F0A9F903E000F0D2F900E000BF80BD00BFE881FF1F80B500AF124B1B78DBB2062B1DD801A252F823F0F312000087
:4012C000F3120000D9120000F3120000DF120000F3120000E512000000F0DAF80AE000F029F907E0032000F0CFF9044B03221A7000E000BF80BD00BFE881FF1F0582FF1FC7
:4013000080B483B000AF0023FB71294B1B78DBB29AB2284B1B889BB213449AB2254B1A8015E02549FB79254A52681278D2B2CA54224B5B680133214A5360FB790133FB7156
:401340001E4B1B889BB2013B9AB21C4B1A801B4B1B889BB2002B02D0FB79072BE1D9144B1B78DBB2082B02D0FB79002B0FD0144B1B78DBB283F07F03DB43DAB2104B1A70D3
:40138000104B0F221A70104B02221A7005E00D4B02221A700C4B02221A700C4AFB791370034AFB7913700C37BD465DF8047B7047E481FF1FE681FF1F00600040F081FF1F85
:4013C0007A82FF1F0582FF1FE881FF1F0882FF1F80B582B000AF164B1B889BB2002B02D100F02EF81EE0134B02221A70124B00221A7000F069F9114BDB79DBB29BB21B0278
:401400009AB20E4B9B79DBB29BB21343FB80084B1B889BB2FA889A4202D2054AFB881380FFF76EFF012318460837BD4680BD00BFF081FF1FE881FF1F7A82FF1F006000407B
:4014400080B400AF0A4B02221A700A4B80221A70094B0F221A70094B00221A70084B00221A7001231846BD465DF8047B704700BFE881FF1F7A82FF1F0582FF1FE481FF1F5F
:401480000882FF1F80B500AFFFF73AFF80BD00BF80B500AF0A4B1B78DBB29AB2094B1B889BB213449AB2074B1A80074B00221A70012000F0E9F8054B03221A7080BD00BF12
:4014C000E481FF1FE681FF1FE881FF1F0582FF1F80B582B000AF124B04221A70114B80221A7000F0F1F8104BDB79DBB29BB21B029AB20D4B9B79DBB29BB21343FB800B4BD5
:401500001B889BB2FA889A4202D2084AFB881380074B0B221A70012318460837BD4680BDE881FF1F7A82FF1F00600040F081FF1F0582FF1F80B483B000AF0023BB71234BCF
:401540001B78DBB203F00F03DBB2023BFB71FB799AB21F4B1B889BB213449AB21C4B1A8018E01C4B5B681C49BA798A5CD2B21A70184B5B680133174A5360BB790133BB71A2
:40158000FB79013BFB71134B1B889BB2013B9AB2104B1A800F4B1B889BB2002B02D0FB79002BDED10D4AFB7913700D4B1B78DBB283F07F03DB43DAB2094B1A70094B0B22EB
:4015C0001A700C37BD465DF8047B704729600040E681FF1FF081FF1F006000400882FF1F7A82FF1F0582FF1F80B500AF044B00221A70012000F048F8024B03221A7080BD43
:40160000E881FF1F0582FF1F80B400AF084B06221A70084B06221A70074B80221A70074B00221A7001231846BD465DF8047B7047E881FF1F0582FF1F7A82FF1F0882FF1F17
:4016400080B500AF0C4B1B78DBB2002B0AD00B4A094B1B78DBB263F07F03DBB21370064B00221A70064B00221A70012000F00CF8044B03221A7080BD0682FF1F08600040C4
:40168000E881FF1F0582FF1F80B483B000AF0346FB710B4B9B68002B0CD0094B9B68FA791A70074B9B68074A128892B25A80044B00229A600C37BD465DF8047B704700BF26
:4016C000F081FF1FE681FF1F80B400AF094B00221A80094B9B68002B07D0074B9B6800221A70054B9B6800225A80BD465DF8047B704700BFE681FF1FF081FF1F80B400AFF6
:40170000104A104B1B78DBB223F00103DBB213700D4B9B7C0D4B1B7BDBB203F00303012B08D00A4BDB7BDBB283F07F03DB43DAB2064BDA73054B01225A73BD465DF8047B3A
:40174000704700BF0B600040FC5F00400C82FF1F80B400AF104A104B1B78DBB223F00203DBB213700D4B93F822300D4B1B7EDBB203F00303012B08D0094BDB7EDBB283F0C4
:401780007F03DB43DAB2064BDA76054B01225A76BD465DF8047B70470B600040FC5F00400C82FF1F80B400AF124A124B1B78DBB223F00403DBB213700F4B93F832300F4B12
:4017C00093F82430DBB203F00303012B0AD00B4B93F82730DBB283F07F03DB43DAB2074B83F82720054B012283F82520BD465DF8047B70470B600040FC5F00400C82FF1F53
:4018000080B400AFBD465DF8047B704780B500AFFFF730FC80BD00BF80B500AF01F0CEF980BD00BF80B586B000AF0023FB759D4B1B78FB7100233B619B4B00221A80FB7934
:401840005BB2002B80F20481964B5B78DBB20A2B00F2FC8001A252F823F000BFA51900004D1A00004D1A00004D1A00004D1A00004D1A0000891800004D1A0000171A00009C
:401880004D1A00002D1A0000864BDB78DBB2012B0ED100F017FEB860BB685B68824A5360814B12221A80FFF793FD0346FB7578E07C4BDB78DBB2022B24D17A4B9B78DBB2DD
:4018C000184600F0D5FDB860BB68002B69D0BB685B68754A5360744B5B6803331B78DBB29BB21B029AB2704B5B6802331B78DBB29BB213439AB26C4B1A80FFF769FD03468B
:40190000FB75A4E0674BDB78DBB2032B44D10023FB73664B3B6109E03B691B78BB71BB793A6913443B61FB7B0133FB735D4B9B78DBB2FA7B9A4204D23B691B78DBB2002B74
:40194000EAD1584B9B78DBB2EE2B01D1584B3B61544B9B78DBB2002B0BD0524B9B78DAB2544B1B7C9A4204D1534800F0A1F9524B3B613B691B78DBB2002B12D03B691B7871
:40198000DBB29AB2484B1A80474A3B695360FFF71FFD0346FB755AE002F0EAF90346FB7555E054E0FB7903F00303002B1FD0022B00D02FE03C4B02221A803A4B1B79DBB2BF
:4019C00003F07F023D4913465B0013449B000B449B78DAB23A4B1A70394B00225A70324B374A5A60FFF7F4FC0346FB7512E02E4B02221A80334B1B78DAB2314B1A70304B3C
:401A000000225A70284B2E4A5A60FFF7E1FC0346FB7500BF1BE0244B01221A80224B2A4A5A60FFF7D5FC0346FB7510E01E4B01221A801C4B1B79DBB21A46244B13441A4A60
:401A40005360FFF7C5FC0346FB7500E000BF19E1144B5B78DBB2013B0A2B00F2128101A252F823F06F1B0000831C0000F91B0000831C0000911A0000831C0000831C000030
:401A8000831C0000D51A0000831C00002B1B0000044B9B78DAB20E4B1A70FFF7B5FD0346FB75EFE000600040F081FF1F3041000038420000D8400000A482FF1F0C82FF1F90
:401AC000CC81FF1F0982FF1F0782FF1F7882FF1F0682FF1F6E4B9B787B717B79002B06D07B79013BDBB2184600F0C2FCB8607B79002B02D0BB68002B02D17B79002B13D1CA
:401B0000644B1B78DBB27A799A4208D0614A7B791370614B01221A70012000F0C1F9FFF773FD0346FB75ADE0ACE000F009FE0346002B1BD0564B1B793B71554B1B79DAB2BA
:401B4000564B1A703B79564AD35CDAB23B795549CB5CDBB29A4204D04F4B01221A7000F069FBFFF751FD0346FB758BE08AE0FB7903F00303012B22D0012B0DD3022B00D074
:401B800039E0434B9B78DBB2002B04D100F040FD0346FB752FE02EE03D4B9B78DBB2012B0CD1414B1B78DBB223F00203DAB23E4B1A70FFF729FD0346FB751CE01BE0344BFC
:401BC0001B79DBB2012B15D8314B9B78DBB2DB43DBB22F4A1279D2B211461046334A125CD2B21340DAB2314B5A54FFF70DFD0346FB75FFE700BF45E0FB7903F00303012B1B
:401C000022D0012B0DD3022B00D039E0204B9B78DBB2002B04D100F08DFC0346FB752FE02EE01B4B9B78DBB2012B0CD11E4B1B78DBB243F00203DAB21B4B1A70FFF7E4FC14
:401C40000346FB751CE01BE0114B1B79DBB2012B15D80F4B9B78DBB2DB43DBB20C4A1279D2B211461046114A125CD2B21340DAB20E4B5A54FFF7C8FC0346FB75FFE700BF1C
:401C800000E000BFFB7D18461837BD4680BD00BF006000400782FF1F0482FF1FFC81FF1FEC81FF1F7882FF1F0982FF1F7C82FF1FB0B58AB000AF7860314B07F114041D465E
:401CC0000FCD0FC42B682370002387F826307B68002B52D07B6822221A707B68013303221A7007F10C03184601F032FA022387F827303EE097F827307A68134497F82620E1
:401D000007F128010A4412F81C2C1209D2B207F128010A4412F8142C1A7097F8273001337A68134400221A7097F8273002337A68134497F8262007F128010A4412F81C2C17
:401D400002F00F0207F128010A4412F8142C1A7097F8273003337A68134400221A7097F82630013387F8263097F82730043387F8273097F82730212BBCD92837BD46B0BDA5
:401D8000C440000090B482B000AF0123FB7174E03F4AFB791B0113440C221A70FA793D4913465B0013449B000B445B79DBB2002B1AD0FA79374913465B0013449B000B44A2
:401DC0001B79DBB2DBB25BB2002B06DA324AFB791B0113440C229A700CE02F4AFB791B01134408229A7005E02B4AFB791B01134480229A702648F979FA79264C13465B009C
:401E000013449B002344DB889BB2DAB20B0103449A711F48F979FA791E4C13465B0013449B002344DB889BB21B0A9BB2DAB20B010344DA711648F979FA79164C13465B0047
:401E400013449B002344DB889BB2DAB20B0103441A710F48F979FA790E4C13465B0013449B002344DB889BB21B0A9BB2DAB20B0103445A71FB790133FB71FB79082B87D965
:401E8000064BFF221A700837BD4690BC704700BF706000400C82FF1FFC5F00400A60004080B58AB000AF0346FB7100237B84002387F827304CE097F82720C44913465B0070
:401EC00013449B000B4400221A7097F82720BF4913465B0013449B000B4400229A7097F82720BA4913465B0013449B000B440022DA7097F82720B54913465B0013449B0042
:401F00000B44083300221A8097F82720AF4913465B0013449B000B44083300229A7097F82720AA4913465B0013449B000B4400225A7097F82720A54913465B0013449B001D
:401F40000B4400225A7197F82730013387F8273097F82730082BAED9FB79002B16D0002387F825300EE097F82530994A0021D15497F82530974A0021D15497F825300133FB
:401F800087F8253097F82530012BECD9924B1B78DBB2002B00F049810023FB768E4B1B78DBB2013BDBB2184600F062FA78617B695B683B613B6907331B7803F04003002BA8
:401FC00008D0864B1B78DBB243F00103DAB2834B1A7007E0814B1B78DBB223F00103DAB27E4B1A707B6908337B617B691B7887F82730012387F82530B3E07B695B68FB615E
:40200000002387F82630A0E097F82520FB699B7803F07F039A4240F0908097F825206B4913465B0013449B000B4408331B889AB2FB699B889A420CD297F82520FB6998880C
:40204000624913465B0013449B000B44083302461A80FB691B781A465D4B9B5CDAB2FB695B789A4269D197F82520FB699878574913465B0013449B000B4402461A7197F895
:402080002520FB69D878514913465B0013449B000B4402461A70FB69DB7803F00303FB73FB699B78DBB25BB2002B1ADA97F82520FB7B012B01D1072000E00D204349134617
:4020C0005B0013449B000B4402465A7197F825203E4913465B0013449B000B4401225A7019E097F82520FB7B012B01D1052000E00920364913465B0013449B000B440246C9
:402100005A7197F82520314913465B0013449B000B4400225A70FB699B790A2B03D0FB699B79022B09D197F82520FB7EF86911461A4601F0D3FD0346FB76FB690833FB61CB
:4021400097F82630013387F8263097F8262097F827309A42FFF458AF97F82530013387F8253097F82530082B7FF647AF7B695B68FB61002387F8253016E0FB699B7803F018
:402180007F02FB691878114913465B0013449B000B44083302469A70FB690833FB6197F82530013387F8253097F8252097F827309A42E2D300F098F90246094B1A600023E2
:4021C0007B84012387F8273029E000BF0C82FF1F7882FF1FEC81FF1F0782FF1F0982FF1F0082FF1F97F82720114913465B0013449B000B447A8CDA8097F827200C491346D6
:402200005B0013449B000B4408331B889AB27B8C13447B8497F82730013387F8273097F82730082BDED9FFF7ADFD2837BD4680BD0C82FF1F90B585B000AF874B1B78DBB2B5
:40224000002B00F00681844B1B78DBB2013BDBB2184600F00DF978607B6808337B607B681B78FB707B685B68BB607C4B1B78BB700023FB73E8E0BB681B78BA789A4240F06B
:40228000DD80BB78764AD35CDAB2BB685B789A4240F0D480BB689B7803F07F037B70BB68DB7803F003033B707A786E4913465B0013449B000B440022DA707A78BB689878DE
:4022C000684913465B0013449B000B4402461A717A78BB68D878634913465B0013449B000B4402461A707A78BB6898885D4913465B0013449B000B44083302461A80BB687D
:402300009B78DBB25BB2002B18DA7A783B78012B01D1072000E00D20524913465B0013449B000B4402465A717A784E4913465B0013449B000B4401225A7017E07A783B7852
:40234000012B01D1052000E00920464913465B0013449B000B4402465A717A78414913465B0013449B000B4400225A703E4A7B781B01134401229A703B4879787A78394C37
:4023800013465B0013449B00234408331B889BB21B0A9BB2DAB20B0103441A70324879787A78304C13465B0013449B00234408331B889BB2DAB20B0103445A702B487978EC
:4023C0007A78284C13465B0013449B002344DB889BB2DAB20B0103449A71244879787A78204C13465B0013449B002344DB889BB21B0A9BB2DAB20B010344DA711B48797868
:402400007A78184C13465B0013449B002344DB889BB2DAB20B0103441A71144879787A78104C13465B0013449B002344DB889BB21B0A9BB2DAB20B0103445A71BB6808334D
:40244000BB60FB7B0133FB73FA7BFB789A42FFF412AF1437BD4690BD0782FF1FFC81FF1F7882FF1F0C82FF1FFC5F00407060004080B485B000AF0346FB71104B1B78DBB21D
:402480000F4ADB0013445B68FB60FB681033FB60FB681B78FA799A4202D30023FB6005E0FB79DB00FA6813445B68FB60FB6818461437BD465DF8047B704700BFE581FF1FF2
:4024C0003042000080B400AF054B1B78DBB2054ADB0013445B681846BD465DF8047B7047E581FF1F3042000080B584B000AF104B1B78DBB2013BDBB21846FFF7B9FFB86071
:40250000BB68002B0DD0BB685B681B79FB71FB790233DB00BA681344BB60BB685B68FB6001E00023FB60FB6818461037BD4680BD0782FF1F80B582B000AF0023FB71314BC2
:402540001B79DBB203F07F03BB71BB79002B53D0BB79082B50D8BA79B9792B480B465B000B449B0003449B78DBB243F00103D8B2254913465B0013449B000B4402469A70BD
:40258000BA79214913465B0013449B000B440022DA70BA79B9791C480B465B000B449B0003445B78DBB243F00203D8B2164913465B0013449B000B4402465A70BA79124961
:4025C00013465B0013449B000B441B79DBB2DBB25BB2002B06DA0D4ABB791B0113448D229A7005E0094ABB791B01134489229A70FFF70AF80346FB71FB7918460837BD4614
:4026000080BD00BF006000400C82FF1FFC5F004080B582B000AF0023FB71464B1B79DBB203F07F03BB71BB79002B7DD0BB79082B7AD8BA79B97940480B465B000B449B00D7
:4026400003449B78DBB223F00103D8B23A4913465B0013449B000B4402469A70BA79364913465B0013449B000B440022DA70334ABB791B0113447F221A70BA79B9792E48CB
:402680000B465B000B449B0003445B78DBB223F00203D8B2284913465B0013449B000B4402465A70BA79244913465B0013449B000B441B79DBB2DBB25BB2002B18DABA7923
:4026C0001D4913465B0013449B000B445B78DBB2012B06D1194ABB791B0113440C229A701EE0164ABB791B0113440D229A7017E0BA79114913465B0013449B000B445B7850
:40270000DBB2012B06D10D4ABB791B01134408229A7005E0094ABB791B01134409229A70FEF772FF0346FB71FB7918460837BD4680BD00BF006000400C82FF1FFC5F0040B1
:4027400080B584B000AF0023FB73154B1B79BB73144B1B78DBB2013BDBB21846FFF788FEB860BB685B681B79FB71BA7BFB799A4202D9BB7B022B0ED8BB7BBA7B0A498A5C21
:40278000D1B20A4AD154BB7B054A9278D1B2064AD1540123FB73FB7B18461037BD4680BD006000400782FF1F7882FF1FEC81FF1F80B582B000AF0023FB710F4B1B78DBB2A0
:4027C000DBB25BB2002B12DA0B4B5B78DBB2012B00D00CE0094B0A4A5A60094B1B789AB2064B1A80FEF7F4FD0346FB7100BFFB7918460837BD4680BD00600040F081FF1F30
:402800004C42000080B500AF054B1B78002B04D100F008F8024B01221A7000F019F880BDD081FF1F80B500AF074A074B1B78DBB243F00603DBB213700C2000F069F8034BEE
:4028400000221A8080BD00BF095900408882FF1F80B582B000AF00F0CBF90346FB71244A234B1B78DBB243F00203DBB21370214A204B1B78DBB243F00203DBB213701E4B6C
:402880001B78BB71BB7943F00203BB71BB7943F00103BB71184ABB791370184B18221A70174A174B1B78DBB243F04003DBB21370134A134B1B78DBB223F00303DBB213707D
:4028C000104BC8221A70104B02221A700F4A0F4B1B78DBB243F00803DBB213700A2000F0DBFBFB79184600F087F90837BD4680BDAB430040BB4300400B5900400E59004077
:402900000D59004008590040164600402F5B004080B584B000AF0346FB71FB790A2B07D00C2B02D0082B06D008E0C223FB730BE08223FB7308E04223FB7305E0C223FB735F
:40294000002000F07BFB00BF044AFB7B1370FB79184600F015F81037BD4680BD0A59004080B400AF054A054B1B78DBB243F00103DBB21370BD465DF8047B704708590040BA
:4029800080B584B000AF0346FB71FB790A2B08D00C2B02D0082B08D00BE04FF48053FB600DE04FF48063FB6009E04FF48073FB6005E00023FB60002000F040FB00BF0C4BAD
:4029C00000221A80FB6842F2107202FB03F303F6C413084A82FB0312D212DB17D31A064A1360064B00221A801037BD4680BD00BF8082FF1FAD8BDB688482FF1F8282FF1FA1
:402A000080B485B000AF0346FB801D4B1B889BB2002B09D01A4B1B889BB21AB213469B0013445B00FB6002E0164B1B68FB60164B1B889BB2FA889BB2D31A9BB2FB80B7F996
:402A4000063042F2107202FB03F2B7F90630002B04DDFB68D90F0B445B1004E0FB68D90F0B445B105B421A44FB6892FBF3F37B817B891BB218461437BD465DF8047B7047C3
:402A80008082FF1F8482FF1F8882FF1F90B585B002AF0446084611461A462346FB710346BB710B46BB8013467B80114B01221A700F4B1878F979BA79002300930023019301
:402AC000012300F0CFF90A4B1978BA887B88084611461A4600F06AF9054B1B781846022100F034F9024B1B7818460C37BD4690BD0E81FF1F90B585B002AF0446084611465E
:402B00001A462346FB710346BB710B46BB8013467B80114B00221A700F4B1878F979BA790023009300230193002300F09BF90A4B1978BA887B88084611461A4600F036F911
:402B4000054B1B781846022100F000F9024B1B7818460C37BD4690BD0F81FF1F80B485B000AF7860054B1B68FB60FB6840337A681A601437BD465DF8047B704708ED00E08B
:402B800080B483B000AF0346FB71054AFB795B01DBB213700C37BD465DF8047B704700BF00E400E080B400AF034B01221A60BD465DF8047B704700BF00E100E080B400AF08
:402BC000054B1B78DBB203F040039B09DBB21846BD465DF8047B70478F450040000000000230800803D000BF01380046FCD17047EFF3108072B6704780F31088704700BFDD
:402C000080B483B000AF134B7F221A70124B80221A707F23FB710CE0FB79DB0003F1804303F5F043FA79013AD2B21A70FB79013BFB71FB79002BEFD1FB79DB0003F1804304
:402C400003F5F04300221A700C37BD465DF8047B704700BF1181FF1F1081FF1F80B485B000AF03460A46FB711346BB710123FB60FB79172B2FD8BB79002B0ED0FB791A01E4
:402C8000184B1344FA791101164A0A441278D2B242F02002D2B21A700DE0FB791A01114B1344FA7911010F4A0A441278D2B222F02002D2B21A70FB791A010A4B1344FA795E
:402CC0001101084A0A441278D2B242F00102D2B21A700023FB60FB6818461437BD465DF8047B70471070004080B485B000AF0346FB710123FB60FB79172B1DD8FB791A0173
:402D0000114B1344FA7911010F4A0A441279D2B242F00402D2B21A71FB791A010A4B1344FA791101084A0A441278D2B242F00102D2B21A700023FB60FB6818461437BD4620
:402D40005DF8047B704700BF1070004080B485B000AF03460A46FB711346BB710123FB60FB79172B18D8FB791A010F4B13441B78DBB223F00E03FB72FB791A010A4B134456
:402D8000BA7902F00702D2B25200D1B2FA7A0A43D2B21A700023FB60FB6818461437BD465DF8047B704700BF1070004080B485B000AF0346FB710B46BB8013467B80012355
:402DC000FB60BB8841F6FF72934202D14FF40053BB807B8841F6FF72934202D14FF400537B80FB79172B17D8FB79DB0003F1804303F5EC430433BB60BB68BA881A80FB7999
:402E0000DB0003F1804303F5EC430633BB60BB687A881A800023FB60FB6818461437BD465DF8047B704700BF80B485B000AF03460A46FB711346BB710123FB60FB79172B18
:402E400007D8FB791A01064B1344BA795A720023FB60FB6818461437BD465DF8047B70471070004090B484B000AF0446084611461A462346FB710346BB710B467B7113460F
:402E80003B710123FB60FB79172B34D8FB79DB0003F1804303F5EC43BA7902F07F02D1B27A79D201D2B20A43D2B21A70FB79DB0003F1804303F5EC433A7E1201D1B23A79FC
:402EC00002F00F02D2B20A43D2B25A70FB79DB0003F1804303F5EC433A7F02F00F02D2B29A70FB79DB0003F1804303F5EC430022DA700023FB60FB6818461037BD4690BCCB
:402F0000704700BF80B582B000AFFF23FB71FFF76FFE0346BB71104B1B78182B12D90F4B1B78FB710C4B1B78013BDAB20A4B1A70FB79DB0003F1804303F5F0431B78DAB249
:402F4000064B1A70BB791846FFF756FEFB7918460837BD4680BD00BF1081FF1F1181FF1F90B484B000AF0446084611461A462346FB710346BB800B46BB711346FB700123F7
:402F8000FB60FB795BB2002B23DBBB8823F47F6323F00F039BB2002B1BD1FB79DB0003F1804303F5F043BB60BB68BA881A80FB79DB0003F1804303F5F043BA799A70FB791A
:402FC000DB0003F1804303F5F043FA78DA700023FB60FB6818461037BD4690BC704700BF80B485B000AF0346FB710B46BB8013467B800123FB60FB795BB2002B17DBFB79CF
:40300000DB0003F1804303F5F0430433BB60BB68BA881A80FB79DB0003F1804303F5F0430633BB60BB687A881A800023FB60FB6818461437BD465DF8047B704780B483B0BF
:4030400000AF0346FB7101BE0C37BD465DF8047B704700BF80B582B000AF786008E00C4B1B681846FFF7BCFD7B68A3F500437B607B68B3F5004FF2D8064B1B687A6802FBF0
:4030800003F31846FFF7ACFD0837BD4680BD00BF2481FF1F1C81FF1F80B582B000AF0346FB80FB88044A127802FB03F31846FFF797FD0837BD4680BD2081FF1F80B584B0AA
:4030C00000AF03463960FB710F4B1B68FB60FB791F2B02D90020FFF7B1FFFB7903F01F0310339B00FA6813441B68BB60FB7903F01F0310339B00FA6813443A681A60BB681F
:4031000018461037BD4680BD08ED00E080B582B000AF03460A46FB711346BB71BB79072B02D90020FFF78AFFFB791F2B02D90020FFF784FFFB7903F01F0303F1604303F50B
:403140006443BA795201D2B21A700837BD4680BD80B483B000AF7860264B1B78DBB21A467B681A60244B1B78DBB21B027A6812681A437B681A60214B1B78DBB21B047A680A
:4031800012681A437B681A601D4B1B78DBB21B067A6812681A437B681A607B680433194A1278D2B21A60184B1B78DBB21A027B6804337968043109680A431A60134B1B781F
:4031C000DBB21A047B6804337968043109680A431A600F4B1B78DBB21A067B6804337968043109680A431A600C37BD465DF8047B704700BF0301004904010049EC4600401D
:40320000020100490101004900010049050100490601004980B500AF054B1B78002B04D100F008F8024B01221A7000F063F880BDD181FF1F80B582B000AF294A284B1B78D6
:40324000DBB243F00203DBB21370264B1B78DBB223F07003FB71234AFB7943F01003DBB21370214A204B1B78DBB223F03003DBB213701D4A1C4B1B78DBB243F03003DBB292
:403280001370194A184B1B78DBB223F00F03DBB21370154A144B1B78DBB243F00F03DBB2137040F2E73000F049F84FF4FA7000F055F8002000F062F80C4A0C4B1B78DBB2A2
:4032C00043F00103DBB21370094A094B1B78DBB243F00103DBB213700837BD4680BD00BF004F0040024F00400B4F0040A3430040014F004080B400AF0D4A0D4B1B78DBB219
:4033000043F00103DBB213700A4A0A4B1B78DBB243F00103DBB21370074A074B1B78DBB243F00103DBB21370BD465DF8047B7047A3430040B3430040004F004080B483B04C
:4033400000AF0346FB80044AFB8813800C37BD465DF8047B704700BF044F004080B483B000AF0346FB80044AFB8813800C37BD465DF8047B704700BF064F004080B483B089
:4033800000AF0346FB71044AFB7913700C37BD465DF8047B704700BF034F004080B582B000AF786000F03CF8786800F009F8072000F018F800F028F80837BD4680BD00BFEA
:4033C00080B485B000AF7860054B1B68FB60FB6860337A681A601437BD465DF8047B704708ED00E080B483B000AF0346FB71054AFB795B01DBB213700C37BD465DF8047B9B
:40340000704700BF08E400E080B400AF034B4FF480721A60BD465DF8047B704700E100E080B400AF034B4FF480721A60BD465DF8047B704780E100E080B500AF054B1B78A5
:40344000002B04D100F008F8024B01221A7000F04DF880BDD281FF1F80B582B000AF204B1B78DBB223F03F03FB711D4AFB7943F00903DBB213701B4A1A4B1B78DBB243F0D6
:403480000103DBB21370184A174B1B78DBB243F00103DBB2137040F2E73000F037F840F2E73000F051F84FF4FA7000F05DF8002000F06AF8FFF79CFB0346BB710A4A0A4BD4
:4034C0001B78DBB243F01003DBB21370BB791846FFF792FB00F02AF80837BD4680BD00BF70640040926400409364004080B400AF054A054B1B78DBB263F07F03DBB21370E9
:40350000BD465DF8047B70477064004080B483B000AF0346FB80044AFB8813800C37BD465DF8047B704700BF0468004080B500AF01E000F045F800F037F8034603F010030F
:40354000002BF6D180BD00BF80B483B000AF0346FB80044AFB8813800C37BD465DF8047B704700BF8468004080B483B000AF0346FB80044AFB8813800C37BD465DF8047B0B
:40358000704700BF4468004080B483B000AF0346FB71044AFB7913700C37BD465DF8047B704700BF8364004080B400AF034B1B78DBB21846BD465DF8047B7047636400409E
:4035C00080B400AF034B1B889BB21846BD465DF8047B7047A468004080B485B000AF0346FB710B4B1B78DBB223F00203FB730849FB795B00DBB203F00203DAB2FB7B1343AC
:40360000DBB20B701437BD465DF8047B704700BF2051004080B400AFBD465DF8047B704780B582B000AF0F2000F050F800F03EF8FFF7DEFA0346FB71074A074B1B78DBB2DF
:4036400043F01003DBB21370FB791846FFF7D4FA0837BD4680BD00BF9565004080B500AF00F000F94FF4004000F028F9054B1B78002B04D1FFF7CEFF024B01221A70FFF7EF
:40368000CFFF80BDD381FF1F80B582B000AF00F025F90346FB80FB88A3F500439BB2BB80BB881BB218460837BD4680BD80B400AF054B1B78DBB203F00F03DBB21846BD468C
:4036C0005DF8047B704700BF6565004080B483B000AF0346FB71044AFB7913700C37BD465DF8047B704700BF8565004080B400AFBD465DF8047B704780B582B000AF0F20F6
:4037000000F050F800F03EF8FFF772FA0346FB71074A074B1B78DBB243F01003DBB21370FB791846FFF768FA0837BD4680BD00BF9864004080B500AF00F06AF94FF400409D
:4037400000F092F9054B1B78002B04D1FFF7CEFF024B01221A70FFF7CFFF80BDD481FF1F80B582B000AF00F08FF90346FB80FB88A3F500439BB2BB80BB881BB218460837D5
:40378000BD4680BD80B400AF054B1B78DBB203F00F03DBB21846BD465DF8047B704700BF6864004080B483B000AF0346FB71044AFB7913700C37BD465DF8047B704700BF8D
:4037C0008864004080B582B000AF1C4B1B78DBB223F00703FB71194AFB791370174B1B78DBB223F00303FB71144AFB79137000F0B1F84FF4004000F08DF84FF4004000F0BD
:403800005DF8002000F03EF800F04CF84FF4004000F090F8FFF7ECF90346BB71084A084B1B78DBB243F01003DBB21370BB791846FFF7E2F90837BD4680BD00BF7565004098
:403840009465004080B400AF054A054B1B78DBB263F07F03DBB21370BD465DF8047B70477565004080B500AF054B1B78002B04D1FFF7A8FF024B01221A70FFF7E3FF80BD6D
:40388000D581FF1F80B483B000AF0346FB71044AFB7913700C37BD465DF8047B704700BF8465004080B400AF034B1B78DBB21846BD465DF8047B70476465004080B483B01E
:4038C00000AF0346FB80044AFB8813800C37BD465DF8047B704700BF0C6A004080B400AF044B1B78044B1B889BB21846BD465DF8047B7047066500408C6A004080B400AFF7
:40390000034B1B889BB21846BD465DF8047B70478C6A004080B483B000AF0346FB80044AFB8813800C37BD465DF8047B704700BF4C6A004080B483B000AF0346FB80044A3B
:40394000FB8813800C37BD465DF8047B704700BF6C6A004080B500AF01E0FFF7CFFFFFF7A1FF034603F04003002BF6D180BD00BF80B582B000AF1C4B1B78DBB223F0070345
:40398000FB71194AFB791370174B1B78DBB223F00303FB71144AFB79137000F0B1F84FF4004000F08DF84FF4004000F05DF8002000F03EF800F04CF84FF4004000F090F817
:4039C000FFF716F90346BB71084A084B1B78DBB243F01003DBB21370BB791846FFF70CF90837BD4680BD00BF7A6400409D64004080B400AF054A054B1B78DBB263F07F0391
:403A0000DBB21370BD465DF8047B70477A64004080B500AF054B1B78002B04D1FFF7A8FF024B01221A70FFF7E3FF80BDD681FF1F80B483B000AF0346FB71044AFB791370D2
:403A40000C37BD465DF8047B704700BF8D64004080B400AF034B1B78DBB21846BD465DF8047B70476D64004080B483B000AF0346FB80044AFB8813800C37BD465DF8047BDF
:403A8000704700BF1068004080B400AF044B1B78044B1B889BB21846BD465DF8047B7047086400409068004080B400AF034B1B889BB21846BD465DF8047B704790680040BF
:403AC00080B483B000AF0346FB80044AFB8813800C37BD465DF8047B704700BF5068004080B483B000AF0346FB80044AFB8813800C37BD465DF8047B704700BF706800401A
:403B000080B500AF01E0FFF7CFFFFFF7A1FF034603F04003002BF6D180BD00BF80B485B000AF0346FB710B4B1B78DBB223F00803FB730849FB79DB00DBB203F00803DAB273
:403B4000FB7B1343DBB20B701437BD465DF8047B704700BFC051004080B485B000AF0346FB710B4B1B78DBB223F00803FB730849FB79DB00DBB203F00803DAB2FB7B134336
:403B8000DBB20B701437BD465DF8047B704700BF2051004080B582B000AF0023FB71324B1B79DBB2184600F069F80346BB712E4B1B78DBB2DBB25BB2002B16DA2A4B5B78B7
:403BC000DBB2212B00D00FE0284B07221A80BA791346DB009B1A264A1344244A5360FDF7F7FB0346FB7100BF38E01F4B5B78DBB2202B02D0222B1AD030E01C4B07221A8029
:403C0000BA791346DB009B1A194A1344174A5360BB79BA7917498A5CD2B242F00102D1B2144AD154FDF754FC0346FB7116E0BB790D4A9278D2B291B20F4A22F81310BB7919
:403C4000BA790C498A5CD2B242F00202D1B2094AD154FDF7D9FC0346FB7100BFFB7918460837BD4680BD00BF00600040F081FF1F2881FF1F8C82FF1FA082FF1F80B485B009
:403C800000AF0346FB710023FB73FF23BB7317E0FB7B104AD35C7B737A7B0F4913465B0013449B000B4408339B78DBB2FA799A4203D1FB7BBB730223FB73FB7B0133FB734C
:403CC000FB7B012BE4D9BB7B18461437BD465DF8047B70479482FF1F0C82FF1F80B485B000AF78600B46FB701346BB707B68DB7803F00303FB737B689B78DBB25BB2002B90
:403D00001ADAFB7B032B0AD0BB7803F001031549FA78CA54BB7843F00103BB701BE0BB789B08DBB203F001030F49FA78CA54BB7843F00403BB700EE0FB7B032B0BD0BB78EF
:403D40005B08DBB203F001030849FA78CA54BB7843F00203BB70BB7818461437BD465DF8047B70479082FF1F9482FF1F9882FF1F80B582B000AF1A4B1B78DBB203F003034B
:403D8000012B02D0022B04D012E0154B1B79BB7111E0134B1B79DBB203F07F02114913465B0013449B000B4408339B78BB7102E00023BB7100BF0C4B1A68BB7913441B785E
:403DC000022B04D1FFF7E6FE0346FB7102E00023FB7100BFFB7918460837BD4680BD00BF006000400C82FF1F0082FF1F0E4B70B51E460E4C0025E41AA410A54204D056F8EA
:403E0000253098470135F8E700F048FA084B094C1E46E41AA4100025A54204D056F8253098470135F8E770BDA8420000A8420000A8420000B0420000931E222B10B50C46E0
:403E400002D90020087010BD0A2A06D1002804DA2D230B704042012100E00021214400F017F8204610BDFFF7E7BF10B5431E0A44914204D011F8014B03F8014FF8E710BDE7
:403E800003460244934202D003F8011BFAE77047F0B58BB003460F466D461A4C04F1200E2E4620686168083403C674453546F7D1217920683171911E222930604FF0000010
:403EC00001D938701CE07D1EB3FBF2F402FB14330AAE334413F8283C411C05F8013F23460CB10846F0E77C543A18C11A8B4206DAF95C1478FC5402F801190133F5E73846D1
:403F00000BB0F0BD74420000000000002825642C202564290000000000000000436F6D6D616E64733A20280025640000290000002F2F2F2F2F2F2F2F2F2F2F2F2F2F2F2F5E
:403F4000424547494E204D41502F2F2F2F2F2F2F2F2F2F2F2F2F2F2F2F000000256420001B5B303B33316D25641B5B306D2000001B5B303B33346D25641B5B306D20000066
:403F80001B5B313B33326D25641B5B306D2000001B5B313B33336D25641B5B306D2000002F2F2F2F2F2F2F2F2F2F2F2F2F2F2F2F2F454E44204D41502F2F2F2F2F2F2F2FB4
:403FC0002F2F2F2F2F2F2F2F2F000000200000000D0A0000202D207475726E2072696768740D0A00202D207475726E206C6566740D0A0000202D20666F72776172640D0AC7
:4040000000000000202D207475726E2034350D0A00000000202D2066696E697368207475726E0D0A0000000055207475726E0D0A00000000202D20666F7277617264207372
:404040006C696768746C790D0A000000202D20666F72776172642074696C6C206A756E6374696F6E0D0A0000202D207475726E203133350D0A0000004C00000052000000B0
:40408000550000002C000000290D0A00004F0040240040510040300000000140001000140140000800400140000A004C01400002105001401000000000500140DC0F00484E
:4040C0001000000030313233343536373839414243444546000000001201000202000008B40432F2010001028001000009024300020101C03209040000010202010305240B
:4041000000100104240202052406000105240100010705810308000A09040100020A000004070582024000000705030240000000040309042C0343007900700072006500C0
:40414000730073002000530065006D00690063006F006E0064007500630074006F007200100355005300420055004100520054003803430044004300200043006F006D005D
:404180006D0075006E00690063006100740069006F006E00200049006E007400650072006600610063006500260343004400430020004400610074006100200049006E00B3
:4041C000740065007200660061006300650000000203000000008103080002000100820240000A000100030240000A00020A000001000000EC40000003000000D4410000E2
:404200000000000000000000000000000000000000000000EC41000001000000D8400000000000000000000001000000F0410000010000001842000012034D0053004600B0
:4042400054003100300030000100000028000000000104000100000000000000000143595553420000003030303031000000000000000000303132333435363738396162E2
:40428000636465666768696A6B6C6D6E6F707172737475767778797A00000000F8B500BFF8BC08BC9E4670474D00000001040000F8B500BFF8BC08BC9E4670472900000029
:4042C000D04200000881FF1F400000008001000000000000FFFFFFFF807F0000030000000087930360EA00003C0000000000307500C2010000000800C20100000008000068
:40430000A1200000000002000000000000000000000000000000000000000000000000000000000000000000000000000000000000000000000000000000000000000000BA
:40434000000000000000000000000000000000000000000000000000000000000000000000000000000000000000000000000000000000000000000000000000000000003D
:4043800000000000000000000000000000000000000000000000000000000000000000000000000000000000000000000000000000000000000000000000000000000000FD
:4043C00000000000000000000000000000000000000000000000000000000000000000000000000000000000000000000000000000000000000000000000000000000000BD
:40440000000000000000000000000000000000000000000000000000000000000000000000000000000000000000000000000000000000000000000000000000000000007C
:020000040003F7
:0200000480007A
:4000000001450040064F004007520040015B00400664004003650040440001403901014068020140560301403A0401404E0501404E0601404C07014054080140580901405E
:400040004E0A0140510B0140430C01404F0D0140310E0140380F01402C1401404E150140581601405217014042180140531901403E1A0140501B01401140014012410140E4
:40008000124201400C43014001440140134501400A4601400A4701400648014004490140144C0140044D014005500140045101407E0201100A4B0D40164B1940224B008083
:4000C00008A009601110192061047C402F848138830D8572880F8D6F8F0F846F850F8B055280580459045B045C225D105F018040821184F38608870488F38A048B088E0CEB
:40010000943096C397089B049C809E229F01A301A502A902AC51AD02AEA2B00FB104B2F0B301B508B702BA02BF15C064C102C203C405C5ECC803C9FFCAFFCBFFCC62CDA03F
:40014000CEF0CF41D00CD418D604D804D904DA04DB04DC33DD33DF01E640E702E910EA30EB10ED10EE10EF1200800469060808800A400E100F01100A110515401C401E1077
:400180001F0125042681270529212A802C802E082F0A300A3414374039053F144410471149404A014C804E094F045C026540662067807102831085148680888289208E102E
:4001C000C0F1C2A9C48FCAFDCC73CE63D0E0D230D680D8B0E040E284E60701D10304047309AD0A0F0B100CCF0E300F1D103011D112C9130814FD1501160217041894197C24
:400200001A601C9E1E602702311D33E036FF370339083E404060410249FF4AFF4BFF4DA04F0450185608580459045A045B045D915F01604062C06440654066C068C06AC049
:400240006CC06EC0820886028B028C088E108F0E92109301961899089A019E04A401B01CB108B301B403B504B61CB702BE41C060C102C5D0C601C702C816C9FFCAFFCBFFDB
:40028000CDAFCE0FCF04D018D405D804D904DA04DB04DC19DD11DF01E040E2C0E440E540E6C0E8C0EAC0ECC0EEC000010140022004400602072808010A140B020D080E4A3B
:4002C0000F201304144015021A061B011F402121228023102584260127202F1031223605372038803B103E423F20420844064540460C49024B104F10504052045840590235
:400300005B045E806401670169408644911092309302942995419602971199019B149C169F40A00AA102A608A70AA808A904AA20AC40AE80AF40B501B640C0EDC2FFC404DD
:40034000CA40CCE5CEBCD024D224D61BD810E002E622EA03EE0206011E0232013402580459045C205F018004812184308502887C89618A828B068C208D078F60903C92C14F
:4003800093089506960C98CF99679A309C089D04A108A2C3A310A410A506A761A8FFAB21AC04AE08AF10B0B0B140B270B307B43FB518B720B902BA22BB08D602D711D80475
:4003C000D904DB04DC33DD30DF01032004010550062008100A010B080D220E200F0114401544160217141A101B201C801D121E041F0425402618274029012A402C012D1092
:400400002E06300A34023544371039213B403C803D043F124A084B105D206C146F0A75447620770480808440851188C09150922093819469950196409720980199019B1001
:400440009C109F48A00AA184A281A301A548A62CA70AAF04C0F4C2F1C4F0CAF9CCF3CEFDD620E20CEA220301047F092C0B100CA30D400E5C0F80109611301268130414FE82
:4004800015801601177C180E19401AF01B801CC51E3A21302308251C260129402B822D202F04313C33C034FF350237013B083E105608580459045B045D905F0181018401C9
:4004C000860289018C088D0190029201930194019501960298089C019E02A004A101A408AD01AE10B003B101B210B408B604B820BA02BE50D608D804D904DB04DC20DD90F3
:40050000DF0102020320044006120A510B080D080E4A0F1A10901188121015041A401B981F102080244025402614274029012A402C102E422F08300A361539213A803B400F
:400540003D803F1158805A205E80600362206701838084408B40912192309380944196419760988099019C029E409F08A08AA184A201A320A508A624AD30B280B530B60882
:40058000C0A5C2FFC42DCAF9CCE3CEBDD61CD81CE002E404E601EA83EE024036410549FF4AFF4BFF4DA04F015018540F580459045A045B045C225F01604062806440654075
:4005C000668068406A806C406D206E80830784948501866087F288FD89848A028B108E0F9473957799B79B409C9E9DC09E609F24A0CFA1C1A230A312A430A6C9AB08B10FDB
:40060000B4FFB7F0BE10C032C105C54EC6C2C703C81FC9FFCAFFCBFFCDAFCE07CF01D018D608D804D904DA04DB04DD90DF01E040E280E440E540E680E840EA80EC40ED208D
:40064000EE800014020205020708084809080A020C20128013041505160A19102282284029102F50310832A03502380639203C203D863E0240204204442045044840490415
:400680004A024C014E065080521459405A0C5C085DA05E02600279087A2088048A088B109010917892C89324948E95069781988499A09A409B489C409D069E149F01A010FF
:4006C000A4C8A549A680A701A940AD40AE20B662B710C057C245C4FCCAC5CC8ECEF7D046D238D6F8D808E002E220E404E601E840EC40010102010302053007C0080109F0E6
:400700000D010F0A10011570160119521BA11DC01F3021A0220123502401250127022C012F04310433F03503360137083B205280580459045B045C025F0181038280830451
:400740008510882889108A138E028F05950A9704981699039A299B049D039E809F0CA040A110A209A510A616A880AB08AC28AE15B007B10FB260B41BB510B680B808BA227D
:40078000BB0ABE40BF10D804D904DC33DF01002001020402051006010BA00E091186148017641A021E0A1F092010211422502344250426202740284429102B122C202E0274
:4007C0002F0831083290351036043740389439023D083EA03F02430C49804A01724083408410870888A08B028D108F0191D092099320940A9504960297C1988099209AC187
:400800009B209D169E149F45A010A340A4C8A54DA604A701AD02B201B480B602B710C0DAC2CCC4FDCAEBCC7ECEFFE220E420EA20008001010480086C09020A110C100F0CC0
:40084000110212031414185C19081A021E802220240926102C702E0C301F310232803304346035013708382039023E143F5152035302580459045B045C035D205F018408EB
:400880008703950499019D04A002A201A504A802AA0CAC01B001B101B204B304B408B502B602B880B988BE11BF44D40FD804D90CDB04DC20DF0501080402051006010720E4
:4008C00009020A800C080E490F8810801204134014801680174419091A051D201E401F082142221424802680272829202A042B0830843108321034403682372038803A4020
:400900003B043C803D203F01584059015A045B10610462106D70780479408704932094089544968097819A819D129F49A010A565A705AB04AD50AF01B001B620B740C0F4F4
:40094000C2F0C4BBCA02CCAECEB2D60FD806DE0AE622EE4205010B010D0111011F012101270137015401580459045B0C5C225D205F018301860287018F0199019D01A201FA
:40098000B202B401B701BF40C002C740C9FFCA07CBFFCC40CD20CEF0CF05D008D401D604D804D904DA04DB04DC22DD33DF01E040E1A8E240E3200008010204180502090868
:4009C0000BC00C800E040F40108111861401150417051C381D0C1E041F142002264029062B402F56308134013510374439043BA03EA03F0A452056815A805D105E805F09A6
:400A00006440794081048240871088C08B42C07CC2DCC4BDCAF3CCF9CEFED020D6F8D880DE08E2A0E684000104010C010F0114011E012001260131013401540F58045904B3
:400A40005B045C225F058202850189048E018F019108970198029E06A401A801AB0AAF04B002B102B201B301B404B508B704BE05BF54D280D40FD804D904DB04DF01008853
:400A800002400440068008040B010D800E0810401220160817081B201D021E282080220125042602270628802A402F073044314032213602370839403B013C503E085910E8
:400AC0005A405B065C015D805E24610462107680781081C484C48C018D188E408F01905092049309981499449A589B089C80A188A220A302A440A502A720AE08B244B4043B
:400B0000C09DC2C5C46CCA39CCCFCE79D6FFD806DE04E002E606EC20EE0201A10352053107C20E0410021208170719F71DC01F3423082577260128022D542FA030023208F7
:400B400033F03401350F360438024046410349FF4AFF4BFF4DA04F0150185608580459045A045B045D905F016040628064406540668068406A806C406D206E8081038D037C
:400B80009102930195039B03A103AD01AF02B301B502C046C102C54EC6C0C723C83BC9FFCAFFCBFFCDAFCE07CF01D018D804D904DA04DC22DF01E040E280E440E540E68011
:400BC000E840EA80EC40ED20EE8000800301058008820D01100D11011220130116241C541E012204230425282718288129402A802C102E442F4030083220330137583901A4
:400C00003A403F0A41224502470849054A084E084F205101521653065E805F10600262406580662081018220832087148A409101924093809601970898109A809B409E4070
:400C40009F08A008A180A315A508A602AD84B240C081C219C46FCAD9CC77CEC9D0C5D224D630D830E026E208E404E601E82003220A010D021108170819041F10210127019B
:400C80002F44311F35403601372039023F014014410245E047CB483249FF4AFF4BFF4EF04F44500C580459045A045C225D035F0166C06A406B028404850586028B308C022E
:400CC0008D108E0C910692019402950396049C029E149F08A106B001B108B210B307B406B510B608B720B908BA20BF10D804D904DF01002402050308044005020618080287
:400D00000A210C100E201040128015011604188419101A211C021F4021C9230824402541261028402D812E082F483108324135023656382039883C083D803E023F204484E7
:400D400047404F015408570179047A1080108101831089408A10917892C09320948C95079602978198869A409B409D029F01A014A280A408A54DA701AD40B020B140B410BF
:400D8000B601C0F5C26DC450CAF1CCFBCEFED0B0E002E208E404EE080244040105FE0608070109960B6811C51204133A1438157F18041DA31E021F5C20212208230124193A
:400DC0002620290E2A392BF02C212E10300332043440363937FF3E043F40580459045F018301850189108B208F02930895089B049D04A102A540A780A920AB10AD80AF406B
:400E0000B7FFBF40D602D731D804D904DB0CDC02DD20DF01000401020440060409880A440E200F4410011104128013101410150119021A262180264029122C102E022F1AA6
:400E4000300131083281358036163740392C3B103C223D803E083F405D1066406C046E086F4B760A7D487E108204860287448F0890449179924093209408960299109A4439
:400E80009B089C109D809E0A9F01A011A148A290A504A646AD80B340B601C0CCC27FC43FCAF5CCFBCEF6D620D810DE10E640E880EC60EE80128016803240330834023720B6
:400EC00038023B103E808001824088408E80C430CCF0CE70E6A008100F4030403208348037015C028B2098409F20A708AC02AF10C260CCF0D680EA10EE401208148053808C
:400F00005B045C016108934098109C80A608A708AF01B002C460D420D6C0D840EA401B04830893409810A708A801A908AB04B380C610E680EA808320012009200D010F0284
:400F4000232063088520880198409C80A720AC80B040C002C207C802D802E604E8018901910298409C81A120A301A724B720E204EE0808810F208314851098409C81A1202D
:400F8000A301A724C20E250288109810A304B340C8806308A304B102D8401F20340151105C0862026302644080088520860291209840A120A720AF01C601CC01D404D6036B
:400FC000D803B001B301E801EC04100D11011A051B011C0D00AB01EF0203100A0F010000000000000F010D010D010D006000000000808000000C0C00040000004000000086
:4010000000000000C00000000000000000F4F4001000E41A1A001000000000000030300020000000000100000000000000000000000000000000000000000000000000004F
:401040000000000000000000000000000000000000000000000000000000000000000000000000000000000000000000000000000000000000000000000000000000000070
:401080000000000000000000000000000000000000000000000000000000000000000000000000000000000000000000000000000000000000000000000000000000000030
:4010C00000000000000000000000000000000000000000000000000000000000000000000000000000000000000000000000000000000000000000000000000000000000F0
:4011000000000000000000000000000000000000000000000000000000000000000000000000000000000000000000000000000000000000000000000000000000000000AF
:0200000490006A
:0400000000004005B7
:0200000490105A
:04000000BC90ACAF55
:0200000490303A
:020000008A2252
:0200000490402A
:4000000000000000000000000000000000000000000000000000000000000000000000000000000000000000000000000000000000000000000000000000000000000000C0
:400040000000000000000000000000000000000000000000000000000000000000000000000000000000000000000000000000000000000000000000000000000000000080
:400080000000000000000000000000000000000000000000000000000000000000000000000000000000000000000000000000000000000000000000000000000000000040
:4000C0000000000000000000000000000000000000000000000000000000000000000000000000000000000000000000000000000000000000000000000000000000000000
:0200000490501A
:0C00000000012E16106900012E349A8BAE
:00000001FF