:400000000080002011000000D5220000D522000080B500AF024A034B1B68136002F086F9BC760040FA46004010B5054C237833B9044B13B10448AFF300800123237010BDA8
:400040009086FF1F00000000547F0000084B10B51BB108480849AFF300800848036803B910BD074B002BFBD0BDE81040184700BF00000000547F00009486FF1F0881FF1F81
:400080000000000080B582B000AF104B1B685B685A68013A5A605B68002B0BDA0B4B1A680A4B1B685B681046194606F015FF0346DBB206E0054B1B685A681368591C11601B
:4000C0001B78FB710837BD4680BD00BF8C86FF1F80B485B000AF78600023FB600023BB6018E0BB685B007A6813441B785BB2B3F1FF3F09D1BB685B007A6813445B785BB245
:40010000B3F1FF3F00D109E0FB680133FB60BB680133BB60BB68B3F5FA7FE2DBFB6818461437BD465DF8047B704700BF80B485B000AF786039600023FB6016E0FB685B00AA
:400140007A6813441B785BB2B3F1FF3F0AD0FB685B007A6813445B785BB2B3F1FF3F01D0002307E0FB680133FB60FA683B689A42E4DB012318461437BD465DF8047B704769
:4001800080B584B000AF78600023FB6029E0FB685B007A6813441B785BB2B3F1FF3F0DD1FB685B007A6813445B785BB2B3F1FF3F04D1FB68002B00DD17E019E0FB685B00CA
:4001C0007A6813441B7859B2FB685B007A6813445B785BB208481A4606F0ECFDFB680133FB60FB68B3F5FA7FD1DB044806F06CFE1037BD4680BD00BF587F0000647F0000F4
:4002000080B584B000AF78603E4806F05DFE0023FB606EE00023BB6062E0FB684C2202FB03F37A681344BA6853F82230042B53D801A252F823F000BF4D020000690200001C
:4002400085020000A1020000BD020000FB684C2202FB03F37A681344BA6853F822302A48194606F0A7FD38E0FB684C2202FB03F37A681344BA6853F822302448194606F0D9
:4002800099FD2AE0FB684C2202FB03F37A681344BA6853F822301E48194606F08BFD1CE0FB684C2202FB03F37A681344BA6853F822301848194606F07DFD0EE0FB684C22F9
:4002C00002FB03F37A681344BA6853F822301248194606F06FFD00E000BFBB680133BB60BB68122B99DD0A2006F07CFDFB680133FB60FB680E2B8DDD084806F0E5FD103711
:40030000BD4680BD7C7F0000A87F0000AC7F0000BC7F0000CC7F0000DC7F0000EC7F000080B487B000AFF860B9607A60BB685B785BB24C2202FB03F3FA681344BA681278B6
:4003400052B2042143F822100123FB7516E0FB7D5B00BA6813445B785BB24C2202FB03F3FA681344FA7D5200B9680A44127852B2032143F82210FB7D0133FB75FA7D7B684A
:40038000013B9A42E3DB7B6803F10043013B5B00BA6813445B785BB24C2202FB03F3FA681A447B6803F10043013B5B00B9680B441B785BB2042142F823101C37BD465DF83E
:4003C000047B704780B483B000AFB8803B795BB2002B03DB3B795BB2122B02DD4FF0FF3317E07B795BB2002B03DB7B795BB20E2B02DD4FF0FF330CE07B795AB23B7959B22B
:4004000007481346DB0013445B0013440B4450F8233018460C37BD465DF8047B704700BF5081FF1F80B483B000AFB8807B795AB23B7959B207481346DB0013445B001344D0
:400440000B44022240F823200C37BD465DF8047B704700BF5081FF1F80B58AB000AF78603960FF2387F82730002387F82630FF2387F825300023FB617868FFF729FEB86105
:4004800000233B628BE03B6A5B007A681A4407F1100312881A803B6A01335B007A681A4407F10C0312881A803A7C3B7B52B25BB29A420BD17A7C7B7B52B25BB29A4201DDF7
:4004C000032300E0012387F8253010E07A7C7B7B52B25BB29A420AD13A7C3B7B52B25BB29A4201DD022300E0002387F8253097F9252097F92630D21A324B1340002B03DAA8
:40050000013B63F0030301337B6197F82730DBB20133DBB287F827307B69002B00D13BE097F92730002B08D0FB695A1CFA611A463B68134497F827201A707B69B3F1FF3F72
:4005400002D07B69032B08D1FB695A1CFA611A463B681344FF221A7017E07B69012B03D07B6913F1030F08D1FB695A1CFA611A463B681344FE221A7007E0FB695A1CFA6182
:400580001A463B681344FD221A70002387F8273097F8253087F826303B6A01333B62BB695A1E3B6A9A423FF76EAFFB693A68134497F827200132D2B2D2B21A702837BD4646
:4005C00080BD00BF0300008080B487B000AFF860B9607A6000237B61BB68002B14BF01230023DBB23B613B695B007A6813441B785BB2B3F1FF3F09D13B695B007A681344BB
:400600005B785BB2B3F1FF3F00D113E0BA687B6913445B00FA68D1183B695B007A6813440A461B8813807B6901337B613B6901333B61D8E7BA687B6913445B00FA681344DB
:4006400006491A460B461B881380BA687B69134418461C37BD465DF8047B70471880000080B485B000AF78600023FB730023BB7318E00023BB730FE0FB7B4C2202FB03F32F
:400680007A681344BA7B53F82230002B01D101230CE0BB7B0133BB73BB7B122BECD9FB7B0133FB73FB7B0E2BE3D9002318461437BD465DF8047B704780B586B000AFF86003
:4006C000B9607A603B60386AFFF77CFE0346FB7597F8203059B297F821305AB2FB7D144806F068FBFB7D002B1ED1386AFFF79AFE3B685B007A6813441A4607F120031B8887
:400700001380BB681B785A1CD1B2BA6811701A464FF47A7303FB02F3FA681344184679684FF47A7206F033FB1837BD4680BD00BF1C80000080B5ADF5EA4D9AB002AF07F11B
:400740006003543B188007F16003583B198007F160035C3B1A6007F56B5303F12003303B1A4643F69823104600211A4606F01AFB07F16003483B1A4643F6982310460021E1
:400780001A4606F00FFB07F160035C3B18684FF0FF314FF47A7206F005FB002307F5EA4202F15F02137034E007F5EA4303F15F031A7807F56B5303F12003303B4FF47A7122
:4007C00001FB02F2134418464FF0FF314FF47A7206F0E8FA07F5EA4303F15F031A7807F16003483B4FF47A7101FB02F2134418464FF0FF314FF47A7206F0D4FA07F5EA4391
:4008000003F15F031B78013307F5EA4202F15F02137007F5EA4303F15F031B780E2BC3D9704806F051FB07F56B5303F12003303B07F16002543A12881A8007F16003543B79
:400840001868FFF7EFFD012307F5EA4202F15802136007F16003493B00221A70624806F033FB07F16003543B5B785AB207F16003543B1B7859B25D481346DB0013445B00D5
:4008800013440B44042240F8232007F16003493B00221A70564807F5EA4303F15803196806F088FA002307F5EA4202F15F02137071E107F5EA4303F15F031A7807F56B5318
:4008C00003F12003303B4FF47A7101FB02F2134418464FF4FA71FFF729FC0346002B40F04F8107F5EA4303F15F031B784148194606F060FA07F5EA4303F15F031A7807F50F
:400900006B5303F12003303B4FF47A7101FB02F21A4407F160035C3B1B6819464FF47A73084611461A4606F032FA07F160035C3B1868FFF725FC07F5EA4303F15F031A7836
:4009400007F56B5303F12003303B4FF47A7101FB02F2134418464FF0FF314FF47A7206F021FA07F5EA4303F158031B6803F10043013B5A0007F160035C3B1B68991807F1D3
:4009800060034C3B1A460B461B88138007F160034C3B1B785AB207F160034C3B5B785BB2154811461A4606F005FA07F160034C3B1A7807F16003583B1B7852B25BB29A4238
:4009C0001ED107F160034C3B5A7807F16003583B5B7852B25BB29A4212D1084806F074FA5FE100BF30800000548000005081FF1F6C800000748000007C80000090800000B1
:400A000007F160034C3B1B7807F5EA4202F14802137007F160034C3B5B78DBB2013BDBB2DBB207F5EA4202F14902137007F16001483907F16002493A07F160035C3B07F533
:400A4000EA4000F148000088ADF80000084611461A6807F5EA4303F158031B68FFF72CFE07F160034C3B1B7807F5EA4202F14C02137007F160034C3B5B78DBB20133DBB240
:400A8000DBB207F5EA4202F14D02137007F16001483907F16002493A07F160035C3B07F5EA4000F14C000088ADF80000084611461A6807F5EA4303F158031B68FFF7FCFD72
:400AC00007F160034C3B1B78DBB2013BDBB2DBB207F5EA4202F15002137007F160034C3B5B7807F5EA4202F15102137007F16001483907F16002493A07F160035C3B07F563
:400B0000EA4000F150000088ADF80000084611461A6807F5EA4303F158031B68FFF7CCFD07F160034C3B1B78DBB20133DBB2DBB207F5EA4202F15402137007F160034C3B16
:400B40005B7807F5EA4202F15502137007F16001483907F16002493A07F160035C3B07F5EA4000F154000088ADF80000084611461A6807F5EA4303F158031B68FFF79CFDBB
:400B800007F5EA4303F15F031B78013307F5EA4202F15F02137007F5EA4303F15F031B780E2B7FF686AE414806F08EF9002307F5EA4202F15F02137053E007F5EA4303F184
:400BC0005F031A7807F16003483B4FF47A7101FB02F213441846FFF7D3FA07F5EA4303F15F031A7807F56B5303F12003303B4FF47A7101FB02F2981807F5EA4303F15F03F3
:400C00001A7807F16003483B4FF47A7101FB02F2134401461A464FF47A73084611461A4606F0B5F807F5EA4303F15F031A7807F16003483B4FF47A7101FB02F2134418468E
:400C40004FF0FF314FF47A7206F0ACF807F5EA4303F15F031B78013307F5EA4202F15F02137007F5EA4303F15F031B780E2BA4D907F16003493B1B780D48194606F09AF881
:400C80000C48FFF7BDFAFFF7FDF907F5EA4303F158031B68013307F5EA4202F158021360F3E507F5EA476037BD4680BDA4800000BC8000005081FF1F80B5ADF5F24D94B0AB
:400CC00002AF07F148033C3B188007F14803403B196007F14803443B1A6007F57B5303F10803343B1A4643F69823104600211A4606F058F807F589634C3B1A4643F6982312
:400D0000104600211A4606F04DF807F14803343B1A464FF47A73104600211A4606F042F807F14803443B18684FF0FF314FF47A7206F038F807F14803343B18464FF0FF31D3
:400D40004FF47A7206F02EF8002307F5F24202F14702137034E007F5F24303F147031A7807F57B5303F10803343B4FF47A7101FB02F2134418464FF0FF314FF47A7206F062
:400D800011F807F5F24303F147031A7807F589634C3B4FF47A7101FB02F2134418464FF0FF314FF47A7205F0FDFF07F5F24303F147031B78013307F5F24202F14702137033
:400DC00007F5F24303F147031B780E2BC3D9744806F07AF807F57B5303F10803343B07F148023C3A12881A8007F148033C3B1868FFF718FB012307F5F24202F14002136095
:400E000007F14803353B00221A70664806F05CF807F148033C3B5B785AB207F148033C3B1B7859B260481346DB0013445B0013440B44042240F8232007F14803353B0022C0
:400E40001A705A4807F5F24303F14003196805F0B1FF002307F5F24202F14702137078E107F5F24303F147031A7807F57B5303F10803343B4FF47A7101FB02F21344184641
:400E80004FF4FA71FFF752F90346002B40F0568107F5F24303F147031B784548194605F089FF07F5F24303F147031A7807F57B5303F10803343B4FF47A7101FB02F21A44A8
:400EC00007F14803443B1B6819464FF47A73084611461A4605F05BFF07F14803443B1868FFF74EF907F5F24303F147031A7807F57B5303F10803343B4FF47A7101FB02F2F4
:400F0000134418464FF0FF314FF47A7205F04AFF07F5F24303F140031B6803F10043013B5A0007F14803443B1B68991807F14803383B1A460B461B88138007F14803383B1F
:400F40001B785AB207F14803383B5B785BB2194811461A4605F02EFF07F14803383B5B785BB24C2202FB03F207F14803403B1B681A4407F14803383B1B785BB252F823307A
:400F8000002B1BD10C4805F09FFF07F14803383B1B8807F5F24202F12C0213805FE100BF30800000548000005081FF1F6C800000748000007C8000009080000007F1480355
:400FC000383B1B7807F5F24202F13002137007F14803383B5B78DBB2013BDBB2DBB207F5F24202F13102137007F589614C3907F14802353A07F14803443B07F5F24000F1D1
:4010000030000088ADF80000084611461A6807F5F24303F140031B68FFF74EFB07F14803383B1B7807F5F24202F13402137007F14803383B5B78DBB20133DBB2DBB207F57D
:40104000F24202F13502137007F589614C3907F14802353A07F14803443B07F5F24000F134000088ADF80000084611461A6807F5F24303F140031B68FFF71EFB07F14803CD
:40108000383B1B78DBB2013BDBB2DBB207F5F24202F13802137007F14803383B5B7807F5F24202F13902137007F589614C3907F14802353A07F14803443B07F5F24000F100
:4010C00038000088ADF80000084611461A6807F5F24303F140031B68FFF7EEFA07F14803383B1B78DBB20133DBB2DBB207F5F24202F13C02137007F14803383B5B7807F50E
:40110000F24202F13D02137007F589614C3907F14802353A07F14803443B07F5F24000F13C000088ADF80000084611461A6807F5F24303F140031B68FFF7BEFA07F5F2436F
:4011400003F147031B78013307F5F24202F14702137007F5F24303F147031B780E2B7FF67FAE494805F0B0FE002307F5F24202F14702137053E007F5F24303F147031A7824
:4011800007F589634C3B4FF47A7101FB02F213441846FEF7F5FF07F5F24303F147031A7807F57B5303F10803343B4FF47A7101FB02F2981807F5F24303F147031A7807F500
:4011C00089634C3B4FF47A7101FB02F2134401461A464FF47A73084611461A4605F0D7FD07F5F24303F147031A7807F589634C3B4FF47A7101FB02F2134418464FF0FF31B0
:401200004FF47A7205F0CEFD07F5F24303F147031B78013307F5F24202F14702137007F5F24303F147031B780E2BA4D907F14803353B1B781548194605F0BCFD1448FEF7E1
:40124000DFFFFEF71FFF07F5F24303F140031B68013307F5F24202F140021360ECE5002307F5F24202F12C02127862F3070307F5F24202F12D02127862F30F23184607F59B
:40128000F2474837BD4680BDA4800000BC8000005081FF1F90B5ADF6EC4D00AF3B1D18803B4619600023C7F8E43C30E007F66C02D7F8E43C4C2101FB03F3D118D7F8E43C8A
:4012C0004C2202FB03F34D4A13441A464C23084611461A4605F05BFD07F57E72D7F8E43C4C2101FB03F3D118D7F8E43C4C2202FB03F3424A13441A464C23084611461A4654
:4013000005F045FDD7F8E43C0133C7F8E43CD7F8E43C0E2BCADD07F57D733A1D12881A8007F57D731868FFF77DF85AE007F108031A464FF47A73104600211A4605F032FD8F
:4013400007F57D7307F66C0107F108021868FFF7B3FC024607F57C731A8007F57D7307F57C7212881A800023C7F8E03C1BE0D7F8E03C4C2202FB03F3204A981807F57E72CE
:40138000D7F8E03C4C2101FB03F3134401461A464C23084611461A4605F0F9FCD7F8E03C0133C7F8E03CD7F8E03C0E2BDFDD07F108031846FEF78CFE044607F66C0207F120
:4013C0000803104619462246FEF7AAFF3B461868FEF77EFE01463B4607F108021868FFF7F3F807F66C031846FFF73AF90346002B9CD107F6EC47BD4690BD00BF5081FF1F88
:4014000080B500AF04F052F903461A46054B1A6004F0ECF903461A46034B1A60034B01221A6080BDEC86FF1FF086FF1FE886FF1F80B400AF034B01221A60BD465DF8047B4F
:40144000704700BFC086FF1F80B5ADF5986D00AF4FF4FA6003F0DEFD62B60020012101F07FFC03F0B7FE03F0D3FF00F0F1FC01F035FC01F055FB844801F062FB01F006FB1D
:4014800003F072FB01F018FB804803F073FF012004F0C4FB7E4A07F5976312881A807D4A07F2B44312881A8007F1CC031A464FF47A73104600211A4605F074FC07F1CC0390
:4014C00075491A460B461B8813803B1D1A46C823104600211A4605F065FC032387F8BB34012004F071F84FF4FA7003F093FD97F8BB34013B032B3BD801A252F823F000BF7B
:40150000111500002B1500004115000057150000624800F04BFD07F1CC03D7F8B804D7F8B4141A46FFF706F922E05D4800F03EFD07F1CC03D7F8B804194600F0DFFD17E01D
:40154000584800F033FD07F1CC03D7F8B8041946FFF7A0FE0CE03B1D04221A703B1DFE225A703B1D04229A703B1D0022DA7000BF07F1CC023B1D10461946FEF76DFF3B1D99
:40158000184600F01DFD002004F01EF84FF4FA7003F040FD00F050FC0023C7F8BC3453E03A1DD7F8BC3413441B785BB2142B00DD51E03A1DD7F8BC3413441B785BB213F110
:4015C000020F02D100F0FCFA28E03A1DD7F8BC3413441B785BB2B3F1FF3F02D100F0BAFA1CE03A1DD7F8BC3413441B785BB213F1030F02D100F0B2FB10E03A1DD7F8BC341E
:4016000013441B785BB2142B08DC3A1DD7F8BC3413441B785BB2184600F0B2F800F018FC3A1DD7F8BC3413441B785BB2184600F02BFD4FF47A7003F0EDFC00F0FDFBD7F844
:40164000BC340133C7F8BC343A1DD7F8BC3413441B78002BA4D1D7F8BC34023B3A1DD35C5BB20820194600F0E1FA012003F0ACFF00F0EEFB44F6206003F0CCFC0023184688
:4016800007F59867BD4680BD0114000031140000248100002881000018800000D4800000EC8000000881000080B582B000AF0346FB80FB88184601F005FA0346184601F023
:4016C0001FFA034618460837BD4680BD80B582B000AF00237B6015E07B689BB21BB21846FFF7E2FF3860234A7B6852F823203B689A4204DA1F497B683A6841F823207B6852
:4017000001337B607B68052BE6DD1B4B1B680133194A1360184B1B68C82B25D100237B6018E0144A7B6852F8233040F25D129342D4BF01230023DBB2D9B2104A7B68134432
:401740000A461A700B4A7B68002142F823107B6801337B607B68052BE3DD012004F09AFA054B00221A6002E0002004F093FA0837BD4680BDCC86FF1FE486FF1FC486FF1F0D
:4017800080B58CB000AF7860734800F00FFC4FF00003FB627A6813465B0013449B00083BBB6203F053FF03F0F1FF01F00DFA6B4B00221A606A4B00221A606A4B00221A60E0
:4017C000694B00221A60B2E0684B1B68002B04D0FFF77CFF654B00221A60654B1B68002B37D001F0FDF95D4B1A685D4B1B681046194600F039FB0346F86A194604F0B4FFEA
:401800000346FB62554B1968564B1A68594B1B785BB2084611461A46012300F08DFB504B1968514B1A68544B1B785BB2084611461A46002300F080FB4A4B1B68474A1360B1
:40184000494B1B68464A1360494B00221A6001F0BBF94A4800F0AAFB494B5B78002B31D0474B1B78002B14D1454B9B78002B10D0414B1B78DBB2013BDBB2DAB23E4B1A70C8
:401880003C4B1B78DBB20133DBB2DAB2394B1A702DE03B4B1B78002B29D0394B9B78002B25D1354B1B78DBB20133DBB2DAB2324B1A70304B1B78DBB2013BDBB2DAB22D4BC8
:4018C0001A7014E02E4B1B78002B06D12C4B9B78002B02D000F092F809E0294B1B78002B05D0274B9B78002B01D100F04BF8224B1B785BB2092B02DD1F4B09221A701D4B0F
:401900001B785BB2092B02DD1A4B09221A701A4B1B785BB2032B02DC174B04221A70154B1B785BB2032B02DC124B04221A70B86A04F0CEFF03461846F96A05F0D9F90346A1
:40194000002B7FF441AF03F097FE03F035FF01F047F93037BD4680BD2C810000F486FF1FF886FF1FEC86FF1FF086FF1FC086FF1FE886FF1FED85FF1FEC85FF1F408100007D
:40198000C486FF1F80B582B000AF01F029F903F08DFE03467B6003F029FF03463B60002003F0BCFC4FF4C87003F0CAFD08E0114B1B68002B04D0FFF789FE0E4B00221A60BD
:4019C0000D4B5B78002BF2D04FF4C87003F0A6FC7B689BB21BB2184603F07AFE3B689BB21BB2184603F014FF01F0EEF80837BD4680BD00BFC086FF1FC486FF1F80B582B090
:401A000000AF01F0EDF803F051FE03467B6003F0EDFE03463B604FF4C87003F07FFC002003F08EFD08E0114B1B68002B04D0FFF74DFE0E4B00221A600D4B5B78002BF2D05E
:401A40004FF4C87003F07CFD7B689BB21BB2184603F03EFE3B689BB21BB2184603F0D8FE01F0B2F80837BD4680BD00BFC086FF1FC486FF1F80B584B000AF78607B682E4A21
:401A800082FB03129210DB17D31A184604F020FF0346BB604FF00003FB6003F0D7FD03F075FE01F091F8254B00221A60244B00221A60244B00221A60234B00221A602AE0C4
:401AC000224B1B68002B04D0FFF700FE1F4B00221A601F4B1B68002B1DD001F081F8174B1A68174B1B681046194600F0BDF90346F868194604F038FE0346FB60114B1B68B5
:401B00000E4A1360104B1B680D4A1360104B00221A6001F059F8F868B96805F0CBF80346002BCDD103F0A8FD03F046FE01F058F81037BD4680BD00BF4FECC44EF486FF1F73
:401B4000F886FF1FEC86FF1FF086FF1FC086FF1FE886FF1F80B500AF08E0174B1B68002B04D0FFF7B3FD144B00221A60134BDB78002BF2D00020012100F002FA4FF4C8701D
:401B800003F0CCFB4FF4C87003F0DAFC3C20FFF771FF08E0084B1B68002B04D0FFF796FD054B00221A60054B5B78002BF2D00120012100F0E5F980BDC086FF1FC486FF1F09
:401BC00080B500AF08E0174B1B68002B04D0FFF77DFD144B00221A60134B5B79002BF2D00120002100F0CCF94FF4C87003F096FB4FF4C87003F0A4FC3C20FFF73BFF08E033
:401C0000084B1B68002B04D0FFF760FD054B00221A60054B5B78002BF2D00120012100F0AFF980BDC086FF1FC486FF1F80B584B000AF78600B46FB704FF00003FB6003F060
:401C400005FD03F0A3FD00F0BFFF3C4B00221A603B4B00221A603B4B00221A603A4B00221A6097F9033013F1020F08D0B3F1FF3F00D009E06FF0310000F0C8F804E06FF0CB
:401C8000310000F0ADF800BF44E0304B1B68002B04D0FFF71BFD2D4B00221A602C4B1B68002B37D000F09CFF244B1A68244B1B681046194600F0D8F80346F868194604F051
:401CC00053FD0346FB601D4B19681E4B1A68214B1B785BB2084611461A46012300F02CF9174B1968184B1A681B4B1B785BB2084611461A46002300F01FF9124B1B680F4A9B
:401D00001360114B1B680E4A1360114B00221A6000F05AFF786804F0DBFD03461846F96804F0E6FF0346002BAFD103F0A5FC03F043FD00F055FF1037BD4680BDF486FF1F9A
:401D4000F886FF1FEC86FF1FF086FF1FC086FF1FE886FF1FED85FF1FEC85FF1F80B500AF08200021FFF762FF08E01B4B1B68002B04D0FFF7ABFC184B00221A60174B5B796E
:401D8000002B07D1154BDB78002B03D1134B1B79002BEAD10120002100F0F2F84FF4C87003F0BCFA4FF4C87003F0CAFBB420FFF761FE08E0084B1B68002B04D0FFF786FCC5
:401DC000054B00221A60054B5B78002BF2D00120012100F0D5F880BDC086FF1FC486FF1F80B584B000AF786003F0B8FA03461A467B681344FB60FB6823EAE3739BB218469A
:401E000003F08CFA1037BD4680BD00BF80B584B000AF786003F0CCFB03461A467B681344FB60FB6823EAE3739BB2184603F088FB1037BD4680BD00BF80B500AF4FF49670A1
:401E400003F06CFA4FF4967003F07AFB80BD00BF80B500AF002003F061FA002003F070FB80BD00BF0000000080B584B000AF786039602D4B1A687B68D31A002BB8BF5B42FE
:401E8000184604F025FD03461846284904F028FE0346184604F0ACF902460B46104619461FA3D3E9002304F0F7F902460B461046194604F003FC0346FB601D4B1A683B68F7
:401EC000D31A002BB8BF5B42184604F001FD03461846164904F004FE0346184604F088F902460B46104619460DA3D3E9002304F0D3F902460B461046194604F0DFFB03464C
:401F0000BB60F868B96804F02FFC034618464FF0804104F0E5FD034618461037BD4680BDCE8C7E349C6B3440EC86FF1F00006443F086FF1FAFF3008080B586B000AFF86055
:401F4000B9607A603B60BA68FB68D31A002BB8BF5B427B617B69002B00D10EE07A687B69D31A3B613B68002B03D03869FFF738FF02E03869FFF74AFF00BF1837BD4680BDAA
:401F800080B582B000AF786039607B68002B0CBF01230023DBB2184603F05EFE3B68DBB2184603F03BFE0837BD4680BD80B483B000AF786000BF0C37BD465DF8047B704789
:401FC00080B58CB000AF78602948FFF7EFFF0023FB6243E0FB6A7A6813441B78002B03D1FB6A002B40DD3CE0FB6A7A6813441B785BB213F1020F0AD0B3F1FF3F03D013F112
:40200000030F08D00BE01B48FFF7D0FF19E01A48FFF7CCFF15E01948FFF7C8FF11E0FB6A7A6813441B785AB207F10C03104619460A2204F0AAFE07F10C031846FFF7B6FFB2
:4020400000BFFB6A01337A6813441B78002B02D00B48FFF7ABFFFB6A0133FB62FB6AC72BB8DD0848FFF7A2FF3037BD4680BD00BF687F000054810000588100005C810000AB
:40208000608100006481000080B58AB000AF0346FB7197F9073013F1020F0AD0B3F1FF3F03D013F1030F08D00BE01048FFF77EFF16E00F48FFF77AFF12E00E48FFF776FF09
:4020C0000EE097F9072007F10803104619460A2204F05BFE07F108031846FFF767FF00BF0548FFF763FF2837BD4680BD54810000588100005C8100006881000090B5ADF6EE
:402100007C0D00AF3B1D18803B46196007F6680300221A60043300221A60043300221A6004333B1D1A783B1D5B7887F8682887F869383B4618684FF0FF314FF47A7204F0C5
:4021400031FE07F57D731A4640F27443104600211A4604F027FE002387F877381AE097F8773807F57D724C2101FB03F3D11897F877384C2202FB03F3534A13441A464C23ED
:40218000084611461A4604F002FE97F87738013387F8773897F877380E2BE0D9002387F8773888E097F877385A1C97F87738474951F83330D8B297F877384449DB000B44F0
:4021C0005B68D9B2530007F67804234403F8100C530007F6780213440A4603F80F2C07F10C031A464FF47A73104600211A4604F0D9FD07F10C0336491A460B461B881380FB
:4022000007F10C0318464FF0FF314FF47A7204F0C9FD97F8772897F877380133520007F678010A445B0007F678010B4407F10C0432F8101C002261F30F0233F8101C0023AC
:4022400061F30F03104619462246FEF773FA002387F876381BE097F876384C2202FB03F3194A981897F8763807F57D724C2101FB03F3134401461A464C23084611461A4684
:4022800004F085FD97F87638013387F8763897F876380E2BDFD93B461868FDF719FF01463B4607F10C021868FEF78EF997F87738013387F8773897F87738042B7FF672AF62
:4022C00007F67C07BD4690BD5081FF1FC485FF1F1880000080B400AFFEE700BF80B584B000AF78600F4B1A687B6813441A460E4BD31A802B09DC0B4B1B68FB60094B1A6853
:402300007B681344074A136007E004F0FBFC02460C2313604FF0FF33FB60FB6818461037BD4680BDF085FF1F2088FF1F80B586B000AF224B7B61224B3B61204B7B6135E0AE
:402340003B691B68FB603B695B68BB603B699B683B6000237B600CE0FB681A68BB681A60BB680433BB60FB680433FB607B6804337B607A683B689A42EED13B69DB683B60AA
:4023800000237B6008E0BB6800221A60BB680433BB607B6804337B607A683B689A42F2D13B6910333B617B69013B7B617B69002BC6D104F0ADFCFFF747F8FEE7010000000D
:4023C0003C84000080B582B000AF184B184A1A60184A184B1B6843F40073136000237B600FE07B68032B04D8134A7B6852F8233000E0124B12497A6841F822307B68013390
:402400007B607B682F2BECD90E4B1B78DAB20E4B1A700E4B0A4A1A6000F084F902F0D0FB0B4B00221A600837BD4680BD0CED00E00004FA0514ED00E000000000D5220000EE
:402440000080FF1FBC7600400481FF1F08ED00E00081FF1F80B582B000AF78603960786800213A6804F09EFC0837BD4680BD00BF80B584B000AFF860B9607A60F868B9685B
:402480007A6804F084FC1037BD4680BD80B483B000AF0346FB71FEE780B487B000AF7860396000233B6100237B6127E07B699B007A6813441B68BB60BB68FB73BB6823F022
:4024C000FF03BB6014E03B695B003A6813441B781A46BB68134419463B695B003A6813445B780B703B6901333B61FB7B013BFB73FB7B002BE7D17B6901337B617B692B2BA6
:40250000D4D91C37BD465DF8047B704780B582B000AF3C4B04221A803B4B18221A703B4B0B221A803A4B1C221A703A4B38221A80394B18221A70394B81221A80384B18228D
:402540001A70384B00221A80374B1B221A70374B06221A70364B52221A70364B364A1278D2B21A70354B40F619121A80344B41F251221A800023FB7019237B6014E0FB78B7
:402580005B00DAB22F4B1B78DBB203F00103DBB21343DBB203F00303FB704FF4F07002F0FFFA7B68013B7B607B68002B02D0FB78032BE4D17B68002B02D10320FFF766FFB2
:4025C000214B4FF480721A801F4B07221A701F4B00221A701E4B48221A701B4B00221A701C4B00221A701C4B02221A701B4A1B4B1B78DBB243F01F03DBB213700837BD4644
:4026000080BD00BF80400040824000408440004086400040884000408A4000408C4000408E40004090400040924000400043004000420040A14600400F010049224200401B
:4026400020420040254200400440004006400040084000400940004001400040A243004080B582B000AF224B1B78FB71214B1B78BB71214B1B787B71204AFB7903F00703DD
:40268000DBB213701E4AFB791B09DBB21370194ABB7943F00303DBB21370174A7B7943F00303DBB21370174B80221A70164BF4221A70164B40221A70154B40221A70154BF4
:4026C0008F221A70144B20221A70144B80221A700A2002F0C1FC084A7B791370054ABB7913700F4B44221A700837BD4680BD00BFCF010049F8460040F94600406E5800409D
:402700006F5800400D5100401D510040095900400B590040285B00402B5B0040585B00407658004080B586B000AF72B6584B61221A70FFF7EBFE564B01221A70554A554B18
:402740001B78DBB243F00403DBB213700023FB7513E0FA7D13465B0013445B004E4A13443B613B691A683B699B889BB210461946FFF770FEFB7D0133FB75FB7D062BE8D928
:402780000023FB751CE0FA7D13469B0013445B00424A1344FB60FB681B68BB60FB685B687B60FB681A7A5B7A1B0213437B807B88B86879681A46FFF75BFEFB7D0133FB7524
:4027C000FB7D002BDFD04FF090403549FFF764FE34480421FFF73EFE334834490422FFF747FE334A324B1B78DBB243F00203DBB21370304A2F4B1B78DBB243F00203DBB23B
:4028000013702D4A2C4B1B78DBB243F04003DBB213702A4A294B1B78DBB243F01003DBB21370274827490822FFF722FE264827490822FFF71DFE264826490A22FFF718FED6
:40284000254826490822FFF713FE254825490A22FFF70EFE244825490822FFF709FE244B84221A70234B44221A70234A224B1B78DBB243F00803DBB21370FFF7F1FE1F48B0
:402880000D490E22FFF7F4FD1837BD4680BD00BF00480040E84600406C81000098810000B00000480076004008760040241000480350014013500140A0430040C2430040D9
:4028C00002510040EC0F0048C2510040F40F0048F0510040FC0F004812510040081000482051004010100048325100401C100048DB0C01405B14014022430040B04300408D
:4029000080B500AF022001214FF4804241F6FF7302F09EF803461A460A4B1A700C20012141F6FF7241F6FF7302F0C6F803461A46054B1A70054802F0F3F8002002F002F9A8
:4029400080BD00BF0087FF1F0187FF1F3114000080B582B000AF444B1B78184602F0A4F9424B1B78184602F09FF9414B1B78FF2B05D102F0A7FA03461A463D4B1A703C4BAA
:402980001A783B4B1B7810460C211A46062302F0C7FA374B1A78374B9BB2104645F6A2311A4602F0FDFA304B1A78314B1B781046194602F019FA304B1B78FF2B05D102F047
:4029C00081FA03461A462C4B1A702B4B1A782A4B1B7810460C211A46072302F0A1FA264B1978244B9AB2254B9BB2084611461A4602F0D6FA1D4B1A781F4B1B78104619461B
:402A000002F0F2F9184B1B781846012102F006F9164B1B781846012102F000F902F0C8F80346FB71164A164B1B78DBB243F02003DBB21370FB79184602F0BEF8114A114B14
:402A40001B78DBB243F00103DBB213700D4A0D4B1B78DBB243F00203DBB213700A4B01221A600837BD4680BD0087FF1F0187FF1FF485FF1F0487FF1FF585FF1F2887FF1F77
:402A80009B6500407C64004080E200E080B500AF074B1B68002B04D1FFF732FF044B01221A60FFF755FF01F08FFE024B1B7880BDFC86FF1F6E64004080B500AF01F032FF0B
:402AC00080BD00BF80B483B000AF0346FB80FB88C3F10503084A32F813309AB2074B1B889BB29BB2D31A9BB29BB21BB218460C37BD465DF8047B70472887FF1FD287FF1F60
:402B000080B582B000AF0346FB80B7F90630184601F058FF034618460837BD4680BD00BF80B500AF00F05CF8044800F029F8072000F038F800F048F880BD00BF652B0000C2
:402B400080B582B000AF786000F04AF8786800F017F8072000F026F800F036F80837BD4680BD00BF80B400AF044B1B780133DAB2024B1A70BD465DF8047B7047AC86FF1F8B
:402B800080B485B000AF7860054B1B68FB60FB685C337A681A601437BD465DF8047B704708ED00E080B483B000AF0346FB71054AFB795B01DBB213700C37BD465DF8047BE7
:402BC000704700BF07E400E080B400AF034B80221A60BD465DF8047B704700BF00E100E080B400AF034B80221A60BD465DF8047B704700BF80E100E080B500AF214A214BA3
:402C00001B78DBB203F00103DBB213701E4A1E4B1B78DBB223F00303DBB213701B4A1B4B1B78DBB223F03003DBB21370174A174B1B78DBB243F03003DBB21370134A134BFE
:402C40001B78DBB223F00F03DBB213700F4A0F4B1B78DBB243F00F03DBB213700C4A0C4B1B78DBB243F00103DBB2137040F6B73000F054F840F6B73000F062F8082000F0EB
:402C80003DF880BD184F00401A4F0040234F0040194F004080B400AF0D4A0D4B1B78DBB243F00403DBB213700A4A0A4B1B78DBB243F00403DBB21370074A074B1B78DBB226
:402CC00043F00103DBB21370BD465DF8047B7047A3430040B3430040184F004080B500AF054B1B78002B04D1FFF786FF024B01221A70FFF7CFFF80BD1087FF1F80B483B0A3
:402D000000AF0346FB71044AFB7913700C37BD465DF8047B704700BF1B4F004080B485B000AF0346FB80FB88FB81044AFB8913801437BD465DF8047B704700BF1C4F00402D
:402D400080B483B000AF0346FB80044AFB8813800C37BD465DF8047B704700BF1E4F004080B582B000AF03460A46FB711346BB71084B1B78002B04D100F00EF8054B0122E9
:402D80001A70FA79BB791046194600F0D5F80837BD4680BD1187FF1F80B582B000AF01F007FF0346FB71534A524B1B78DBB243F00103DBB21370504A4F4B1B78DBB243F051
:402DC0000103DBB213704D4B01221A704C4B02221A704C4A4B4B1B78DBB203F07F03DBB21370002002F038F9474A474B1B78DBB223F00603DBB21370444A444B1B78DBB275
:402E000023F02003DBB213703F4A3F4B1B78DBB243F00103DBB21370012002F01DF9282002F01AF93A4A3A4B1B78DBB203F07F03DBB21370364A364B1B78DBB223F0400337
:402E4000DBB21370304A304B1B78DBB243F00203DBB21370022002F0FFF82B4A2A4B1B78DBB243F00403DBB213702A4B00221A70294B00221A70FB79184601F09DFE1720B0
:402E8000072102F023F91720244902F0F7F81820072102F01BF91820214902F0EFF81520072102F013F915201E4902F0E7F80120072102F00BF901201B4902F0DFF80220FF
:402EC000072102F003F90220184902F0D7F80320072102F0FBF80320154902F0CFF80C20072102F0F3F80C20124902F0C7F80837BD4680BDA5430040B54300409D60004089
:402F000009600040106000409443004012600040F85100408460004085600040D1370000A1300000C5370000C13600001537000069370000DD37000080B582B000AF034672
:402F40000A46FB711346BB712E4AFB7913702E4B00221A702D4B00221A702D4B00221A702C4B00221A702C4B00221A702B4B00221A702B4B00221A702A4B4FF400021A6076
:402F8000284B4FF080721A60264B4FF400121A60244B02221A60234B04221A60214B08221A60BB79002B02D0012B09D011E01E4A1D4B1B78DBB223F00103DBB2137011E059
:402FC000194A194B1B78DBB243F00103DBB2137008E0154A144B1B78DBB243F00103DBB2137000BF114B03221A70114B80221A70012001F0D5FD0F4B04221A700837BD4614
:4030000080BD00BF3587FF1F3887FF1F5487FF1F5787FF1F4C87FF1F5687FF1F5987FF1F3487FF1F00E100E00960004028600040086000401260004080B400AF0F4B00223A
:403040001A700F4B00221A700E4B00221A700E4B00221A700D4B00221A700D4B00221A700C4B00221A700C4B03221A700B4B80221A70BD465DF8047B704700BF3887FF1FF9
:403080005487FF1F5787FF1F4C87FF1F5687FF1F5987FF1F3487FF1F286000400860004080B582B000AF374B1B78BB71BB7903F01003002B63D00123FB71BB795BB2002BFD
:4030C00013DABB7903F00F03012B02D00023FB711DE000F061F82C4B1B78DBB2DBB25BB2002B14DA0023FB7111E0BB7903F04003002B02D000F094F809E0BB7903F02003F7
:40310000002B02D000F0B2F801E00023FB71FB79002B34D01B4B1B78BB71BB795BB2002B2DDB1A4B1B78DAB2194B1B78DBB21343BB71184ABB791370164B1B78DBB2BA79F5
:403140009A421CD1104B1B78FB710E4B1B78DBB223F07F03BB71BB79002B0AD1094B0A4A1278D2B21A70074B1B78DBB203F00F03FB71054B1B78DBB2FA799A42E2D10837E4
:40318000BD4680BD286000405587FF1FCA87FF1F5887FF1F2960004080B582B000AF1D4B1B78FB711B4AFB7913701A4B1B78FB71FB795BB2002B03DA174AFB79137025E0B5
:4031C000022000F043FA154B1B78DBB203F06003202B08D0402B0BD0002B0ED100F004FB0346FB710CE002F061FE0346FB7107E001F0C0FA0346FB7102E00023FB7100BF2A
:40320000FB79002B02D1044B03221A700837BD4680BD00BF286000405587FF1F0060004080B500AF104B1B78DBB2062B19D801A252F823F063320000633200005132000050
:403240006332000057320000633200005D32000000F0FAF806E000F0A9F903E000F0D2F900E000BF80BD00BF3887FF1F80B500AF124B1B78DBB2062B1DD801A252F823F015
:40328000B7320000B73200009D320000B7320000A3320000B7320000A932000000F0DAF80AE000F029F907E0032000F0CFF9044B03221A7000E000BF80BD00BF3887FF1FF5
:4032C0005587FF1F80B483B000AF0023FB71294B1B78DBB29AB2284B1B889BB213449AB2254B1A8015E02549FB79254A52681278D2B2CA54224B5B680133214A5360FB791D
:403300000133FB711E4B1B889BB2013B9AB21C4B1A801B4B1B889BB2002B02D0FB79072BE1D9144B1B78DBB2082B02D0FB79002B0FD0144B1B78DBB283F07F03DB43DAB238
:40334000104B1A70104B0F221A70104B02221A7005E00D4B02221A700C4B02221A700C4AFB791370034AFB7913700C37BD465DF8047B70473487FF1F3687FF1F00600040A3
:403380004087FF1FCA87FF1F5587FF1F3887FF1F5887FF1F80B582B000AF164B1B889BB2002B02D100F02EF81EE0134B02221A70124B00221A7000F069F9114BDB79DBB2C8
:4033C0009BB21B029AB20E4B9B79DBB29BB21343FB80084B1B889BB2FA889A4202D2054AFB881380FFF76EFF012318460837BD4680BD00BF4087FF1F3887FF1FCA87FF1FD1
:403400000060004080B400AF0A4B02221A700A4B80221A70094B0F221A70094B00221A70084B00221A7001231846BD465DF8047B704700BF3887FF1FCA87FF1F5587FF1F62
:403440003487FF1F5887FF1F80B500AFFFF73AFF80BD00BF80B500AF0A4B1B78DBB29AB2094B1B889BB213449AB2074B1A80074B00221A70012000F0E9F8054B03221A7000
:4034800080BD00BF3487FF1F3687FF1F3887FF1F5587FF1F80B582B000AF124B04221A70114B80221A7000F0F1F8104BDB79DBB29BB21B029AB20D4B9B79DBB29BB2134373
:4034C000FB800B4B1B889BB2FA889A4202D2084AFB881380074B0B221A70012318460837BD4680BD3887FF1FCA87FF1F006000404087FF1F5587FF1F80B483B000AF002363
:40350000BB71234B1B78DBB203F00F03DBB2023BFB71FB799AB21F4B1B889BB213449AB21C4B1A8018E01C4B5B681C49BA798A5CD2B21A70184B5B680133174A5360BB7988
:403540000133BB71FB79013BFB71134B1B889BB2013B9AB2104B1A800F4B1B889BB2002B02D0FB79002BDED10D4AFB7913700D4B1B78DBB283F07F03DB43DAB2094B1A702C
:40358000094B0B221A700C37BD465DF8047B7047296000403687FF1F4087FF1F006000405887FF1FCA87FF1F5587FF1F80B500AF044B00221A70012000F048F8024B0322FE
:4035C0001A7080BD3887FF1F5587FF1F80B400AF084B06221A70084B06221A70074B80221A70074B00221A7001231846BD465DF8047B70473887FF1F5587FF1FCA87FF1F6E
:403600005887FF1F80B500AF0C4B1B78DBB2002B0AD00B4A094B1B78DBB263F07F03DBB21370064B00221A70064B00221A70012000F00CF8044B03221A7080BD5687FF1F3A
:40364000086000403887FF1F5587FF1F80B483B000AF0346FB710B4B9B68002B0CD0094B9B68FA791A70074B9B68074A128892B25A80044B00229A600C37BD465DF8047B69
:40368000704700BF4087FF1F3687FF1F80B400AF094B00221A80094B9B68002B07D0074B9B6800221A70054B9B6800225A80BD465DF8047B704700BF3687FF1F4087FF1F2B
:4036C00080B400AF104A104B1B78DBB223F00103DBB213700D4B9B7C0D4B1B7BDBB203F00303012B08D00A4BDB7BDBB283F07F03DB43DAB2064BDA73054B01225A73BD464C
:403700005DF8047B704700BF0B600040FC5F00405C87FF1F80B400AF104A104B1B78DBB223F00203DBB213700D4B93F822300D4B1B7EDBB203F00303012B08D0094BDB7EBB
:40374000DBB283F07F03DB43DAB2064BDA76054B01225A76BD465DF8047B70470B600040FC5F00405C87FF1F80B400AF124A124B1B78DBB223F00403DBB213700F4B93F899
:4037800032300F4B93F82430DBB203F00303012B0AD00B4B93F82730DBB283F07F03DB43DAB2074B83F82720054B012283F82520BD465DF8047B70470B600040FC5F004063
:4037C0005C87FF1F80B400AFBD465DF8047B704780B500AFFFF730FC80BD00BF80B500AF01F0CEF980BD00BF80B586B000AF0023FB759D4B1B78FB7100233B619B4B002262
:403800001A80FB795BB2002B80F20481964B5B78DBB20A2B00F2FC8001A252F823F000BF69390000113A0000113A0000113A0000113A0000113A00004D380000113A0000BF
:40384000DB390000113A0000F1390000864BDB78DBB2012B0ED100F017FEB860BB685B68824A5360814B12221A80FFF793FD0346FB7578E07C4BDB78DBB2022B24D17A4BC2
:403880009B78DBB2184600F0D5FDB860BB68002B69D0BB685B68754A5360744B5B6803331B78DBB29BB21B029AB2704B5B6802331B78DBB29BB213439AB26C4B1A80FFF7BA
:4038C00069FD0346FB75A4E0674BDB78DBB2032B44D10023FB73664B3B6109E03B691B78BB71BB793A6913443B61FB7B0133FB735D4B9B78DBB2FA7B9A4204D23B691B789E
:40390000DBB2002BEAD1584B9B78DBB2EE2B01D1584B3B61544B9B78DBB2002B0BD0524B9B78DAB2544B1B7C9A4204D1534800F0A1F9524B3B613B691B78DBB2002B12D010
:403940003B691B78DBB29AB2484B1A80474A3B695360FFF71FFD0346FB755AE002F0A6FA0346FB7555E054E0FB7903F00303002B1FD0022B00D02FE03C4B02221A803A4B0C
:403980001B79DBB203F07F023D4913465B0013449B000B449B78DAB23A4B1A70394B00225A70324B374A5A60FFF7F4FC0346FB7512E02E4B02221A80334B1B78DAB2314B40
:4039C0001A70304B00225A70284B2E4A5A60FFF7E1FC0346FB7500BF1BE0244B01221A80224B2A4A5A60FFF7D5FC0346FB7510E01E4B01221A801C4B1B79DBB21A46244B37
:403A000013441A4A5360FFF7C5FC0346FB7500E000BF19E1144B5B78DBB2013B0A2B00F2128101A252F823F0333B0000473C0000BD3B0000473C0000553A0000473C0000DC
:403A4000473C0000473C0000993A0000473C0000EF3A0000044B9B78DAB20E4B1A70FFF7B5FD0346FB75EFE0006000404087FF1F1082000018830000B8810000F487FF1F3C
:403A80005C87FF1F1487FF1F5987FF1F5787FF1FC887FF1F5687FF1F6E4B9B787B717B79002B06D07B79013BDBB2184600F0C2FCB8607B79002B02D0BB68002B02D17B7956
:403AC000002B13D1644B1B78DBB27A799A4208D0614A7B791370614B01221A70012000F0C1F9FFF773FD0346FB75ADE0ACE000F009FE0346002B1BD0564B1B793B71554BEC
:403B00001B79DAB2564B1A703B79564AD35CDAB23B795549CB5CDBB29A4204D04F4B01221A7000F069FBFFF751FD0346FB758BE08AE0FB7903F00303012B22D0012B0DD371
:403B4000022B00D039E0434B9B78DBB2002B04D100F040FD0346FB752FE02EE03D4B9B78DBB2012B0CD1414B1B78DBB223F00203DAB23E4B1A70FFF729FD0346FB751CE099
:403B80001BE0344B1B79DBB2012B15D8314B9B78DBB2DB43DBB22F4A1279D2B211461046334A125CD2B21340DAB2314B5A54FFF70DFD0346FB75FFE700BF45E0FB7903F0F3
:403BC0000303012B22D0012B0DD3022B00D039E0204B9B78DBB2002B04D100F08DFC0346FB752FE02EE01B4B9B78DBB2012B0CD11E4B1B78DBB243F00203DAB21B4B1A70D9
:403C0000FFF7E4FC0346FB751CE01BE0114B1B79DBB2012B15D80F4B9B78DBB2DB43DBB20C4A1279D2B211461046114A125CD2B21340DAB20E4B5A54FFF7C8FC0346FB750B
:403C4000FFE700BF00E000BFFB7D18461837BD4680BD00BF006000405787FF1F5487FF1F4C87FF1F3C87FF1FC887FF1F5987FF1FCC87FF1FB0B58AB000AF7860314B07F1FF
:403C800014041D460FCD0FC42B682370002387F826307B68002B52D07B6822221A707B68013303221A7007F10C03184601F030FA022387F827303EE097F827307A6813445D
:403CC00097F8262007F128010A4412F81C2C1209D2B207F128010A4412F8142C1A7097F8273001337A68134400221A7097F8273002337A68134497F8262007F128010A44B5
:403D000012F81C2C02F00F0207F128010A4412F8142C1A7097F8273003337A68134400221A7097F82630013387F8263097F82730043387F8273097F82730212BBCD92837E3
:403D4000BD46B0BDA481000090B482B000AF0123FB7174E03F4AFB791B0113440C221A70FA793D4913465B0013449B000B445B79DBB2002B1AD0FA79374913465B0013441B
:403D80009B000B441B79DBB2DBB25BB2002B06DA324AFB791B0113440C229A700CE02F4AFB791B01134408229A7005E02B4AFB791B01134480229A702648F979FA79264C86
:403DC00013465B0013449B002344DB889BB2DAB20B0103449A711F48F979FA791E4C13465B0013449B002344DB889BB21B0A9BB2DAB20B010344DA711648F979FA79164C68
:403E000013465B0013449B002344DB889BB2DAB20B0103441A710F48F979FA790E4C13465B0013449B002344DB889BB21B0A9BB2DAB20B0103445A71FB790133FB71FB7964
:403E4000082B87D9064BFF221A700837BD4690BC704700BF706000405C87FF1FFC5F00400A60004080B58AB000AF0346FB7100237B84002387F827304CE097F82720C4495C
:403E800013465B0013449B000B4400221A7097F82720BF4913465B0013449B000B4400229A7097F82720BA4913465B0013449B000B440022DA7097F82720B54913465B00A0
:403EC00013449B000B44083300221A8097F82720AF4913465B0013449B000B44083300229A7097F82720AA4913465B0013449B000B4400225A7097F82720A54913465B003E
:403F000013449B000B4400225A7197F82730013387F8273097F82730082BAED9FB79002B16D0002387F825300EE097F82530994A0021D15497F82530974A0021D15497F8B2
:403F40002530013387F8253097F82530012BECD9924B1B78DBB2002B00F049810023FB768E4B1B78DBB2013BDBB2184600F062FA78617B695B683B613B6907331B7803F0AD
:403F80004003002B08D0864B1B78DBB243F00103DAB2834B1A7007E0814B1B78DBB223F00103DAB27E4B1A707B6908337B617B691B7887F82730012387F82530B3E07B692F
:403FC0005B68FB61002387F82630A0E097F82520FB699B7803F07F039A4240F0908097F825206B4913465B0013449B000B4408331B889AB2FB699B889A420CD297F8252092
:40400000FB699888624913465B0013449B000B44083302461A80FB691B781A465D4B9B5CDAB2FB695B789A4269D197F82520FB699878574913465B0013449B000B4402464B
:404040001A7197F82520FB69D878514913465B0013449B000B4402461A70FB69DB7803F00303FB73FB699B78DBB25BB2002B1ADA97F82520FB7B012B01D1072000E00D2002
:40408000434913465B0013449B000B4402465A7197F825203E4913465B0013449B000B4401225A7019E097F82520FB7B012B01D1052000E00920364913465B0013449B009B
:4040C0000B4402465A7197F82520314913465B0013449B000B4400225A70FB699B790A2B03D0FB699B79022B09D197F82520FB7EF86911461A4601F08FFE0346FB76FB692F
:404100000833FB6197F82630013387F8263097F8262097F827309A42FFF458AF97F82530013387F8253097F82530082B7FF647AF7B695B68FB61002387F8253016E0FB69A7
:404140009B7803F07F02FB691878114913465B0013449B000B44083302469A70FB690833FB6197F82530013387F8253097F8252097F827309A42E2D300F098F90246094B99
:404180001A6000237B84012387F8273029E000BF5C87FF1FC887FF1F3C87FF1F5787FF1F5987FF1F5087FF1F97F82720114913465B0013449B000B447A8CDA8097F8272008
:4041C0000C4913465B0013449B000B4408331B889AB27B8C13447B8497F82730013387F8273097F82730082BDED9FFF7ADFD2837BD4680BD5C87FF1F90B585B000AF874BF3
:404200001B78DBB2002B00F00681844B1B78DBB2013BDBB2184600F00DF978607B6808337B607B681B78FB707B685B68BB607C4B1B78BB700023FB73E8E0BB681B78BA7877
:404240009A4240F0DD80BB78764AD35CDAB2BB685B789A4240F0D480BB689B7803F07F037B70BB68DB7803F003033B707A786E4913465B0013449B000B440022DA707A7825
:40428000BB689878684913465B0013449B000B4402461A717A78BB68D878634913465B0013449B000B4402461A707A78BB6898885D4913465B0013449B000B440833024627
:4042C0001A80BB689B78DBB25BB2002B18DA7A783B78012B01D1072000E00D20524913465B0013449B000B4402465A717A784E4913465B0013449B000B4401225A7017E05B
:404300007A783B78012B01D1052000E00920464913465B0013449B000B4402465A717A78414913465B0013449B000B4400225A703E4A7B781B01134401229A703B48797829
:404340007A78394C13465B0013449B00234408331B889BB21B0A9BB2DAB20B0103441A70324879787A78304C13465B0013449B00234408331B889BB2DAB20B0103445A70F9
:404380002B4879787A78284C13465B0013449B002344DB889BB2DAB20B0103449A71244879787A78204C13465B0013449B002344DB889BB21B0A9BB2DAB20B010344DA7178
:4043C0001B4879787A78184C13465B0013449B002344DB889BB2DAB20B0103441A71144879787A78104C13465B0013449B002344DB889BB21B0A9BB2DAB20B0103445A7178
:40440000BB680833BB60FB7B0133FB73FA7BFB789A42FFF412AF1437BD4690BD5787FF1F4C87FF1FC887FF1F5C87FF1FFC5F00407060004080B485B000AF0346FB71104BAA
:404440001B78DBB20F4ADB0013445B68FB60FB681033FB60FB681B78FA799A4202D30023FB6005E0FB79DB00FA6813445B68FB60FB6818461437BD465DF8047B704700BF76
:404480003587FF1F1083000080B400AF054B1B78DBB2054ADB0013445B681846BD465DF8047B70473587FF1F1083000080B584B000AF104B1B78DBB2013BDBB21846FFF7EF
:4044C000B9FFB860BB68002B0DD0BB685B681B79FB71FB790233DB00BA681344BB60BB685B68FB6001E00023FB60FB6818461037BD4680BD5787FF1F80B582B000AF0023A6
:40450000FB71314B1B79DBB203F07F03BB71BB79002B53D0BB79082B50D8BA79B9792B480B465B000B449B0003449B78DBB243F00103D8B2254913465B0013449B000B4447
:4045400002469A70BA79214913465B0013449B000B440022DA70BA79B9791C480B465B000B449B0003445B78DBB243F00203D8B2164913465B0013449B000B4402465A70BD
:40458000BA79124913465B0013449B000B441B79DBB2DBB25BB2002B06DA0D4ABB791B0113448D229A7005E0094ABB791B01134489229A70FFF70AF80346FB71FB791846E8
:4045C0000837BD4680BD00BF006000405C87FF1FFC5F004080B582B000AF0023FB71464B1B79DBB203F07F03BB71BB79002B7DD0BB79082B7AD8BA79B97940480B465B004B
:404600000B449B0003449B78DBB223F00103D8B23A4913465B0013449B000B4402469A70BA79364913465B0013449B000B440022DA70334ABB791B0113447F221A70BA79A9
:40464000B9792E480B465B000B449B0003445B78DBB223F00203D8B2284913465B0013449B000B4402465A70BA79244913465B0013449B000B441B79DBB2DBB25BB2002BC0
:4046800018DABA791D4913465B0013449B000B445B78DBB2012B06D1194ABB791B0113440C229A701EE0164ABB791B0113440D229A7017E0BA79114913465B0013449B006D
:4046C0000B445B78DBB2012B06D10D4ABB791B01134408229A7005E0094ABB791B01134409229A70FEF772FF0346FB71FB7918460837BD4680BD00BF006000405C87FF1FF6
:40470000FC5F004080B584B000AF0023FB73154B1B79BB73144B1B78DBB2013BDBB21846FFF788FEB860BB685B681B79FB71BA7BFB799A4202D9BB7B022B0ED8BB7BBA7BDF
:404740000A498A5CD1B20A4AD154BB7B054A9278D1B2064AD1540123FB73FB7B18461037BD4680BD006000405787FF1FC887FF1F3C87FF1F80B582B000AF0023FB710F4BA7
:404780001B78DBB2DBB25BB2002B12DA0B4B5B78DBB2012B00D00CE0094B0A4A5A60094B1B789AB2064B1A80FEF7F4FD0346FB7100BFFB7918460837BD4680BD00600040BF
:4047C0004087FF1F2C83000080B500AF054B1B78002B04D100F008F8024B01221A7000F019F880BD1887FF1F80B500AF074A074B1B78DBB243F00603DBB213700C2000F06A
:4048000069F8034B00221A8080BD00BF09590040D887FF1F80B582B000AF00F0C9F90346FB71244A234B1B78DBB243F00203DBB21370214A204B1B78DBB243F00203DBB276
:4048400013701E4B1B78BB71BB7943F00203BB71BB7943F00103BB71184ABB791370184B18221A70174A174B1B78DBB243F04003DBB21370134A134B1B78DBB223F00303C1
:40488000DBB21370104BC8221A70104B02221A700F4A0F4B1B78DBB243F00803DBB213700A2000F0D9FBFB79184600F085F90837BD4680BDAB430040BB4300400B59004032
:4048C0000E5900400D59004008590040164600402F5B004080B584B000AF0346FB71FB790A2B07D00C2B02D0082B06D008E0C223FB730BE08223FB7308E04223FB7305E02C
:40490000C223FB73002000F079FB00BF044AFB7B1370FB79184600F015F81037BD4680BD0A59004080B400AF054A054B1B78DBB243F00103DBB21370BD465DF8047B70472A
:404940000859004080B584B000AF0346FB71FB790A2B08D00C2B02D0082B08D00BE04FF48053FB600DE04FF48063FB6009E04FF48073FB6005E00023FB60002000F03EFB44
:4049800000BF0C4B00221A80FB6842F2107202FB03F303F6C413084A82FB0312D212DB17D31A064A1360064B00221A801037BD4680BD00BFD087FF1FAD8BDB68D487FF1F23
:4049C000D287FF1F80B485B000AF0346FB801D4B1B889BB2002B09D01A4B1B889BB21AB213469B0013445B00FB6002E0164B1B68FB60164B1B889BB2FA889BB2D31A9BB26B
:404A0000FB80B7F9063042F2107202FB03F2B7F90630002B04DDFB68D90F0B445B1004E0FB68D90F0B445B105B421A44FB6892FBF3F37B817B891BB218461437BD465DF8EE
:404A4000047B7047D087FF1FD487FF1FD887FF1F90B585B002AF0446084611461A462346FB710346BB710B46BB8013467B80114B01221A700F4B1878F979BA7900230093A3
:404A800000230193012300F0CDF90A4B1978BA887B88084611461A4600F068F9054B1B781846022100F032F9024B1B7818460C37BD4690BDF685FF1F90B585B002AF044686
:404AC000084611461A462346FB710346BB710B46BB8013467B80114B00221A700F4B1878F979BA790023009300230193002300F099F90A4B1978BA887B88084611461A46AE
:404B000000F034F9054B1B781846022100F0FEF8024B1B7818460C37BD4690BDF785FF1F80B485B000AF7860054B1B68FB60FB6840337A681A601437BD465DF8047B70477A
:404B400008ED00E080B483B000AF0346FB71054AFB795B01DBB213700C37BD465DF8047B704700BF00E400E080B400AF034B01221A60BD465DF8047B704700BF00E100E036
:404B800080B400AF054B1B78DBB203F040039B09DBB21846BD465DF8047B70478F4500400230800803D000BF01380046FCD17047EFF3108072B6704780F31088704700BF1A
:404BC00080B483B000AF134B7F221A70124B80221A707F23FB710CE0FB79DB0003F1804303F5F043FA79013AD2B21A70FB79013BFB71FB79002BEFD1FB79DB0003F1804325
:404C000003F5F04300221A700C37BD465DF8047B704700BFF985FF1FF885FF1F80B485B000AF03460A46FB711346BB710123FB60FB79172B2FD8BB79002B0ED0FB791A012C
:404C4000184B1344FA791101164A0A441278D2B242F02002D2B21A700DE0FB791A01114B1344FA7911010F4A0A441278D2B222F02002D2B21A70FB791A010A4B1344FA797E
:404C80001101084A0A441278D2B242F00102D2B21A700023FB60FB6818461437BD465DF8047B70471070004080B485B000AF0346FB710123FB60FB79172B1DD8FB791A0193
:404CC000114B1344FA7911010F4A0A441279D2B242F00402D2B21A71FB791A010A4B1344FA791101084A0A441278D2B242F00102D2B21A700023FB60FB6818461437BD4641
:404D00005DF8047B704700BF1070004080B485B000AF03460A46FB711346BB710123FB60FB79172B18D8FB791A010F4B13441B78DBB223F00E03FB72FB791A010A4B134476
:404D4000BA7902F00702D2B25200D1B2FA7A0A43D2B21A700023FB60FB6818461437BD465DF8047B704700BF1070004080B485B000AF0346FB710B46BB8013467B80012375
:404D8000FB60BB8841F6FF72934202D14FF40053BB807B8841F6FF72934202D14FF400537B80FB79172B17D8FB79DB0003F1804303F5EC430433BB60BB68BA881A80FB79B9
:404DC000DB0003F1804303F5EC430633BB60BB687A881A800023FB60FB6818461437BD465DF8047B704700BF80B485B000AF03460A46FB711346BB710123FB60FB79172B39
:404E000007D8FB791A01064B1344BA795A720023FB60FB6818461437BD465DF8047B70471070004090B484B000AF0446084611461A462346FB710346BB710B467B7113462F
:404E40003B710123FB60FB79172B34D8FB79DB0003F1804303F5EC43BA7902F07F02D1B27A79D201D2B20A43D2B21A70FB79DB0003F1804303F5EC433A7E1201D1B23A791C
:404E800002F00F02D2B20A43D2B25A70FB79DB0003F1804303F5EC433A7F02F00F02D2B29A70FB79DB0003F1804303F5EC430022DA700023FB60FB6818461037BD4690BCEB
:404EC000704700BF80B582B000AFFF23FB71FFF76FFE0346BB71104B1B78182B12D90F4B1B78FB710C4B1B78013BDAB20A4B1A70FB79DB0003F1804303F5F0431B78DAB26A
:404F0000064B1A70BB791846FFF756FEFB7918460837BD4680BD00BFF885FF1FF985FF1F90B484B000AF0446084611461A462346FB710346BB800B46BB711346FB7001233F
:404F4000FB60FB795BB2002B23DBBB8823F47F6323F00F039BB2002B1BD1FB79DB0003F1804303F5F043BB60BB68BA881A80FB79DB0003F1804303F5F043BA799A70FB793A
:404F8000DB0003F1804303F5F043FA78DA700023FB60FB6818461037BD4690BC704700BF80B485B000AF0346FB710B46BB8013467B800123FB60FB795BB2002B17DBFB79EF
:404FC000DB0003F1804303F5F0430433BB60BB68BA881A80FB79DB0003F1804303F5F0430633BB60BB687A881A800023FB60FB6818461437BD465DF8047B704780B483B0E0
:4050000000AF0346FB7101BE0C37BD465DF8047B704700BF80B582B000AF786008E00C4B1B681846FFF7BCFD7B68A3F500437B607B68B3F5004FF2D8064B1B687A6802FB10
:4050400003F31846FFF7ACFD0837BD4680BD00BF0C86FF1F0486FF1F80B582B000AF0346FB80FB88044A127802FB03F31846FFF797FD0837BD4680BD0886FF1F80B584B003
:4050800000AF03463960FB710F4B1B68FB60FB791F2B02D90020FFF7B1FFFB7903F01F0310339B00FA6813441B68BB60FB7903F01F0310339B00FA6813443A681A60BB683F
:4050C00018461037BD4680BD08ED00E080B582B000AF03460A46FB711346BB71BB79072B02D90020FFF78AFFFB791F2B02D90020FFF784FFFB7903F01F0303F1604303F52C
:405100006443BA795201D2B21A700837BD4680BD80B483B000AF7860264B1B78DBB21A467B681A60244B1B78DBB21B027A6812681A437B681A60214B1B78DBB21B047A682A
:4051400012681A437B681A601D4B1B78DBB21B067A6812681A437B681A607B680433194A1278D2B21A60184B1B78DBB21A027B6804337968043109680A431A60134B1B783F
:40518000DBB21A047B6804337968043109680A431A600F4B1B78DBB21A067B6804337968043109680A431A600C37BD465DF8047B704700BF0301004904010049EC4600403D
:4051C000020100490101004900010049050100490601004980B500AF054B1B78002B04D100F008F8024B01221A7000F063F880BD1987FF1F80B582B000AF294A284B1B78A9
:40520000DBB243F00203DBB21370264B1B78DBB223F07003FB71234AFB7943F01003DBB21370214A204B1B78DBB223F03003DBB213701D4A1C4B1B78DBB243F03003DBB2B2
:405240001370194A184B1B78DBB223F00F03DBB21370154A144B1B78DBB243F00F03DBB2137040F2E73000F049F84FF4FA7000F055F8002000F062F80C4A0C4B1B78DBB2C2
:4052800043F00103DBB21370094A094B1B78DBB243F00103DBB213700837BD4680BD00BF004F0040024F00400B4F0040A3430040014F004080B400AF0D4A0D4B1B78DBB239
:4052C00043F00103DBB213700A4A0A4B1B78DBB243F00103DBB21370074A074B1B78DBB243F00103DBB21370BD465DF8047B7047A3430040B3430040004F004080B483B06D
:4053000000AF0346FB80044AFB8813800C37BD465DF8047B704700BF044F004080B483B000AF0346FB80044AFB8813800C37BD465DF8047B704700BF064F004080B483B0A9
:4053400000AF0346FB71044AFB7913700C37BD465DF8047B704700BF034F004080B400AF034B1B889BB21846BD465DF8047B7047064F004080B582B000AF786000F03CF8AE
:40538000786800F009F8072000F018F800F028F80837BD4680BD00BF80B485B000AF7860054B1B68FB60FB6860337A681A601437BD465DF8047B704708ED00E080B483B022
:4053C00000AF0346FB71054AFB795B01DBB213700C37BD465DF8047B704700BF08E400E080B400AF034B4FF480721A60BD465DF8047B704700E100E080B400AF034B4FF41B
:4054000080721A60BD465DF8047B704780E100E080B500AF054B1B78002B04D100F008F8024B01221A7000F04DF880BD1A87FF1F80B582B000AF204B1B78DBB223F03F0359
:40544000FB711D4AFB7943F00903DBB213701B4A1A4B1B78DBB243F00103DBB21370184A174B1B78DBB243F00103DBB2137040F2E73000F037F840F2E73000F051F84FF40D
:40548000FA7000F05DF8002000F06AF8FFF790FB0346BB710A4A0A4B1B78DBB243F01003DBB21370BB791846FFF786FB00F02AF80837BD4680BD00BF706400409264004013
:4054C0009364004080B400AF054A054B1B78DBB263F07F03DBB21370BD465DF8047B70477064004080B483B000AF0346FB80044AFB8813800C37BD465DF8047B704700BF7E
:405500000468004080B500AF01E000F045F800F037F8034603F01003002BF6D180BD00BF80B483B000AF0346FB80044AFB8813800C37BD465DF8047B704700BF8468004077
:4055400080B483B000AF0346FB80044AFB8813800C37BD465DF8047B704700BF4468004080B483B000AF0346FB71044AFB7913700C37BD465DF8047B704700BF83640040AA
:4055800080B400AF034B1B78DBB21846BD465DF8047B70476364004080B400AF034B1B889BB21846BD465DF8047B7047A468004080B400AF034B1B889BB21846BD465DF877
:4055C000047B70474468004080B485B000AF0346FB710B4B1B78DBB223F00203FB730849FB795B00DBB203F00203DAB2FB7B1343DBB20B701437BD465DF8047B704700BF23
:405600002051004080B400AFBD465DF8047B704780B582B000AF0F2000F084F800F072F8FFF7C6FA0346FB71074A074B1B78DBB243F01003DBB21370FB791846FFF7BCFA3B
:405640000837BD4680BD00BF9565004080B500AF00F068F94FF4004000F0A0F9054B1B78002B04D1FFF7CEFF024B01221A70FFF7CFFF80BD1B87FF1F80B582B000AF00F00A
:4056800061F9FFF795FA0346FB71074A064B1B78DBB223F01003DBB21370FB791846FFF78BFA0837BD4680BD9565004080B582B000AF00F083F90346FB80FB88A3F50043B4
:4056C0009BB2BB80BB881BB218460837BD4680BD80B584B000AF0346FB80B7F90630002B04DBFB88A3F50043FB8103E0FB88A3F50043FB81FB89184600F050F91037BD466D
:4057000080BD00BF80B400AF054B1B78DBB203F00F03DBB21846BD465DF8047B704700BF6565004080B483B000AF0346FB71044AFB7913700C37BD465DF8047B704700BF33
:405740008565004080B400AFBD465DF8047B704780B582B000AF0F2000F084F800F072F8FFF726FA0346FB71074A074B1B78DBB243F01003DBB21370FB791846FFF71CFAC1
:405780000837BD4680BD00BF9864004080B500AF00F0AEF94FF4004000F0E6F9054B1B78002B04D1FFF7CEFF024B01221A70FFF7CFFF80BD1C87FF1F80B582B000AF00F03A
:4057C000A7F9FFF7F5F90346FB71074A064B1B78DBB223F01003DBB21370FB791846FFF7EBF90837BD4680BD9864004080B582B000AF00F0C9F90346FB80FB88A3F5004327
:405800009BB2BB80BB881BB218460837BD4680BD80B584B000AF0346FB80B7F90630002B04DBFB88A3F50043FB8103E0FB88A3F50043FB81FB89184600F096F91037BD46E5
:4058400080BD00BF80B400AF054B1B78DBB203F00F03DBB21846BD465DF8047B704700BF6864004080B483B000AF0346FB71044AFB7913700C37BD465DF8047B704700BFF0
:405880008864004080B582B000AF1C4B1B78DBB223F00703FB71194AFB791370174B1B78DBB223F00303FB71144AFB79137000F0C1F84FF4004000F09DF84FF4004000F0BC
:4058C0006DF8002000F04EF800F05CF84FF4004000F0A0F8FFF76CF90346BB71084A084B1B78DBB243F01003DBB21370BB791846FFF762F90837BD4680BD00BF7565004078
:405900009465004080B400AF054A054B1B78DBB263F07F03DBB21370BD465DF8047B70477565004080B500AF054B1B78002B04D1FFF7A8FF024B01221A70FFF7E3FF80BD8C
:405940001D87FF1F80B400AF054A054B1B78DBB203F07F03DBB21370BD465DF8047B70477565004080B483B000AF0346FB71044AFB7913700C37BD465DF8047B704700BFF6
:405980008465004080B400AF034B1B78DBB21846BD465DF8047B70476465004080B483B000AF0346FB80044AFB8813800C37BD465DF8047B704700BF0C6A004080B400AF11
:4059C000044B1B78044B1B889BB21846BD465DF8047B7047066500408C6A004080B400AF034B1B889BB21846BD465DF8047B70478C6A004080B483B000AF0346FB80044A4E
:405A0000FB8813800C37BD465DF8047B704700BF4C6A004080B483B000AF0346FB80044AFB8813800C37BD465DF8047B704700BF6C6A004080B500AF01E0FFF7CFFFFFF767
:405A4000A1FF034603F04003002BF6D180BD00BF80B582B000AF1C4B1B78DBB223F00703FB71194AFB791370174B1B78DBB223F00303FB71144AFB79137000F0C1F84FF451
:405A8000004000F09DF84FF4004000F06DF8002000F04EF800F05CF84FF4004000F0A0F8FFF786F80346BB71084A084B1B78DBB243F01003DBB21370BB791846FFF77CF8A4
:405AC0000837BD4680BD00BF7A6400409D64004080B400AF054A054B1B78DBB263F07F03DBB21370BD465DF8047B70477A64004080B500AF054B1B78002B04D1FFF7A8FF72
:405B0000024B01221A70FFF7E3FF80BD1E87FF1F80B400AF054A054B1B78DBB203F07F03DBB21370BD465DF8047B70477A64004080B483B000AF0346FB71044AFB791370B0
:405B40000C37BD465DF8047B704700BF8D64004080B400AF034B1B78DBB21846BD465DF8047B70476D64004080B483B000AF0346FB80044AFB8813800C37BD465DF8047BBE
:405B8000704700BF1068004080B400AF044B1B78044B1B889BB21846BD465DF8047B7047086400409068004080B400AF034B1B889BB21846BD465DF8047B7047906800409E
:405BC00080B483B000AF0346FB80044AFB8813800C37BD465DF8047B704700BF5068004080B483B000AF0346FB80044AFB8813800C37BD465DF8047B704700BF70680040F9
:405C000080B500AF01E0FFF7CFFFFFF7A1FF034603F04003002BF6D180BD00BF80B485B000AF0346FB710B4B1B78DBB223F00803FB730849FB79DB00DBB203F00803DAB252
:405C4000FB7B1343DBB20B701437BD465DF8047B704700BFC051004080B485B000AF0346FB710B4B1B78DBB223F01003FB730849FB791B01DBB203F01003DAB2FB7B1343C4
:405C8000DBB20B701437BD465DF8047B704700BF3051004080B485B000AF0346FB710B4B1B78DBB223F00803FB730849FB79DB00DBB203F00803DAB2FB7B1343DBB20B7029
:405CC0001437BD465DF8047B704700BF2051004080B582B000AF0023FB71324B1B79DBB2184600F069F80346BB712E4B1B78DBB2DBB25BB2002B16DA2A4B5B78DBB2212B85
:405D000000D00FE0284B07221A80BA791346DB009B1A264A1344244A5360FDF73BFB0346FB7100BF38E01F4B5B78DBB2202B02D0222B1AD030E01C4B07221A80BA791346D0
:405D4000DB009B1A194A1344174A5360BB79BA7917498A5CD2B242F00102D1B2144AD154FDF798FB0346FB7116E0BB790D4A9278D2B291B20F4A22F81310BB79BA790C4979
:405D80008A5CD2B242F00202D1B2094AD154FDF71DFC0346FB7100BFFB7918460837BD4680BD00BF006000404087FF1F1086FF1FDC87FF1FF087FF1F80B485B000AF034607
:405DC000FB710023FB73FF23BB7317E0FB7B104AD35C7B737A7B0F4913465B0013449B000B4408339B78DBB2FA799A4203D1FB7BBB730223FB73FB7B0133FB73FB7B012B41
:405E0000E4D9BB7B18461437BD465DF8047B7047E487FF1F5C87FF1F80B485B000AF78600B46FB701346BB707B68DB7803F00303FB737B689B78DBB25BB2002B1ADAFB7BBC
:405E4000032B0AD0BB7803F001031549FA78CA54BB7843F00103BB701BE0BB789B08DBB203F001030F49FA78CA54BB7843F00403BB700EE0FB7B032B0BD0BB785B08DBB208
:405E800003F001030849FA78CA54BB7843F00203BB70BB7818461437BD465DF8047B7047E087FF1FE487FF1FE887FF1F80B582B000AF1A4B1B78DBB203F00303012B02D0DD
:405EC000022B04D012E0154B1B79BB7111E0134B1B79DBB203F07F02114913465B0013449B000B4408339B78BB7102E00023BB7100BF0C4B1A68BB7913441B78022B04D1F9
:405F0000FFF7E6FE0346FB7102E00023FB7100BFFB7918460837BD4680BD00BF006000405C87FF1F5087FF1F81F0004102E000BF83F0004330B54FEA41044FEA430594EA91
:405F4000050F08BF90EA020F1FBF54EA000C55EA020C7FEA645C7FEA655C00F0E2804FEA5454D4EB5555B8BF6D420CDD2C4480EA020281EA030382EA000083EA010180EAB4
:405F8000020281EA0303362D88BF30BD11F0004F4FEA01314FF4801C4CEA113102D0404261EB410113F0004F4FEA03334CEA133302D0524263EB430394EA050F00F0A78001
:405FC000A4F10104D5F1200E0DDB02FA0EFC22FA05F2801841F1000103FA0EF2801843FA05F359410EE0A5F120050EF1200E012A03FA0EFC28BF4CF0020C43FA05F3C0189D
:4060000051EBE37101F0004507D54FF0000EDCF1000C7EEB00006EEB0101B1F5801F1BD3B1F5001F0CD349085FEA30004FEA3C0C04F101044FEA445212F5800F80F09A80C9
:40604000BCF1004F08BF5FEA500C50F1000041EB045141EA050130BD5FEA4C0C404141EB010111F4801FA4F10104E9D191F0000F04BF01460020B1FA81F308BF2033A3F109
:406080000B03B3F120020CDA0C3208DD02F1140CC2F10C0201FA0CF021FA02F10CE002F11402D8BFC2F1200C01FA02F120FA0CFCDCBF41EA0C019040E41AA2BF01EB04516C
:4060C000294330BD6FEA04041F3C1CDA0C340EDC04F11404C4F1200220FA04F001FA02F340EA030021FA04F345EA030130BDC4F10C04C4F1200220FA02F001FA04F340EA66
:406100000300294630BD21FA04F0294630BD94F0000F83F4801306BF81F480110134013D4EE77FEA645C18BF7FEA655C29D094EA050F08BF90EA020F05D054EA000C04BF9C
:406140001946104630BD91EA030F1EBF0021002030BD5FEA545C05D14000494128BF41F0004130BD14F580043CBF01F5801130BD01F0004545F0FE4141F470014FF000007B
:4061800030BD7FEA645C1ABF194610467FEA655C1CBF0B46024650EA013406BF52EA033591EA030F41F4002130BD00BF90F0000F04BF0021704730B54FF4806404F1320405
:4061C0004FF000054FF0000150E700BF90F0000F04BF0021704730B54FF4806404F1320410F0004548BF40424FF000013EE700BF42004FEAE2014FEA31014FEA02701FBF80
:4062000012F07F4393F07F4F81F06051704792F0000F14BF93F07F4F704730B54FF4607401F0004521F0004120E700BF50EA010208BF704730B54FF000050AE050EA0102AF
:4062400008BF704730B511F0004502D5404261EB41014FF4806404F132045FEA915C3FF4DCAE4FF003025FEADC0C18BF03325FEADC0C18BF033202EBDC02C2F1200300FAF0
:4062800003FC20FA02F001FA03FE40EA0E0021FA02F11444C1E600BF70B54FF0FF0C4CF4E06C1CEA11541DBF1CEA135594EA0C0F95EA0C0F00F0DEF82C4481EA030621EA3B
:4062C0004C5123EA4C5350EA013518BF52EA033541F4801143F4801338D0A0FB02CE4FF00005E1FB02E506F00042E0FB03E54FF00006E1FB03569CF0000F18BF4EF0010E5C
:40630000A4F1FF04B6F5007F64F5407404D25FEA4E0E6D4146EB060642EAC62141EA55514FEAC52040EA5E504FEACE2EB4F1FD0C88BFBCF5E06F1ED8BEF1004F08BF5FEA20
:40634000500E50F1000041EB045170BD06F0004646EA010140EA020081EA0301B4EB5C04C2BFD4EB0C0541EA045170BD41F480114FF0000E013C00F3AB8014F1360FDEBF75
:40638000002001F0004170BDC4F10004203C35DA0C341BDC04F11404C4F1200500FA05F320FA04F001FA05F240EA020001F0004221F0004110EBD37021FA04F642EB0601F2
:4063C0005EEA430E08BF20EAD37070BDC4F10C04C4F1200500FA04F320FA05F001FA04F240EA020001F0004110EBD37041F100015EEA430E08BF20EAD37070BDC4F12005B0
:4064000000FA05F24EEA020E20FA04F301FA05F243EA020321FA04F001F0004121FA04F220EA020000EBD3705EEA430E08BF20EAD37070BD94F0000F0FD101F0004640009E
:4064400041EB010111F4801F08BF013CF7D041EA060195F0000F18BF704703F00046520043EB030313F4801F08BF013DF7D043EA0603704794EA0C0F0CEA135518BF95EAC0
:406480000C0F0CD050EA410618BF52EA4306D1D181EA030101F000414FF0000070BD50EA410606BF1046194652EA430619D094EA0C0F02D150EA013613D195EA0C0F05D1BF
:4064C00052EA03361CBF104619460AD181EA030101F0004141F0FE4141F470014FF0000070BD41F0FE4141F4780170BD70B54FF0FF0C4CF4E06C1CEA11541DBF1CEA13559E
:4065000094EA0C0F95EA0C0F00F0A7F8A4EB050481EA030E52EA03354FEA013100F088804FEA03334FF0805545EA131343EA12634FEA022245EA111545EA10654FEA00267F
:406540000EF000419D4208BF964244F1FD0404F5407402D25B084FEA3202B61A65EB03055B084FEA32024FF480104FF4002CB6EB020E75EB030E22BFB61A754640EA0C00D9
:406580005B084FEA3202B6EB020E75EB030E22BFB61A754640EA5C005B084FEA3202B6EB020E75EB030E22BFB61A754640EA9C005B084FEA3202B6EB020E75EB030E22BF00
:4065C000B61A754640EADC0055EA060E18D04FEA051545EA16754FEA06164FEAC30343EA52734FEAC2025FEA1C1CC0D111F4801F0BD141EA00014FF000004FF0004CB6E75A
:4066000011F4801F04BF01430020B4F1FD0C88BFBCF5E06F3FF6AFAEB5EB030C04BFB6EB020C5FEA500C50F1000041EB045170BD0EF0004E4EEA113114EB5C04C2BFD4EBEE
:406640000C0541EA045170BD41F480114FF0000E013C90E645EA060E8DE60CEA135594EA0C0F08BF95EA0C0F3FF43BAF94EA0C0F0AD150EA01347FF434AF95EA0C0F7FF425
:4066800025AF104619462CE795EA0C0F06D152EA03353FF4FDAE1046194622E750EA410618BF52EA43067FF4C5AE50EA41047FF40DAF52EA43057FF4EBAE12E74FEA410247
:4066C000B2F1E04324BFB3F5001CDCF1FE5C0DD901F0004C4FEAC0024CEA5070B2F1004F40EB830008BF20F00100704711F0804F21D113F13872BCBF01F00040704741F4BB
:4067000080114FEA5252C2F11802C2F1200C10FA0CF320FA02F018BF40F001004FEAC1234FEAD32303FA0CFC40EA0C0023FA02F34FEA4303CCE77FEA625307D150EA0133F3
:406740001EBF4FF0FE4040F44000704701F0004040F0FE4040F40000704700BF80F0004002E000BF81F0004142001FBF5FEA410392EA030F7FEA226C7FEA236C6AD04FEAAB
:406780001262D2EB1363C1BFD218414048404140B8BF5B42192B88BF704710F0004F40F4000020F07F4018BF404211F0004F41F4000121F07F4118BF494292EA030F3FD0E7
:4067C000A2F1010241FA03FC10EB0C00C3F1200301FA03F100F0004302D5494260EB4000B0F5000F13D3B0F1807F06D340084FEA310102F10102FE2A51D2B1F1004F40EBB9
:40680000C25008BF20F0010040EA03007047490040EB000010F4000FA2F10102EDD1B0FA80FCACF1080CB2EB0C0200FA0CF0AABF00EBC25052421843BCBFD0401843704745
:4068400092F0000F81F4000106BF80F400000132013BB5E74FEA41037FEA226C18BF7FEA236C21D092EA030F04D092F0000F08BF0846704790EA010F1CBF0020704712F09C
:406880007F4F04D1400028BF40F00040704712F100723CBF00F50000704700F0004343F0FE4040F4000070477FEA226216BF08467FEA23630146420206BF5FEA412390EAC6
:4068C000010F40F4800070474FF0000304E000BF10F0004348BF40425FEA000C08BF704743F0964301464FF000001CE050EA010208BF70474FF000030AE000BF50EA010228
:4069000008BF704711F0004302D5404261EB41015FEA010C02BF84460146002043F0B64308BFA3F18053A3F50003BCFA8CF2083AA3EBC25310DB01FA02FC634400FA02FCD5
:40694000C2F12002BCF1004F20FA02F243EB020008BF20F00100704702F1200201FA02FCC2F1200250EA4C0021FA02F243EB020008BF20EADC7070474FF0FF0C1CEAD0528B
:406980001EBF1CEAD15392EA0C0F93EA0C0F6FD01A4480EA010C400218BF5FEA41211ED04FF0006343EA501043EA5111A0FB01310CF00040B1F5000F3EBF490041EAD371AA
:4069C0005B0040EA010062F17F02FD2A1DD8B3F1004F40EBC25008BF20F00100704790F0000F0CF0004C08BF49024CEA502040EA51207F3AC2BFD2F1FF0340EAC250704746
:406A000040F400004FF00003013A5DDC12F1190FDCBF00F000407047C2F10002410021FA02F1C2F1200200FA02FC5FEA310040F1000053EA4C0308BF20EADC70704792F061
:406A4000000F00F0004C02BF400010F4000F013AF9D040EA0C0093F0000F01F0004C02BF490011F4000F013BF9D041EA0C018FE70CEAD15392EA0C0F18BF93EA0C0F0AD0E3
:406A800030F0004C18BF31F0004CD8D180EA010000F00040704790F0000F17BF90F0004F084691F0000F91F0004F14D092EA0C0F01D142020FD193EA0C0F03D14B0218BF48
:406AC000084608D180EA010000F0004040F0FE4040F40000704740F0FE4040F4400070474FF0FF0C1CEAD0521EBF1CEAD15392EA0C0F93EA0C0F69D0A2EB030280EA010CF8
:406B000049024FEA402037D04FF0805343EA111143EA10130CF000408B4238BF5B0042F17D024FF4000C8B4224BF5B1A40EA0C00B3EB510F24BFA3EB510340EA5C00B3EB1B
:406B4000910F24BFA3EB910340EA9C00B3EBD10F24BFA3EBD10340EADC001B0118BF5FEA1C1CE0D1FD2A3FF650AF8B4240EBC25008BF20F0010070470CF0004C4CEA5020DA
:406B80007F32C2BFD2F1FF0340EAC250704740F400004FF00003013A37E792F0000F00F0004C02BF400010F4000F013AF9D040EA0C0093F0000F01F0004C02BF490011F423
:406BC000000F013BF9D041EA0C0195E70CEAD15392EA0C0F08D142027FF47DAF93EA0C0F7FF470AF084676E793EA0C0F04D14B023FF44CAF08466EE730F0004C18BF31F09C
:406C0000004CCAD130F000427FF45CAF31F000437FF43CAF5FE700BF4FF0FF3C06E000BF4FF0010C02E000BF4FF0010C4DF804CD4FEA40024FEA41037FEA226C18BF7FEA29
:406C4000236C11D001B052EA530C18BF90EA010F58BFB2EB030088BFC81738BF6FEAE17018BF40F0010070477FEA226C02D15FEA402C05D17FEA236CE4D15FEA412CE1D051
:406C80005DF8040B704700BF844608466146FFE70FB5FFF7C9FF002848BF10F1000F0FBD4DF808EDFFF7F4FF0CBF012000205DF808FB00BF4DF808EDFFF7EAFF34BF012055
:406CC00000205DF808FB00BF4DF808EDFFF7E0FF94BF012000205DF808FB00BF4DF808EDFFF7D2FF94BF012000205DF808FB00BF4DF808EDFFF7C8FF34BF012000205DF877
:406D000008FB00BF014B1868704700BF8C86FF1F0E4B70B51E460E4C0025E41AA410A54204D056F8253098470135F8E701F074FB084B094C1E46E41AA4100025A54204D0BC
:406D400056F8253098470135F8E770BD2484000024840000248400002C840000931E222B10B50C4602D90020087010BD0A2A06D1002804DA2D230B704042012100E00021D1
:406D8000214400F0D5F8204610BDFFF7E7BF10B5431E0A44914204D011F8014B03F8014FF8E710BD03460244934202D003F8011BFAE770470FB40A4B13B51C6824B1A36951
:406DC00013B9204600F0B0FA05AB2046A168049A019300F05BFC02B0BDE8104004B070478C86FF1F38B5084B05461C6824B1A36913B9204600F098FA20462946A268BDE8C5
:406E0000384000F0E1BE00BF8C86FF1F70B50E46054618B183690BB900F086FAAC68A389190701D5236983B92846214600F010F958B14FF0FF3070BD002B0EDB236816F892
:406E4000012C1A70236801332360A36816F8012B013BA360002AEFD116E0A269934209DB236816F8012C1A70236819780A29EAD1284602E0284616F8011C224600F094F8CA
:406E8000421C50425041D3E7002B15DAA269934208DB23680A221A702368197891420FD1284601E028460A21224600F07DF8431C5842584130B1BCE723680A221A70236813
:406EC000013323600A2070BD024B01461868FFF79DBF00BF8C86FF1F38B50C46054618B183690BB900F020FA0E4B9C4201D16C6808E00D4B9C4201D1AC6803E00B4B9C422A
:406F000008BFEC682846214600F0A4FE38B96368013B636023685A1C2260187838BD4FF0FF3038BD84830000A4830000C4830000F0B58BB003460F466D461A4C04F1200E7A
:406F40002E4620686168083403C674453546F7D1217920683171911E222930604FF0000001D938701CE07D1EB3FBF2F402FB14330AAE334413F8283C411C05F8013F23462C
:406F80000CB10846F0E77C543A18C11A8B4206DAF95C1478FC5402F801190133F5E738460BB0F0BD5C83000070B50D461446064618B183690BB900F0B7F9224B9C4201D1D7
:406FC000746808E0204B9C4201D1B46803E01F4B9C4208BFF468A369A360A3891A0709D523693BB123682069EDB2181A636998420FDB08E03046214600F02AF80028F1D061
:407000004FF0FF3070BD3046214600F011F90028F6D1A3680130013BA36023685A1C22601D706369984204D0A389DB0707D50A2D05D13046214600F0FBF80028E0D12846EC
:4070400070BD00BF84830000A4830000C4830000314B70B51D6806460C4625B1AB6913B9284600F061F92D4B9C4201D16C6808E02B4B9C4201D1AC6803E02A4B9C4208BF62
:40708000EC68A3899AB211071DD4D50602D40922326038E0500712D5616B41B104F14403994202D0304600F02FFA00236363A38923F02403A3810023636023692360A3896D
:4070C00043F00803A38123694BB9A38903F42073B3F5007F03D03046214600F0C9F9A38913F0010205D00022A26062695242A26103E0990758BF6269A26022694AB903F0EA
:40710000800080B230B143F04003A3814FF0FF3070BD002070BD00BF8C86FF1F84830000A4830000C48300008A892DE9F041054610070C4657D44B68002B02DC0B6C002B3F
:4071400018DDE66AB6B102F48052002392B22F682B600AB1626D10E0216A28460123B047411C024609D12B683BB11D2B01D0162B46D12F600020BDE8F081A3895B0705D5E8
:407180006368D21A636B0BB1236CD21AE66A00232846216AB047461CA38905D12A681AB11D2A01D0162A19D1002262602269D904226004D5421C01D12B6803B96065616BF6
:4071C0002F600029D6D004F14403994202D0284600F09AF900206063BDE8F08143F04003A381BDE8F0810F69002FC3D093070E680CBF4B690023C7EB06080F608B6012E0B6
:40720000A3894FF0FF3043F04003A381BDE8F0812846216A3A464346A66AB0470028EFDD0744C0EB0808B8F1000FF1DCA2E7000038B50B6905460C46DBB118B183690BB9F0
